:0D00000002042432C2CF327F002222A15E12
:0200130080EE7D
:0E001B00802E758F0B7586FE439C04D2AF229B
:0E002B0080D775E90875EA02439B02D2AF2226
:10003B00C1019000ADE0A3F09000AD6002E4F022AE
:0A004B00C0E0E4F58BF58DD0E03243
:10005B000209764200A900004400A50000000044FC
:10006B0000AB000000004200AF0000C101C1024123
:10007B00008E0041008F004100A40041008D000064
:10008B00C1BFBB010689828A83E0225002E722BBF3
:10009B00FE02E32289828A83E49322BB010CE58270
:1000AB0029F582E5833AF583E0225006E92582F8AB
:1000BB00E622BBFE06E92582F8E222E58229F582DB
:1000CB00E5833AF583E49322BB010989828A83F89D
:1000DB00E028F022500327F722BBFE05F8E328F3B4
:1000EB00228A838982F8E4932822BB010689828ABB
:1000FB0083F0225002F722BBFE01F322F8BB010D65
:10010B00E58229F582E5833AF583E8F0225006E98A
:10011B002582C8F622BBFE05E92582C8F222A3F888
:10012B00E0C5F025F0F0E582158270021583E0C87A
:10013B0038F0E822BB0110E58229F582E5833AF518
:10014B0083E0F5F0A3E0225009E92582F886F00858
:10015B00E622BBFE0AE92582F8E2F5F008E222E589
:10016B00832AF583E993F5F0A3E99322F8BB0111F8
:10017B00E58229F582E5833AF583E8F0E5F0A3F013
:10018B00225009E92582C8F608A6F022BBFE09E930
:10019B002582C8F2E5F008F22275F008758200EFAF
:1001AB002FFFEE33FECD33CDCC33CCC58233C5829E
:1001BB009BED9AEC99E58298400CF582EE9BFEED57
:1001CB009AFDEC99FC0FD5F0D6E4CEFBE4CDFAE426
:1001DB00CCF9A88222B800C1B90059BA002DEC8B1A
:1001EB00F084CFCECDFCE5F0CBF97818EF2FFFEEF6
:1001FB0033FEED33FDEC33FCEB33FB10D7039940AF
:10020B0004EB99FB0FD8E5E4F9FA227818EF2FFFEE
:10021B00EE33FEED33FDEC33FCC933C910D7059B30
:10022B00E99A4007EC9BFCE99AF90FD8E0E4C9FA8C
:10023B00E4CCFB2275F010EF2FFFEE33FEED33FD18
:10024B00CC33CCC833C810D7079BEC9AE899400A3B
:10025B00ED9BFDEC9AFCE899F80FD5F0DAE4CDFBB9
:10026B00E4CCFAE4C8F922E8600FECC313FCED13FD
:10027B00FDEE13FEEF13FFD8F122BB010789828A33
:10028B008302034B5005E9F802033FBBFE05E9F877
:10029B0002035789828A83020363BB010DE582291E
:1002AB00F582E5833AF58302034B5007E92582F883
:1002BB0002033FBBFE07E92582F8020357E58229BB
:1002CB00F582E5833AF583020363BB010789828AD2
:1002DB008302030F5005E9F80203A9BBFE05E9F8F9
:1002EB000203B522BB010789828A83020380500572
:1002FB00E9F8020373BBFE05E9F802038C89828AD5
:10030B0083020399ECF0A3EDF0A3EEF0A3EFF02240
:10031B00BB010DE58229F582E5833AF5830203DA09
:10032B005007E92582F80203C1BBFE07E92582F8D5
:10033B0002040B22E6FC08E6FD08E6FE08E6FF22B7
:10034B00E0FCA3E0FDA3E0FEA3E0FF22E2FC08E259
:10035B00FD08E2FE08E2FF22E493FC740193FD74B6
:10036B000293FE740393FF22E6FB08E6F908E6FA14
:10037B0008E6CBF822E0F8A3E0F9A3E0FAA3E0FB50
:10038B0022E2FB08E2F908E2FA08E2CBF822E49356
:10039B00F8740193F9740293FA740393FB22ECF64D
:1003AB0008EDF608EEF608EFF622ECF208EDF2088F
:1003BB00EEF208EFF222D083D082E493F6087401B8
:1003CB0093F608740293F608740393F6740473A8F7
:1003DB00828583F0D083D0821203F11203F11203D2
:1003EB00F11203F1E473E493A3C583C5F0C583C88D
:1003FB00C582C8F0A3C583C5F0C583C8C582C82212
:10040B00D083D082E493F208740193F208740293C0
:10041B00F208740393F2740473787FE4F6D8FD90BA
:10042B0000007FFF7E03E4F0A3DFFCDEFA75812082
:10043B000204790205A1E493A3F8E493A34003F625
:10044B008001F208DFF48029E493A3F85407240C0D
:10045B00C8C333C4540F4420C8834004F4568001EE
:10046B0046F6DFE4800B0102040810204080900068
:10047B005EE47E019360BCA3FF543F30E509541F3B
:10048B00FEE493A360010ECF54C025E060A840B8F2
:10049B00E493A3FAE493A3F8E493A3C8C582C8CA70
:1004AB00C583CAF0A3C8C582C8CAC583CADFE9DE43
:1004BB00E780BE9000ACE004F0E075F00584E5F059
:1004CB007005A3E04420F09000ACE075F01984E5D2
:1004DB00F07005A3E04440F09000ACE0B43207E4C8
:1004EB00F0A3E04480F0229000ADE04401F09000D6
:1004FB00ABE004F0E020E0079000ADE04402F090A8
:10050B0000ABE075F00584E5F070079000ADE044BA
:10051B0004F09000ABE075F00A84E5F070079000F2
:10052B00ADE04408F09000ABE0B4140BE4F09000A5
:10053B00ADE04410F091BED39000AAE0940090007F
:10054B00A9E09400400CA3E024FFF09000A9E03454
:10055B00FFF022C0E0C0F0C083C082C0D0758ACB50
:10056B00758CFA91F29000B0E004F070069000AF39
:10057B00E004F0B284D0D0D082D083D0F0D0E0327F
:10058B005389F0438901538EF7758ACB758CFAD258
:10059B008CD2A9D2AF22B1B1113D9000AEE030E7C1
:1005AB00F7C2AF80F322D12FC287C282C283D2920D
:1005BB00D291D290D280C202112D111DD14C90003C
:1005CB008EE0C394014019C287C282C283D292D2F9
:1005DB0091D290D280C202538FF7E4F5EC439B0289
:1005EB0043870280D92253890F438910538EF7D248
:1005FB008ED2ABD2AF22C0E0C083C082C0D075D048
:10060B0000C007AFECEF24FE700C90008FE4F0906D
:10061B00008EF0438F0875EC00D007D0D0D082D07D
:10062B0083D0E03275B12075B2DD7580EEE4F5B3A1
:10063B0075B47F7590F875A09FF5ACF5AD75B0FFEF
:10064B0022A2AF9200C2AF75C7AA75C755439610C9
:10065B00A20092AFA2AF9200C2AF75C7AA75C755E1
:10066B00439604A20092AFA2AF9200C2AF75C7AA85
:10067B0075C7555396FDA20092AFA2AF9200C2AFC1
:10068B0075C7AA75C75553A37FA20092AFA2AF92AD
:10069B0000C2AF75C7AA75C755539FFEA20092AF94
:1006AB00A2AF9200C2AF75C7AA75C7555397DFA209
:1006BB000092AF22C0E0C0F0C083C082C0D075D022
:1006CB0000C000C001C002C003C004C005C006C00A
:1006DB0007538FEF539BFD120C82B296D007D006B7
:1006EB00D005D004D003D002D001D000D0D0D0821E
:1006FB00D083D0F0D0E032A2AF9200C2AF75C7AAC0
:10070B0075C755439620A20092AFA2AF9200C2AF1D
:10071B0075C7AA75C7555396FBA20092AFA2AF92AD
:10072B0000C2AF75C7AA75C7555396FDA20092AF0D
:10073B00A2AF9200C2AF75C7AA75C75553A37FA2CC
:10074B000092AFA2AF9200C2AF75C7AA75C755533F
:10075B009FFEA20092AFA2AF9200C2AF75C7AA755F
:10076B00C7555396DFA20092AF22E490008CF09015
:10077B000000F0A3F043E10175F68AD2AE2275E8D2
:10078B0001C2EFD2EE229000F2EBF0A3EAF0A3E964
:10079B00F0E4FF11F59000F2E0FBA3E0FAA3E0F91F
:1007AB00900001ED3107E4EFC39D50229000F2E081
:1007BB00FBA3E0FAA3E02406F9E43AFA75F002EFA2
:1007CB00A4F58285F083E4F5F031770F80D99000A2
:1007DB00F2E0FBA3E0FAA3E0F9900002711B00002A
:1007EB000000229000B9EBF0A3EAF0A3E9F0A3EC30
:1007FB00F0A3EDF0E4A3F0A3F09000B9E0FBA3E0CD
:10080B00FAA3E02402F9E43AFAC003C002C00112D1
:10081B000285C006C0079000B9E0A3E0FAA3E0246C
:10082B0006F9E43AFAC002C0019000B9E0A3E0FA7D
:10083B00A3E0F912008D75F002A4F58285F083D048
:10084B0001D00212013FFFAEF0FBAA06E4D007D0A5
:10085B0006C3EF9BFFEE9AFEED9400FDEC9400FCBB
:10086B00D001D002D0031202D59000BCE0FEA3E071
:10087B00FF9000B9E0FBA3E0FAA3E02406F9E43A09
:10088B00FAC002C0019000B9E0A3E0FAA3E0F912AC
:10089B00008D75F002A4F58285F083D001D002EEB5
:1008AB008FF01201779000B9E0FBA3E0FAA3E024EC
:1008BB0002F9E43AFAC003C002C0011202EF900041
:1008CB00BCE0FEA3E0FFE4FCFDEB2FFFEA3EFEEDF8
:1008DB0039FDEC38FCD001D002D0031202D59000C8
:1008EB00B9E0FBA3E0FAA3E0F974011200D3900086
:1008FB00B9E0A3E0A3E09000011200A6FF12008D67
:10090B00B5070E9000B9E0A3E0A3E0E41200F5D226
:10091B00013001419000B9E0FBA3E0FAA3E0F990AC
:10092B0000011200A6FFE4FCFDFEC004C005C006DA
:10093B00C0079000B9E0A3E0A3E09000021202A56B
:10094B00D003D002D001D0001201E09000BEEEF037
:10095B00A3EFF0800D9000BCE0FFA3E0A3CFF0A3CA
:10096B00EFF09000BEE0FEA3E0FF22C0E0C0F0C0BD
:10097B0083C082C0D075D000C004C006C007AFC30F
:10098B00EF75F010A4FFE5C2540F7C002FFEEC3581
:10099B00F09000F9F0A3CEF0C2EFE5E8540F24F984
:1009AB0060048007800575E803D2EED007D006D02F
:1009BB0004D0D0D082D083D0F0D0E03275C7AA75E6
:1009CB00C75553A5FE75C7AA75C755539FFE22ADD4
:1009DB0007AC06511775AF22ECF5A7AF058FA675BF
:1009EB00AEFF75C7AA75C75543A40180CFAB07AA45
:1009FB0006511775AF21EAF5A7AF038FA6AF058F89
:100A0B00AE75C7AA75C75543A40180B075C7AA7543
:100A1B00C755439F0175C7AA75C75543A5012290BA
:100A2B0000E6EEF0A3EFF0A3ECF0A3EDF0C2AF31D4
:100A3B00F89000E7E02401FF9000E6E03400FE9020
:100A4B0000E8E0FD31F8D2AF229000E1EBF0A3EA31
:100A5B00F0A3E9F0A3EDF07F007E4031DAE4A3F0E0
:100A6B009000E4E0FFA3E0FEC39F5035EE75F0026B
:100A7B00A42400FFE5F03440FE9000E1E0FBA3E08E
:100A8B00FAA3E0F99000E5E075F002A4F58285F099
:100A9B008312013FFDACF0512A9000E5E004F08099
:100AAB00BF227F007E4031DA7F01227B017A007901
:100ABB00907D0A809451B67B017A0079907D0A90E3
:100ACB0000D5EBF0A3EAF0A3E9F0A3EDF0E4A3F07B
:100ADB00A3F09000D9F0A3F09000D8E0FFA3E0FCC6
:100AEB00A3E0FDC39FEC94005046ED25E0FFEC33F3
:100AFB00FEE42FFFEE3440FE713CAC06AD079000D8
:100B0B00DAE025E0FF9000D9E033FE9000D5E0FB62
:100B1B00A3E0FAA3E0F98F828E83EC8DF0120177BC
:100B2B009000DAE004F070069000D9E004F080A8A1
:100B3B0022AD07AC06C2AF715EAB07ED2401FFE43B
:100B4B003EFE715E7E00EFFE7C00E42BFFEC3EFE72
:100B5B00D2AF228F828E83E493FF227F007E40717F
:100B6B005E9000F5EFF07F02715E9000F6EFF09073
:100B7B0000F5E0640260037F00227F01229000F702
:100B8B007402F07F007E4031DA7B017A0079F790B6
:100B9B0000CC7402F0E4FDFC71A87F01229000C729
:100BAB00EBF0A3EAF0A3E9F0A3ECF0A3EDF0E490F3
:100BBB0000CDF0F09000CCE0FFA3E0FEC39F5038D7
:100BCB009000CBE02400FD9000CAE03440FCEE7EA8
:100BDB00002DFFEE3CFE9000C7E0FBA3E0FAA3E084
:100BEB00F99000CDE0F5827583001200A6FD31F877
:100BFB009000CDE004F080BC229000C0EBF0A3EAA3
:100C0B00F0A3E9F0A3ECF0A3EDF0E49000C6F0F054
:100C1B009000C5E0FFA3E0FEC39F50389000C4E0F6
:100C2B002400FD9000C3E03440FCEE7E002DFFEE6F
:100C3B003CFE715E9000C0E0FBA3E0FAA3E0F990EC
:100C4B0000C6E0F582758300EF1201079000C6E045
:100C5B0004F080BC22ED4C601812008DFF9000E078
:100C6B00E02FF0740129F9E43AFAED1D70011C80B4
:100C7B00E49000E0E0FF2290008FE0FFB41800400A
:100C8B0002A193900C95F8282873020CEF020CFA32
:100C9B00020D01020D08020D0F020D16020D1D02B1
:100CAB000D28020D2F020D36020D3D020D44020DD3
:100CBB004B020D52020D59020D64020D6B020D72A7
:100CCB00020D79020D80020D87020D8E020CDD02E2
:100CDB000CE8C283D287C28075868AA193D28075B5
:100CEB0086F5A193D280D287C29275868AA193D2C0
:100CFB00927586F5A193C29175868AA193D291754F
:100D0B0086F5A193C29075868A807DD2907586F503
:100D1B008076C287D282C29275868A806BD2927598
:100D2B0086F58064C29175868A805DD2917586F551
:100D3B008056C29075868A804FD2907586F5804812
:100D4B00C28075868A8041D2807586F5803AC282D0
:100D5B00D283C29275868A802FD2927586F58028AF
:100D6B00C29175868A8021D2917586F5801AC290C0
:100D7B0075868A8013D2907586F5800CC280758635
:100D8B008A8005D2807586F5EF20E00890008FE011
:100D9B0004F0801C90008DE004F0E0C39405400A41
:100DAB00E4F090008FE004F0800690008FE014F0E8
:100DBB0090008FE0C394184008E4F090008EE0049C
:100DCB00F0229000EA12030F53B1BF53B2BF53B1DD
:100DDB007F53B27F75985243878053C4F843C42026
:100DEB009000EAE0F8A3E0F9A3E0FAA3E0FB7F4070
:100DFB007E427D0F7C001201E0C374FF9FFF74FFE6
:100E0B009EFEE49DFDE49CFC78081202728FC69056
:100E1B0000EAE0F8A3E0F9A3E0FAA3E0FB7F407E51
:100E2B00427D0F7C001201E0C374FF9FFF74FF9E95
:100E3B00FEE49DFDE49CFCEFE48FC543C408223027
:100E4B0098FDAF99C29822C2998F993099FD22AD26
:100E5B0007AC06C299ECF5993099FDC299AF058F95
:100E6B00993099FD229000EE12030FD2FE9000EE06
:100E7B00E0F8A3E0F9A3E0FAA3E0FB7F407E427D1C
:100E8B000F7C001201E0C374FF9FFF74FF9EFEE412
:100E9B009DFDE49CFC78081202728FC69000EEE078
:100EAB00F8A3E0F9A3E0FAA3E0FB7F407E427D0FBD
:100EBB007C001201E0C374FF9FFF74FF9EFEE49D54
:100ECB00FDE49CFCEFE48FC543C40822C2F98F9A62
:100EDB0030F9FD22AD07AC06C2F9ECF59A30F9FDFD
:100EEB00C2F9AF058F9A30F9FD22EF1FAC067001E6
:100EFB001E4C70F622C2947F037E00D1F5D293D2A2
:100F0B0094229000B1EFF09000B3EBF0A3EAF0A3C2
:100F1B00E9F0F1829000B1E0FF25E0FFF197EF706F
:100F2B000280D2AF05F197EF700280C9E49000B751
:100F3B00F0A3F09000B6E0FFC39000B8E09F748080
:100F4B00F89000B7E0648098502B9000B3E0FBA3BF
:100F5B00E475F001120129A9F0FA12008DFFF19747
:100F6B00EF700280909000B8E004F070069000B72C
:100F7B00E004F080BEE100D294D2937F0A7E00D1D0
:100F8B00F5C2947F0A7E00D1F5C29322E4FEEF30C6
:100F9B00E704D2948002C294D293C293EF25E0FF70
:100FAB000EEEB408E953B4EF43B310D293A294E41A
:100FBB0033FEC29343B41053B3EF70047F0180022E
:100FCB007F00229000CEEFF09000D0EBF0A3EAF080
:100FDB00A3E9F0F1829000CEE0FF25E0FFF197EF5F
:100FEB007002E100AF05F197EF7002E100F1829022
:100FFB0000CEE0FF25E004FF120F97EF7003020F06
:10100B0000E49000D4F09000D3E014FFA3E0C39F62
:10101B0050207F01115E9000D0E0FBA3E475F0013E
:10102B00120129A9F0FAEF1200F59000D4E004F0B8
:10103B0080D4E4FF115E9000D0E0FBA3E475F001D7
:10104B00120129A9F0FAEF1200F543B41053B3EFD4
:10105B00020F00AD07E4FB53B4EF43B3107F01FE67
:10106B00120EF5E4FFD293EB25E0FB309403440121
:10107B00FBC2930FEFB408ED43B41053B3EFED6025
:10108B0004C2948002D294D2937F017E00120EF59B
:0B109B00C29353B4EF43B310AF032225
:00000001FF
