:10000000020B6022020CB9020CB9320210E4C2CF1A
:1000100032222280F5020CB922222202186975E8E8
:1000200001C2EFD2EE22020CB9222280E1900097A9
:10003000E0F8A3E0F9A3E0FAA3E0FB900116E0FCEE
:10004000A3E0FDA3E0FEA3E0C39BFFEE9AFEED99C3
:10005000FDEC98FC22020CB9020CB9021D5F0204EF
:1000600030E86480F8E933E83360110460F0ED3380
:10007000EC337009E8FCE9FDEAFEEBFF220460DEE8
:10008000D3EB9FEA9EE99DE8C2E78CF0C2F795F0BA
:10009000400CE8CCF8E9CDF9EACEFAEBCFFB12033D
:1000A000FB85D0F05804700320D5B3E804700750E6
:1000B00002B2D502043A92D5EC0460F7E4CCC0E079
:1000C000C398F8603B94186008400DD0E0FB020430
:1000D00012E4FBFAC9FC8028E830E406E4C9FBE43A
:1000E000CAFCE830E305E4C9CACBFCE85407601059
:1000F000F8C3E913F9EA13FAEB13FBEC13FCD8F19C
:1001000030F52FC3E49CFCEF9BFFEE9AFEED99FDCA
:10011000D0E0FBEF4E4D4C701222DB03020437ECB3
:100120002CFCEF33FFEE33FEED33FDED30E7EB0259
:100130000412EF2BFFEE3AFEED39FDD0E0FB501339
:100140000BBB000302043AED13FDEE13FEEF13FFA9
:10015000EC13FC020412EC4D6011E8497017ED330A
:10016000EC3304600DE4FCFFFEFD22E933E83304C8
:1001700070F80204301203FB58046009E4CC2481B7
:10018000500628500902043A284003020437C0E010
:10019000EB4A7044B98006D0E0FB020426EF4E70B3
:1001A0001CBD8008EBFFEAFEE9FD80EBE98DF0A4C1
:1001B000FEE5F002023FE9CDF9EAFEEBFFEF89F040
:1001C000A4FCE5F0CE89F0A42EFFE435F0CD89F053
:1001D000A42DFEE435F08067EF4E7005BD80D7801A
:1001E000C3EF8BF0A4ACF0EE8BF0A42CFCE435F064
:1001F000F8EF8AF0A42CE5F038FCE433CB8DF0A4C2
:100200002CFCE5F03BF8EE8AF0A42CFCE5F038F885
:10021000E433CF89F0A42CFCE5F038CF3400CE894C
:10022000F0A42FFFE5F03EFEE433C98DF0A42EFECE
:10023000E5F039CD8AF0A42FFFE5F03EFEE43DFD68
:1002400033D0E0FB50070BBB000F02043AEC2CFC50
:10025000EF33FFEE33FEED33FD02041202043AECFD
:100260005D046005E8590470030204301203FB5872
:100270000460F6EC4860F2EC7004FDFEFF22C860FA
:10028000DB2481C85009C3986002500602043798E5
:1002900050CAF582E9294B4A7005AB8202042675E3
:1002A000F0007C1A7880C3EF9BEE9AED99400DC365
:1002B000EF9BFFEE9AFEED99FDE842F0DC23ACF0F7
:1002C000D0E0FFD0E0FED0E0FDAB8220E7101BEBDA
:1002D00060BAEC2CFCEF33FFEE33FEED33FD02048D
:1002E00012E803F830E705C0F075F000EF2FFFEEDD
:1002F00033FEED33FD40B830E7C280AA74F8CC6419
:1003000080CCC86480C8F58204604FC3EB9FF5F0D1
:10031000EA9E42F0E99D42F0E89C45F0603C501DA9
:10032000E5825FFFE582D313CB5BCBF42B5582FBD9
:1003300050280ABA002409B9002008801DE5825B14
:10034000FBE582D313CF5FCFF4C3132F5582FF5049
:10035000090EBE00050DBD00010CC3EB9FF5F0EAD0
:100360009E42F0E99D42F0E89C45F06007CC4820B1
:10037000E701B3EC22ED33EC33600A047003BD8077
:1003800004ECB2E7FC2275F020800E75F0108005B9
:1003900075F0087D007E007F003392D530D50312C2
:1003A00007B7EC334010EF33FFEE33FEED33FDECD7
:1003B00033FCD5F0ED22E5F0247EA2D513CC92E7F4
:1003C000CDCEFF22EDD2E7CD33EC3392D524814060
:1003D00006E4FFFEFDFC22FCE4CFCECDCC24E050B1
:1003E0001174FF80EDC3CC13CCCD13CDCE13CECF83
:1003F00013CF0470F030D5DE0207B7E9D2E7C93376
:10040000E833F892D5EDD2E7CD33EC33FC5002B2AD
:10041000D522EC30E7100FBF000C0EBE00080DBD5A
:1004200000040BEB6014A2D5EB13FCED92E7FD2268
:1004300074FFFCFDFEFF22E480F8A2D574FF13FCDC
:100440007D80E480EFE709F608DFFA8046E709F2ED
:1004500008DFFA803E88828C83E709F0A3DFFA8008
:1004600032E309F608DFFA8078E309F208DFFA8060
:100470007088828C83E309F0A3DFFA806489828A22
:1004800083E0A3F608DFFA805889828A83E0A3F22A
:1004900008DFFA804C80D280FA80C680D4806980E0
:1004A000F28033801080A680EA809A80A880DA806B
:1004B000E280CA803389828A83ECFAE493A3C8C5B8
:1004C00082C8CCC583CCF0A3C8C582C8CCC583CCB8
:1004D000DFE9DEE7800D89828A83E493A3F608DFF3
:1004E000F9ECFAA9F0EDFB2289828A83ECFAE0A309
:1004F000C8C582C8CCC583CCF0A3C8C582C8CCC54A
:1005000083CCDFEADEE880DB89828A83E493A3F28E
:1005100008DFF980CC88F0EF60010E4E60C388F0F0
:10052000ED2402B4040050B9F582EB2402B40400B7
:1005300050AF232345822390049573BB0106898223
:100540008A83E0225002E722BBFE02E32289828AEC
:1005500083E49322BB010CE58229F582E5833AF519
:1005600083E0225006E92582F8E622BBFE06E92553
:1005700082F8E222E58229F582E5833AF583E49365
:1005800022BB010989828A83F8E028F022500327E0
:10059000F722BBFE05F8E328F3228A838982F8E478
:1005A000932822BB010689828A83F0225002F72217
:1005B000BBFE01F322F8BB010DE58229F582E5833C
:1005C0003AF583E8F0225006E92582C8F622BBFE00
:1005D00005E92582C8F222EF8DF0A4A8F0CF8CF0B7
:1005E000A428CE8DF0A42EFE22C2D5EC30E709B2AD
:1005F000D5E4C39DFDE49CFCEE30E715B2D5E4C321
:100600009FFFE49EFE12094EC3E49DFDE49CFC8026
:100610000312094E30D507C3E49FFFE49EFE22A3D8
:10062000F8E0C5F025F0F0E582158270021583E050
:10063000C838F0E822BB0110E58229F582E5833A4B
:10064000F583E0F5F0A3E0225009E92582F886F071
:1006500008E622BBFE0AE92582F8E2F5F008E2226C
:10066000E5832AF583E993F5F0A3E99322F8BB012A
:1006700011E58229F582E5833AF583E8F0E5F0A3F8
:10068000F0225009E92582C8F608A6F022BBFE092F
:10069000E92582C8F2E5F008F222E88FF0A4CC8BBD
:1006A000F0A42CFCE98EF0A42CFC8AF0EDA42CFC28
:1006B000EA8EF0A4CDA8F08BF0A42DCC3825F0FD67
:1006C000E98FF0A42CCD35F0FCEB8EF0A4FEA9F060
:1006D000EB8FF0A4CFC5F02ECD39FEE43CFCEAA4AC
:1006E0002DCE35F0FDE43CFC2275F008758200EF5C
:1006F0002FFFEE33FECD33CDCC33CCC58233C58254
:100700009BED9AEC99E58298400CF582EE9BFEED0C
:100710009AFDEC99FC0FD5F0D6E4CEFBE4CDFAE4DB
:10072000CCF9A88222B800C1B90059BA002DEC8BCF
:10073000F084CFCECDFCE5F0CBF97818EF2FFFEEAB
:1007400033FEED33FDEC33FCEB33FB10D703994064
:1007500004EB99FB0FD8E5E4F9FA227818EF2FFFA4
:10076000EE33FEED33FDEC33FCC933C910D7059BE6
:10077000E99A4007EC9BFCE99AF90FD8E0E4C9FA42
:10078000E4CCFB2275F010EF2FFFEE33FEED33FDCE
:10079000CC33CCC833C810D7079BEC9AE899400AF1
:1007A000ED9BFDEC9AFCE899F80FD5F0DAE4CDFB6F
:1007B000E4CCFAE4C8F922C3E49FFFE49EFEE49D82
:1007C000FDE49CFC22EB9FF5F0EA9E42F0E99D429D
:1007D000F0EC6480C864809845F022EB9FF5F0EA65
:1007E0009E42F0E99D42F0E89C45F022E8600FEC63
:1007F000C313FCED13FDEE13FEEF13FFD8F122E857
:100800006010ECA2E713FCED13FDEE13FEEF13FFF7
:10081000D8F022E8600FEFC333FFEE33FEED33FD77
:10082000EC33FCD8F122BB010789828A830209AF2D
:100830005005E9F80209A3BBFE05E9F80209BB89E6
:10084000828A83020890BB010DE58229F582E58347
:100850003AF5830209AF5007E92582F80209A3BBE4
:10086000FE07E92582F80209BBE58229F582E583C6
:100870003AF583020890BB010789828A830208C087
:100880005005E9F80209FDBBFE05E9F8020A092254
:10089000E493FC740193FD740293FE740393FF22AE
:1008A000BB010789828A830209D45005E9F802094D
:1008B000C7BBFE05E9F80209E089828A830209EDD7
:1008C000ECF0A3EDF0A3EEF0A3EFF022A882858375
:1008D000F0D083D0821208E31208E31208E3120872
:1008E000E3E473E493A3C583C5F0C583C8C582C898
:1008F000F0A3C583C5F0C583C8C582C822BB010D5E
:10090000E58229F582E5833AF5830208CC5007E9B0
:100910002582F8020A15BBFE07E92582F8020A2E95
:1009200022EC8EF0A4CCC5F0CCCDF8EFA4CEC5F06F
:100930002DFDE43CFCE8A42EC8C5F03DFDE43CFCE4
:10094000EFA4FFE5F028FEE43DFDE43CFC22BC0002
:100950000BBE0029EF8DF084FFADF022E4CCF875DA
:10096000F008EF2FFFEE33FEEC33FCEE9DEC9840E9
:1009700005FCEE9DFE0FD5F0E9E4CEFD22EDF8F585
:10098000F0EE8420D21CFEADF075F008EF2FFFEDE5
:1009900033FD4007985006D5F0F222C398FD0FD5DD
:1009A000F0EA22E6FC08E6FD08E6FE08E6FF22E0A3
:1009B000FCA3E0FDA3E0FEA3E0FF22E2FC08E2FDD1
:1009C00008E2FE08E2FF22E6FB08E6F908E6FA087C
:1009D000E6CBF822E0F8A3E0F9A3E0FAA3E0FB22DB
:1009E000E2FB08E2F908E2FA08E2CBF822E493F825
:1009F000740193F9740293FA740393FB22ECF608E2
:100A0000EDF608EEF608EFF622ECF208EDF208EE4D
:100A1000F208EFF222D083D082E493F608740193B7
:100A2000F608740293F608740393F6740473D08383
:100A3000D082E493F208740193F208740293F208EE
:100A4000740393F2740473420234000044023000D1
:100A500000000044023F0000000044023600000F86
:100A6000A0420243000041022F0145023A7FFFFFEE
:100A7000FFFE42024D000042024B000042024904C8
:100A80004C4402454003126FC10E440000000000B8
:100A900000410091004400920000000041009000DD
:100AA000C18BC10C4101A4004101A30042016900B6
:100AB000004201650000420167000042016B000036
:100AC00042015900004201BFFFFF4201DF00004226
:100AD00001C1FFFF4201C8FFFF4101C3004101CA3C
:100AE000004401C400000000530137AAAF03000511
:100AF000DC05DC05DC05DC00000000000000420134
:100B000021000042012F00004201340000C102C157
:100B100007C105C10AC100C10842014C00004101E2
:100B200031004101360041014E00420132000042D5
:100B3000014A000041011A01C10441012000C183A2
:100B4000C106C101C10942011B000041011D004154
:100B5000011E0041011F00410263004102640000C8
:100B6000787FE4F6D8FD9000007FFF7E03E4F0A3D9
:100B7000DFFCDEFA758121020BB5020E0EE493A3B1
:100B8000F8E493A34003F68001F208DFF48029E43F
:100B900093A3F85407240CC8C333C4540F4420C88B
:100BA000834004F456800146F6DFE4800B01020422
:100BB0000810204080900A47E47E019360BCA3FFA8
:100BC000543F30E509541FFEE493A360010ECF5457
:100BD000C025E060A840B8E493A3FAE493A3F8E446
:100BE00093A3C8C582C8CAC583CAF0A3C8C582C8B2
:100BF000CAC583CADFE9DEE780BEC2D5E830E70FA9
:100C0000B2D5E4C39BFBE49AFAE499F9E498F8ECD2
:100C100030E717B2D5120C30120725E4C39BFBE472
:100C20009AFAE499F9E498F8800312072530D50D73
:100C3000E4C39FFFE49EFEE49DFDE49CFC22D96A90
:100C4000CD565B1334CC789AE2014B4000004BC088
:100C5000028CFCD0213900F9DB8A96F9B60F062404
:100C60000000000000000000000000000000000084
:100C700000000000000000000012730046B4800075
:100C8000412008048120CFF7FEFFFF000F0103027F
:100C90000303030402051706270770080009000C68
:100CA000C30DC40EC50FC611201220132014201529
:100CB00020162017001C3F1D07900263E07004A35C
:100CC000E0600BD283D281E4900263F0A3F0229023
:100CD00001E9ECF0A3EDF09001CAE060729001CB65
:100CE000E0FCA3E0FD9001EDECF0A3EDF09001E15C
:100CF000E0FBA3E09001EFCBF0A3EBF0D3ED94FF8A
:100D0000EC940F400A9001ED740FF0A374FFF0D340
:100D10009001F0E094FF9001EFE0940F4007740F12
:100D2000F0A374FFF09001EDE0FCA3E0FDC374FFBD
:100D30009DF0740F9C9001EDF09001EFE0FCA3E0BA
:100D4000FDC374FF9DF0740F9C9001EFF0804890FC
:100D500001CBE0FCA3E0FD9001EDECF0A3EDF09001
:100D600001E1E0FBA3E09001EFCBF0A3EBF0D3EDCA
:100D700094FFEC940F400A9001ED740FF0A374FF00
:100D8000F0D39001F0E094FF9001EFE0940F400762
:100D9000740FF0A374FFF0D39001EEE09F9001ED8B
:100DA000E09E400E9001E9E0648094805004E4F0FD
:100DB000A3F0C39001F0E09F9001EFE09E501490EB
:100DC00001EAE094009001E9E0648094804004E44A
:100DD000F0A3F09001E9E0FEA3E0FFC3EE6480948D
:100DE00080500EC3E49FFFE49EA3F0A3EFF0023E09
:100DF000FE9001E9E0FEA3E0FFD39400EE6480944E
:100E0000804009A3EEF0A3EFF0023EA781B9E49081
:100E100001E3F0A3F012146C9001A57406F0A37422
:100E200017F09001AAE0540FFE242B9001A7F0EEDA
:100E3000243CA3F07D647FBC7E0C123BC67D647FA6
:100E40009C7E09123BC67D647FBC7E0C123BC67D36
:100E5000647F9C7E09123BC67D647F547E06123BF4
:100E6000C67D647F9C7E09123BC67D5E7F687E0BDB
:100E7000123BC6D2AF12001E900096E060FAE490DA
:100E80000096F0900004E0FEA3E0FF1226E6900139
:100E9000CDE4F0A37446F0A3E4F0A37406F0A374C9
:100EA00001F0A3742CF0900241E054F7F09002346A
:100EB0007401F0A374F4F0900234E07002A3E070C7
:100EC000F6E49001E7F0A3F0900132E0FEA3E0FF2A
:100ED000C3E49FFF74109EFE7C007DFA3121780CE4
:100EE0001207EC9001CDEEF0A3EFF012110F90027B
:100EF00042E030E209122007200A0312001E90028D
:100F000042E030E3437F0A7E00122B1C900004E095
:100F1000FFA3E09001E5CFF0A3EFF09001E5E0FE44
:100F2000A3E0FF7D011231A690024DEEF0FCA3EF8D
:100F3000F0FD9001E5E0FEA3E0FF91CF1237B11282
:100F40003D72123D98123AA1121A78E4FBFAF9F8B0
:100F5000C31207DB6002C1C19001E1740DF0A374FC
:100F600056F09001CB7402F0A374AAF0900141E016
:100F7000FEA3E02424FFEE34FAFE7C007D2C120553
:100F8000D77D281205E99001E7EEF0A3EFF090017C
:100F90003FE0FEA3E0FFE4EF24B4FBEE34FBFAE411
:100FA00034FFF9E434FFF8C3745694AAFF740D9427
:100FB00002FE3395E0FDFC12069AE47B207A03F9E9
:100FC000F8120725EF24AAFFEE3402FE9001E8E0B4
:100FD0002FFF9001E7E03E900165F0A3EFF0900154
:100FE00069E4F0A37432F0122E11C1C122900157AE
:100FF000E0FEA3E0FF2290015BE0FEA3E0FF229071
:101000000181E0FEA3E0FF2290014FE0FCA3E0FDA0
:10101000A3E0FEA3E0FF22900153E0FCA3E0FDA3C8
:10102000E0FEA3E0FF2290015DE0FCA3E0FDA3E071
:10103000FEA3E0FF22900161E0FCA3E0FDA3E0FE3F
:10104000A3E0FF22900240E004F0E075F00584E5A3
:10105000F07005A3E04420F0900240E075F01984A0
:10106000E5F07005A3E04440F0900240E0B43207A0
:10107000E4F0A3E04480F022900241E04401F090CB
:10108000023FE004F0E020E007900241E04402F07B
:1010900090023FE075F00584E5F07007900241E0B2
:1010A0004404F090023FE075F00A84E5F070079088
:1010B0000241E04408F090023FE0B4140BE4F090E9
:1010C0000241E04410F01144D3900235E0940090C6
:1010D0000234E09400400CA3E024FFF0900234E0DE
:1010E00034FFF022C0E0C0F0C083C082C0D0758A57
:1010F000CB758CFA1178900244E004F070069002EF
:1011000043E004F0D0D0D082D083D0F0D0E0329051
:101110000241E0A3F09002416002E4F022C20FE439
:101120009001E9F07F289107E49001E9F0310F90F8
:101130000242E030E20B90020CE0640160037401B3
:10114000F090020CE0602414700241061470024119
:10115000591470D97B807D807F3451B37BA0E4FD2E
:101160007F0751B3E490020CF080C27F309107906A
:10117000022EE05440FFBF0104D20F8002C20F30A4
:101180000FABE49001EAF07F32910790022DE0FE70
:101190009001EAE0C39E503F7F32910790022DE01C
:1011A000FF9001EAE0FD04F0740D2DF582E43402B5
:1011B000F583EFF090022EE0FF9001EAE0FD04F0ED
:1011C000740D2DF582E43402F583EFF09001EAE02E
:1011D000B420BD800280B97F30910790022DE020BD
:1011E000E71C90020DE0FFB40109D290E49001E900
:1011F000F0800BEFB40207D295E49001E9F0900281
:101200000C7403F0212D7B807D807F3451B3E4FB8F
:101210007D027F3251B3E4FB7D017F3251B37B20ED
:101220007D017F0751B3200F167F30910790022E6A
:10123000E05440FFBF0104D20F80EBC20F80E77F74
:1012400034910790022DE0543F7006D2909001E94E
:10125000F090020C7403F0212D7B807D807F34514F
:10126000B3E49001EAF0FB7D027F3251B3E4FB7DF1
:10127000027F3251B37B207D017F0751B3200F16CF
:101280007F30910790022EE05440FFBF0104D20F3F
:1012900080EBC20F80E77F34910790022DE0543F2E
:1012A0007006D2959001E9F090020C7403F0212DA4
:1012B000212D229001EBEFF0A905C291E4FFFE90F1
:1012C00001EBE0FD339284D294C294ED25E0F00F5F
:1012D000BF00010EEF64084E70E5E4FEFFE93392B3
:1012E00084D294C294E925E0F90FBF00010EEF64A7
:1012F000084E70E9E4FEFFEB339284D294C294EB83
:1013000025E0FB0FBF00010EEF64084E70E9D2919B
:10131000227BEF7D6FE4FF51B37B817D567F0151CE
:10132000B37B177D667F0251B37BC97D9C7F0451DF
:10133000B37B377D667F0551B3E4FBFD7F0751B377
:101340007B907D6C7F0851B3E4FB7D487F0951B3EE
:101350007BFD7D7F7F0A51B37B08E4FD7F0B51B39A
:10136000E4FBFD7F0C51B37BBD7D487F0D51B37B0A
:10137000FFE4FD7F1651B37B057D807F1751B37B62
:1013800067E4FD7F1851B37B597D167F1951B37BFC
:10139000E07D197F1A51B3E4FB7D137F1B51B3E449
:1013A000FB7D187F1C51B3E4FB7D587F2051B37B3C
:1013B000C77D3F7F2151B3E4FB7D207F2251B3E401
:1013C000FB7D0A7F2351B37B807D037F2451B37B58
:1013D000807D037F2551B37B5A7D5A7F2651B37B95
:1013E000807D037F2751B37B027D447F2851B3E486
:1013F000FB7DB87F2951B37BB07DFD7F2A51B37B44
:101400000FE4FD7F2B41B3C29174802FFFE4FBFA00
:10141000EF339284D294C294EF25E0FF0BBB00011E
:101420000AEB64084A70E9E4FAFBD294C294900291
:101430002DE0FF25E0FFF0A287E4334FF00BBB0067
:10144000010AEB64084A70E2E4FAFBD294C2949079
:10145000022EE0FF25E0FFF0A287E4334FF00BBB44
:1014600000010AEB64084A70E2D29122121A5AF182
:10147000E5F1FB311DF1D17B017A0079087D06127F
:101480001B76F1C8122F981235DF7F007EC27D01D6
:101490007C0012407D12234612368ED297C285C23E
:1014A000957F647E00F180E4FFF14C7F1DD1AC900C
:1014B00001E9EFF07414F09001E9E0FFC364809457
:1014C000804032EF3395E0FEEF25E0FDEE33FC7413
:1014D0008B2DF582740C3CF583E4934420FF748CCF
:1014E0002DF582740C3CF583E493FDD1F89001E96D
:1014F000E014F080C27F1DD1AC9001E9EFF07BFFDA
:101500007A0C793E9001F37405F07F2AD1BC7B01FF
:101510007A0179AA9001F37405F07F2BD1BC7BFF8F
:101520007A0C793E9001F37405F07F30D1BC7F1DB9
:10153000D1AC9001E9EFF070067D737F50D1F89047
:1015400001E97416F09001E9E0FFC36480949540CE
:1015500032EF3395E0FEEF25E0FDEE33FC748B2D8A
:10156000F582740C3CF583E4934420FF748C2DF5D4
:1015700082740C3CF583E493FDD1F89001E9E0140A
:10158000F080C27F01F14C9001E97404F0E4900115
:10159000EAF09001EAE0FBC3648094845045900136
:1015A000E9E0FF3395E0FEEF7802C333CE33CED8C7
:1015B000F92448F582740C3EF583120890EB75F01F
:1015C00008A4F9F81207ECEFE4EBFD3395E0FC74A6
:1015D000EB2DF58274013CF583EFF09001EAE00415
:1015E000F080AF9001E9E04420FF7B017A0179EBC4
:1015F0009001F37404F0D1BC9001E9E004F0E0C381
:101600006480948640879001E9740CF0E49001EACC
:10161000F09001E9E0FF3395E0FEEF7802C333CEAE
:1016200033CED8F92448F582740C3EF58312089025
:101630009001EAE0FBC374039B75F008A4F9F8126B
:1016400007ECEFE4EBFD3395E0FC74EB2DF58274D1
:10165000013CF583EFF09001EAE004F0E0B404B15E
:101660009001E9E04420FF7B017A0179EB9001F3DE
:101670007404F0D1BC9001E9E004F0E0D3648094FC
:101680008D40897BFF7A0C79809001F3740BF07F99
:101690002ED1BC7F0A7E00F180E4FFF14CF12AE4F8
:1016A000FFD1AC9001E9EFF0E004F022C297F1081D
:1016B0009001AFEFF0E4FFF108D297229001F0EB38
:1016C000F0A3EAF0A3E9F0C297F1089001AFEFF0C0
:1016D000E4FD9001F3E0FFEDC39F50199001F0E0AD
:1016E000FBA3E475F00112061FA9F0FA12053BFFF7
:1016F000F1080D80DDD29722C297F1089001AFEF7B
:10170000F0AF05F108D29722C285E4FEEF30E7047E
:10171000D2848002C284EF25E0FFD2853087034463
:1017200001FFC2850EEEB408E322E4FD7FE2D1F8AA
:101730007F07D1ACAD077F27D1F8C295E4FFD1ACCC
:10174000EF4401FFFD7F20D1F8D29522AD077F073E
:10175000D1ACEF5480FF6003ED6006EF7009ED60DF
:10176000067D537F50D1F822E4FD7FE1D1F8C29588
:10177000E4FFD1ACEF54FEFFFD7F20D1F8D29522DB
:10178000D3EF9400EE9400400F7D127CEBDCFEDD85
:10179000FCEF1F70011E80E8229001A3E004F0E03E
:1017A000D394034002E4F0900C95E4934420FF901E
:1017B00001A3E024A5F582E43401F583E0FDD1F82E
:1017C000E12AAD077F25C1F874FF9001BFF0A3F0B7
:1017D00022E4900096F0900004F0A3F043E101753C
:1017E000F68AD2AE225389F0438901538EF7758A67
:1017F000CB758CFAD28CD2A9D2AF2253890F4389F0
:1018000010538EF7E47F357E05FDFC900236E0F83C
:10181000A3E0F9A3E0FAA3E0FB12069AE47BE87ADE
:1018200003F9F8120725EFF404F58BE47F357E0504
:10183000FDFC900236E0F8A3E0F9A3E0FAA3E0FB98
:1018400012069AE47BE87A03F9F8120725C3E49FAD
:10185000FFE49EFE74019DFDE49CFC78081207ECF9
:101860008F8DD28ED2ABD2AF22C0E0C0F0C083C089
:1018700082C0D075D000C000C001C002C003C00447
:10188000C005C006C007E4FDFC90022FE024FE70F6
:10189000022149046002413A900263E0FF6039E4AA
:1018A000FCFDFE900236E0F8A3E0F9A3E0FAA3E025
:1018B000FB12069A78081207ECE47B357A05F9F8F2
:1018C00012069AE47BE87A03F9F8120725C3E49F2D
:1018D000FDE49EFCC2838069900264E0FF6039E40D
:1018E000FCFDFE900236E0F8A3E0F9A3E0FAA3E0E5
:1018F000FB12069A78081207ECE47B357A05F9F8B2
:1019000012069AE47BE87A03F9F8120725C3E49FEC
:10191000FDE49EFCC2818029E47F357E05FDFC90BC
:101920000236E0F8A3E0F9A3E0FAA3E0FB12069A7E
:10193000E47BE87A03F9F8120725C3E49FFDE49EEF
:10194000FC90022FE004F0413A900263E0FF605AFD
:10195000E4FCFDFE900236E0F8A3E0F9A3E0FAA370
:10196000E0FB12069A78081207ECA804A905AA065B
:10197000AB07900236E0FCA3E0FDA3E0FEA3E0C3CA
:101980009BFFEE9AFEED99FDEC98FCE47B357A0521
:10199000F9F812069AE47BE87A03F9F8120725C3EE
:1019A000E49FFDE49EFCD2834134900264E0FF603A
:1019B0005AE4FCFDFE900236E0F8A3E0F9A3E0FA59
:1019C000A3E0FB12069A78081207ECA804A905AA5E
:1019D00006AB07900236E0FCA3E0FDA3E0FEA3E027
:1019E000C39BFFEE9AFEED99FDEC98FCE47B357A03
:1019F00005F9F812069AE47BE87A03F9F81207254C
:101A0000C3E49FFDE49EFCD2818029E47F357E05FE
:101A1000FDFC900236E0F8A3E0F9A3E0FAA3E0FBB6
:101A200012069AE47BE87A03F9F8120725C3E49FCB
:101A3000FDE49EFC90022F7401F08D8BECF58DD0AF
:101A400007D006D005D004D003D002D001D000D0FA
:101A5000D0D082D083D0F0D0E03275B14075B23FA3
:101A60007580FEE4F5B375B4FF7590E875A09D75BB
:101A7000AC01F5AD75B0FE22900097E0F8A3E0F957
:101A8000A3E0FAA3E0FB900116E0FCA3E0FDA3E0D5
:101A9000FEA3E0C39BFFEE9AFEED99FDEC98FC22BD
:101AA000900157E0FEA3E0FF2290015BE0FEA3E07F
:101AB000FF22900181E0FEA3E0FF2290014FE0FCB5
:101AC000A3E0FDA3E0FEA3E0FF22900153E0FCA30E
:101AD000E0FDA3E0FEA3E0FF2290015DE0FCA3E0B7
:101AE000FDA3E0FEA3E0FF22900161E0FCA3E0FD86
:101AF000A3E0FEA3E0FF22900097E0F8A3E0F9A3A3
:101B0000E0FAA3E0FB900116E0FCA3E0FDA3E0FEF9
:101B1000A3E0C39BFFEE9AFEED99FDEC98FC2290AA
:101B20000157E0FEA3E0FF2290015BE0FEA3E0FF8F
:101B300022900181E0FEA3E0FF2290014FE0FCA390
:101B4000E0FDA3E0FEA3E0FF22900153E0FCA3E050
:101B5000FDA3E0FEA3E0FF2290015DE0FCA3E0FD19
:101B6000A3E0FEA3E0FF22900161E0FCA3E0FDA35F
:101B7000E0FEA3E0FF229001E9EBF0A3EAF0A3E985
:101B8000F0E4FF1205A39001E9E0FBA3E0FAA3E073
:101B9000F9900001ED1205B5E4EFC39D50239001CB
:101BA000E9E0FBA3E0FAA3E02406F9E43AFA75F0D1
:101BB00002EFA4F58285F083E4F5F012066D0F8044
:101BC000D89001E9E0FBA3E0FAA3E0F9900002124B
:101BD00008FD0000000022900205EBF0A3EAF0A34C
:101BE000E9F0A3ECF0A3EDF0E4A3F0A3F09002057C
:101BF000E0FBA3E0FAA3E02402F9E43AFAC003C050
:101C000002C001120826C006C007900205E0A3E04A
:101C1000FAA3E02406F9E43AFAC002C001900205F2
:101C2000E0A3E0FAA3E0F912053B75F002A4F58207
:101C300085F083D001D002120635FFAEF0FBAA0674
:101C4000E4D007D006C3EF9BFFEE9AFEED9400FDB3
:101C5000EC9400FCD001D002D00312087690020868
:101C6000E0FEA3E0FF900205E0FBA3E0FAA3E0247E
:101C700006F9E43AFAC002C001900205E0A3E0FAD6
:101C8000A3E0F912053B75F002A4F58285F083D03C
:101C900001D002EE8FF012066D900205E0FBA3E08A
:101CA000FAA3E02402F9E43AFAC003C002C0011228
:101CB00008A0900208E0FEA3E0FFE4FCFDEB2FFF8C
:101CC000EA3EFEED39FDEC38FCD001D002D0031223
:101CD0000876900205E0FBA3E0FAA3E0F974011294
:101CE0000581900205E0A3E0A3E0900001120554F5
:101CF000FF12053BB5070E900205E0A3E0A3E0E468
:101D00001205A3D20E300E41900205E0FBA3E0FACB
:101D1000A3E0F9900001120554FFE4FCFDFEC004AD
:101D2000C005C006C007900205E0A3E0A3E0900054
:101D300002120846D003D002D001D000120725902D
:101D4000020AEEF0A3EFF0800D900208E0FFA3E09E
:101D5000A3CFF0A3EFF090020AE0FEA3E0FF22C0C1
:101D6000E0C0F0C083C082C0D075D000C000C00108
:101D7000C002C003C004C005C006C007AFC3EF75F2
:101D8000F010A4FFE5C2540F7C002FFEEC35F0905C
:101D90000203F0A3CEF0B282B282C2EFE5E8540FA4
:101DA00014602E24FA7002C14924046002C1B07B81
:101DB000017A007908900203E0FCA3E0FD71D7905E
:101DC0000004EEF0A3EFF09000967401F0F5E8C186
:101DD000B0900091E004F0900000E0F8A3E0F9A3D7
:101DE000E0FAA3E0FB900203E0FEA3E0FFE4FCFDC9
:101DF000EB2FFFEA3EFEED39FDEC38FC90000012BF
:101E000008C0900091E0B4802A900000E0FCA3E0BC
:101E1000FDA3E0FEA3E0FF78071207EC90014AEE75
:101E2000F0A3EFF09000001208CC0000000090003A
:101E300091E4F0900203E0FFA3E090014ACFF0A309
:101E4000EFF075E807D2EE8067900090E004F09024
:101E50000092E0F8A3E0F9A3E0FAA3E0FB9002030C
:101E6000E0FEA3E0FFE4FCFDEB2FFFEA3EFEED39D0
:101E7000FDEC38FC9000921208C0900090E0B41085
:101E80002A900092E0FCA3E0FDA3E0FEA3E0FF782F
:101E9000041207EC900132EEF0A3EFF090009212E2
:101EA00008CC00000000900090E4F075E803D2EE4A
:101EB000D007D006D005D004D003D002D001D00086
:101EC000D0D0D082D083D0F0D0E032900097E0F82C
:101ED000A3E0F9A3E0FAA3E0FB900116E0FCA3E085
:101EE000FDA3E0FEA3E0C39BFFEE9AFEED99FDEC9F
:101EF00098FC22900157E0FEA3E0FF2290015BE0F6
:101F0000FEA3E0FF22900181E0FEA3E0FF2290010A
:101F10004FE0FCA3E0FDA3E0FEA3E0FF229001530D
:101F2000E0FCA3E0FDA3E0FEA3E0FF2290015DE062
:101F3000FCA3E0FDA3E0FEA3E0FF22900161E0FC32
:101F4000A3E0FDA3E0FEA3E0FF229001ECEBF0A3F1
:101F5000EAF0A3E9F0C2971217089001F0EFF0E45D
:101F6000FD9001EFE0FFEDC39F501CE4FF12170846
:101F70009001ECE0FBA3E0FAA3E0F98D8275830009
:101F8000EF1205B50D80DAD297229001EBEBF0A3AA
:101F9000EAF0A3E9F0E4A3F0FCFEED14FFEEC39F2A
:101FA00050189001EBE0FBA3E0FAA3E0F98E8275F4
:101FB00083001205542CFC0E80E0ED24FFFFE43476
:101FC000FFFE9001EBE0FBA3E0FAA3E0F98F828E25
:101FD00083120554B50424E49001EEF0AF05FE78B9
:101FE000377C017D019001EBE0A3E0A3E012051531
:101FF000C20BE49001A4F0C20C80069001EE7401C3
:10200000F09001EEE0FF229001A4E004F0E075F012
:102010000584AFF0BF0406200B031217999001A4AA
:10202000E0D394C8401690013B7405F0A374DCF033
:1020300090013F7405F0A374DCF0D20C7F071216F8
:10204000ACEF547070022135EFC3135407147002C3
:1020500001F50460022127E49001EAF07F60121686
:10206000AC9001E9EFF07B017A0179839001EFF008
:102070007F61121F4A900183E064AB60022127A3B5
:10208000E064BA60022127200B0221277B017A013C
:1020900079859001F37405F07F2B1216BC7B017AD1
:1020A0000179859001F37405F07F301216BC7B0135
:1020B0007A0179859001F37405F07F301216BC78AF
:1020C000AA7C017D017B017A0179857E007F051262
:1020D00005159001A57406F0A37417F09001AAE00D
:1020E000540FFE242B9001A7F0EE243CA3F03136D0
:1020F00012172A80329001EA7401F0E49001A4F0F2
:102100007F601216AC9001E9EFF07B017A017983D0
:102110009001EFF07F61121F4A7B017A0179839071
:1021200001E9E0FD121F8A7D707F271216F8E4FD99
:102130007FE21216F822900123E4F0A3740FF090CE
:1021400001AAE0FF900125E4F0A3EFF09001ABE0DD
:10215000FF900127E4F0A3EFF09001ACE0FF9001C5
:1021600029E4F0A3EFF09001ADE0FF90012BE4F043
:10217000A3EFF09001AEE0FF90012DE4F0A3EFF0AB
:102180007B017A0179237D069001EBEBF0A3EAF065
:10219000A3E9F0A3EDF07F007E4031E1E4A3F090ED
:1021A00001EEE0FFA3E0FEC39F5035EE75F002A400
:1021B0002400FFE5F03440FE9001EBE0FBA3E0FAE1
:1021C000A3E0F99001EFE075F002A4F58285F083B9
:1021D000120635FDACF051BD9001EFE004F080BF78
:1021E00022AD07AC0651E775AF22ECF5A7AF058F1E
:1021F000A675AEFF75C7AA75C75543A40175C7AAD2
:1022000075C75553A5FE75C7AA75C755539FFE22BE
:102210009001AA74F1F0A304F0A304F0A304F0A3C6
:1022200004F031367B017A0179237D069001E9EBD8
:10223000F0A3EAF0A3E9F0A3EDF0E4A3F0A3F0909B
:1022400001EDF0A3F09001ECE0FFA3E0FCA3E0FDC2
:10225000C39FEC94005046ED25E0FFEC33FEE42FE5
:10226000FFEE3440FE51FAAC06AD079001EEE025DA
:10227000E0FF9001EDE033FE9001E9E0FBA3E0FA1E
:10228000A3E0F98F828E83EC8DF012066D9001EE43
:10229000E004F070069001EDE004F080A822AB07A6
:1022A000AA0651E775AF21EAF5A7AF038FA6AF05E0
:1022B0008FAE75C7AA75C75543A40121FD9001F0E3
:1022C000EEF0A3EFF0A3ECF0A3EDF0C2AF519E90BF
:1022D00001F1E02401FF9001F0E03400FE9001F2F2
:1022E000E0FD519ED2AF2275C7AA75C755439F0125
:1022F00075C7AA75C75543A50122AD07AC06C2AF85
:10230000711CAB07ED2401FFE43EFE711C7E00EF63
:10231000FE7C00E42BFFEC3EFED2AF228F828E8348
:10232000E493FF227F007E40711C90026BEFF07FF0
:1023300002711C90026CEFF090026BE0640260038B
:102340007F00227F01227B017A0179237D06512CB7
:10235000900123E07004A3E0640F6011511090011C
:1023600023E07004A3E0640F60037F012290012545
:10237000E0A3E09001AAF0900127E0A3E09001AB78
:10238000F0900129E0A3E09001ACF090012BE0A3D4
:10239000E09001ADF090012DE0A3E09001AEF07F60
:1023A00000227F007E4031E17F012290026D7402A5
:1023B000F07F007E4031E17B017A02796D90025B13
:1023C0007402F0E4FDFC71CB7F0122900256EBF029
:1023D000A3EAF0A3E9F0A3ECF0A3EDF0E490025C33
:1023E000F0F090025BE0FFA3E0FEC39F5038900244
:1023F0005AE02400FD900259E03440FCEE7E002DAE
:10240000FFEE3CFE900256E0FBA3E0FAA3E0F99059
:10241000025CE0F582758300120554FD519E900226
:102420005CE004F080BC2290024FEBF0A3EAF0A342
:10243000E9F0A3ECF0A3EDF0E4900255F0F0900287
:1024400054E0FFA3E0FEC39F5038900253E0240005
:10245000FD900252E03440FCEE7E002DFFEE3CFE8B
:10246000711C90024FE0FBA3E0FAA3E0F990025543
:10247000E0F582758300EF1205B5900255E004F097
:1024800080BC22900097E0F8A3E0F9A3E0FAA3E073
:10249000FB900116E0FCA3E0FDA3E0FEA3E0C39BDC
:1024A000FFEE9AFEED99FDEC98FC22900157E0FEBC
:1024B000A3E0FF2290015BE0FEA3E0FF22900181F8
:1024C000E0FEA3E0FF2290014FE0FCA3E0FDA3E0CB
:1024D000FEA3E0FF22900153E0FCA3E0FDA3E0FE99
:1024E000A3E0FF2290015DE0FCA3E0FDA3E0FEA3DA
:1024F000E0FF22900161E0FCA3E0FDA3E0FEA3E089
:10250000FF22900157EEF0A3EFF090015BECF0A3F7
:10251000EDF0C39FFFEC9EFE900181F0A3EFF0FD74
:10252000AC06E412038B90017D1208C09001FBE021
:10253000FCA3E0FDA3E0FEA3E0FF90017DE0F8A393
:10254000E0F9A3E0FAA3E0FB1201569001FB1208A8
:10255000C09001FFE0FCA3E0FDA3E0FEA3E0FF903C
:10256000017DE0F8A3E0F9A3E0FAA3E0FB12015635
:102570009001FF1208C09001F3E0FCA3E0FDA3E08E
:10258000FEA3E0FF90014F1208C09001F7E0FCA30A
:10259000E0FDA3E0FEA3E0FF9001531208C090010C
:1025A000FBE0FCA3E0FDA3E0FEA3E0FF90015D12D1
:1025B00008C09001FFE0FCA3E0FDA3E0FEA3E0FF64
:1025C0009001611208C0E4FFFEFD7C409001F7E03D
:1025D000F8A3E0F9A3E0FAA3E0FB120156C004C09F
:1025E00005C006C007E4FFFEFD7C409001F3E0F863
:1025F000A3E0F9A3E0FAA3E0FB120156D003D00256
:10260000D001D0001200619001FBE0F8A3E0F9A333
:10261000E0FAA3E0FB1200659001FFE0F8A3E0F907
:10262000A3E0FAA3E0FB12006590016D1208C0E47C
:10263000FFFE7D407C409001F3E0F8A3E0F9A3E0C9
:10264000FAA3E0FB120156120375C004C005C006D0
:10265000C007E4FFFE7D407C409001F7E0F8A3E076
:10266000F9A3E0FAA3E0FB120156D003D002D00197
:10267000D000120065C004C005C006C007E4FFFE1C
:10268000FD7C409001FBE0F8A3E0F9A3E0FAA3E0B1
:10269000FB120156A804A905AA06AB07D007D0066D
:1026A000D005D0041200619001FFE0F8A3E0F9A387
:1026B000E0FAA3E0FB1200619001711208C09001E2
:1026C000FBE0FCA3E0FDA3E0FEA3E0FF9001751298
:1026D00008C09001F3E0FCA3E0FDA3E0FEA3E0FF4F
:1026E0009001790208C0AB07AA069000971208CCA7
:1026F000000000009001161208CC00000000E490D9
:10270000009BF0A3F0A3F0A3F0AE02AF03F18C9016
:10271000009F1208C09000A31208CC000000009097
:1027200000A71208CC0000000090009FE0FCA3E08E
:10273000FDA3E0FEA3E0FF9001F31208C090009F0C
:10274000E0FCA3E0FDA3E0FEA3E0FF9001F7120888
:10275000C09001FB1208CC000000009001FF12089D
:10276000CC00000000E4FDFCFFFEB102E490016536
:10277000F0A3F0900167F0A3F090016BF0A3F0904C
:102780000169F0A3F0900159F0A3F022AD07AC0667
:10279000EC02038B9001EFEBF0A3EAF0A3E9F090D9
:1027A00001EDEEF0A3EFF0C3900158E09F900157C8
:1027B000E09E405490014FE0FCA3E0FDA3E0FEA3A7
:1027C000E0FF9001EFE0FBA3E0FAA3E0F912087646
:1027D000900157E0FEA3E0FFC39001EEE09F90015F
:1027E000EDE09E5007E4FFFEFDFC800E90015DE0F1
:1027F000FCA3E0FDA3E0FEA3E0FF9001F2E0FBA359
:10280000E0FAA3E0F902087690015BE0FEA3E0FFA6
:10281000C39001EEE09F9001EDE09E405490015383
:10282000E0FCA3E0FDA3E0FEA3E0FF9001EFE0FBEE
:10283000A3E0FAA3E0F912087690015BE0FEA3E0C2
:10284000FFD39001EEE09F9001EDE09E4007E4FF92
:10285000FEFDFC800E900161E0FCA3E0FDA3E0FE24
:10286000A3E0FF9001F2E0FBA3E0FAA3E0F9020885
:1028700076900157E0FEA3E0FFC39001EEE09FFDDC
:102880009001EDE09EFCE412038B90017DE0F8A343
:10289000E0F9A3E0FAA3E0FB12025F9001F5120851
:1028A000C09001F5E0FCA3E0FDA3E0FEA3E0FFA8DB
:1028B00004A905AA06FB1201569001F91208C0905E
:1028C00001F5E0FCA3E0FDA3E0FEA3E0FFA3E0F838
:1028D000A3E0F9A3E0FAA3E0FB1201569001FD1278
:1028E00008C09001F9E0FCA3E0FDA3E0FEA3E0FF37
:1028F000900171E0F8A3E0F9A3E0FAA3E0FB120174
:1029000056C004C005C006C0079001FDE0FCA3E06E
:10291000FDA3E0FEA3E0FF90016DE0F8A3E0F9A3C2
:10292000E0FAA3E0FB120156D003D002D001D000A0
:10293000120065C004C005C006C0079001F5E0FCA8
:10294000A3E0FDA3E0FEA3E0FF900175E0F8A3E0A3
:10295000F9A3E0FAA3E0FB120156D003D002D001A4
:10296000D000120065900179E0F8A3E0F9A3E0FA45
:10297000A3E0FB1200659001EFE0FBA3E0FAA3E007
:10298000F9120876E4FFFEFD7C40900171E0F8A3A7
:10299000E0F9A3E0FAA3E0FB1201569001F5E0F89C
:1029A000A3E0F9A3E0FAA3E0FB120156C004C005BE
:1029B000C006C007E4FFFE7D407C4090016DE0F85A
:1029C000A3E0F9A3E0FAA3E0FB1201569001F9E0BD
:1029D000F8A3E0F9A3E0FAA3E0FB120156D003D07C
:1029E00002D001D000120065900175E0F8A3E0F973
:1029F000A3E0FAA3E0FB1200659001F2E0FBA3E084
:102A0000FAA3E0F91208769001F2E0FBA3E0FAA342
:102A1000E0F9C003C002C00112082690017DE0F871
:102A2000A3E0F9A3E0FAA3E0FB12025FD001D00219
:102A3000D003020876900097E0F8A3E0F9A3E0FA4B
:102A4000A3E0FB900116E0FCA3E0FDA3E0FEA3E001
:102A5000C39BFFEE9AFEED99FDEC98FC2290015786
:102A6000E0FEA3E0FF2290015BE0FEA3E0FF2290E6
:102A70000181E0FEA3E0FF2290014FE0FCA3E0FD16
:102A8000A3E0FEA3E0FF22900153E0FCA3E0FDA33E
:102A9000E0FEA3E0FF2290015DE0FCA3E0FDA3E0E7
:102AA000FEA3E0FF22900161E0FCA3E0FDA3E0FEB5
:102AB000A3E0FF22ED4C601812053BFF900262E09C
:102AC0002FF0740129F9E43AFAED1D70011C80E43D
:102AD000900262E0FF22900097E0F8A3E0F9A3E003
:102AE000FAA3E0FB900116E0FCA3E0FDA3E0FEA347
:102AF000E0C39BFFEE9AFEED99FDEC98FC22020CE0
:102B0000B9900157E0FEA3E0FF2290015BE0FEA335
:102B1000E0FF22900181E0FEA3E0FF229001E9EEB8
:102B2000F0A3EFF090009BE0FFA3E0B50716900044
:102B3000971208CC000000009001161208CC00008B
:102B40000000A132900097E0F8A3E0F9A3E0FAA317
:102B5000E0FB9001E9E0FEA3E0FFE4FCFDEB2FFFCA
:102B6000EA3EFEED39FDEC38FC9000971208C0718A
:102B700013E4FCFD900097E0F8A3E0F9A3E0FAA3CA
:102B8000E0FBD31207DB5002A132900097E0FCA3D8
:102B9000E0FDA3E0FEA3E0FFC004C005C006C0073F
:102BA0007113AB07AA06E4D007D006D005D004EF16
:102BB0009BFFEE9AFEED9400FDEC9400FC900097D4
:102BC0001208C0900116E0FCA3E0FDA3E0FEA3E024
:102BD000FFC004C005C006C0077113AB07AA06E416
:102BE000D007D006D005D004C3EF9BFFEE9AFEEDD0
:102BF0009400FDEC9400FC9001161208C090009C1B
:102C0000E0045407FFF090009BE0FB6F7070EB75E1
:102C1000F00EA4249FF582E43400F583E0FCA3E0E9
:102C2000FDA3E0FEA3E0FF9001F31208C0EB75F0F6
:102C30000EA4249FF582E43400F583E0FCA3E0FDBC
:102C4000A3E0FEA3E0FF9001F71208C09001FB1281
:102C500008CC000000009001FF1208CC000000002A
:102C6000E4FDFCFFFE1225029000971208CC000044
:102C700000009001161208CC00000000616F900067
:102C80009CE0FF9001EBF0045407FEA3F0FB75F00D
:102C90000EA4249DF582E43400F583E0FCA3E0FD5E
:102CA000C004C005EF75F00EA4249FF582E4340043
:102CB000F583E0FCA3E0FDA3E0FEA3E0FF9001F3B9
:102CC0001208C0EB75F00EA4249FF582E43400F5E1
:102CD00083E0FCA3E0FDA3E0FEA3E0FF9001F71278
:102CE00008C09001EBE075F00EA424A7F582E4344F
:102CF00000F583E0FCA3E0FDA3E0FEA3E0FF90016C
:102D0000FB1208C09001ECE075F00EA424A3F5823C
:102D1000E43400F583E0FCA3E0FDA3E0FEA3E0FFC4
:102D20009001FF1208C0D005D004E4FFFE12250276
:102D3000616F900097E0A3E0A3E0FEA3E0FF9001A5
:102D4000F27401F0A37401F0A3740EF07B017A0118
:102D5000791212279490010EE0FCA3E0FDA3E0FE9F
:102D6000A3E0FFE4FBFA7920784112015690010EAE
:102D70001208C0E4FFFEFDFC90010EE0F8A3E0F9AC
:102D8000A3E0FAA3E0FB1202FC501790010EE0FC56
:102D9000A3E0FDA3E0FEA3E0FF12037590010E1275
:102DA00008C0900112E0FCA3E0FDA3E0FEA3E0FF59
:102DB000B1D39001BDEEF0A3EFF090010EE0FCA3C3
:102DC000E0FDA3E0FEA3E0FFB1D39001BBEEF0A3D2
:102DD000EFF0229001ED1208C0E4FFFEFD7C3F9071
:102DE00001EDE0F8A3E0F9A3E0FAA3E0FB1200652F
:102DF0000203C490014FE0FCA3E0FDA3E0FEA3E0CA
:102E0000FF22900153E0FCA3E0FDA3E0FEA3E0FF5E
:102E10002290009BE0045407FF90010DF090009C6D
:102E2000E0B507037F0022900165E0FEA3E0FF907C
:102E30000167E0FDA3E09001E9CDF0A3EDF0900182
:102E40006BE0FDA3E09001EBCDF0A3EDF090016904
:102E5000E0FCA3E0FD9001EDECF0A3EDF0C39401E4
:102E6000EC940050037F00229001EDE0FCA3E0FD14
:102E700090010DE075F00EA4249DF582E43400F578
:102E800083ECF0A3EDF012278C90010DE075F00EAD
:102E9000A4249FF582E43400F5831208C09001E970
:102EA000E0FEA3E0FFF16890010DE075F00EA424B0
:102EB000A3F582E43400F5831208C09001EBE0FE34
:102EC000A3E0FFF16890010DE075F00EA424A7F5D2
:102ED00082E43400F5831208C090009BE0FFA3E079
:102EE000B5074CD1029001F31208C090010DE075B6
:102EF000F00EA4249FF582E43400F583E0FCA3E007
:102F0000FDA3E0FEA3E0FF9001F71208C09001FBD3
:102F10001208CC000000009001FF1208CC00000055
:102F2000009001EDE0FCA3E0FDE4FFFE122502901D
:102F30000116E0F8A3E0F9A3E0FAA3E0FB9001EDAD
:102F4000E0FEA3E0FFE4FCFDEB2FFFEA3EFEED39DF
:102F5000FDEC38FC9001161208C090010DE09000C5
:102F60009BF012276C7F0122AD07AC06EC12038B9D
:102F7000E4FBFA7980784402025F90015DE0FCA3F3
:102F8000E0FDA3E0FEA3E0FF22900161E0FCA3E0EE
:102F9000FDA3E0FEA3E0FF229000971208CC000002
:102FA00000009001161208CC00000000E490009B85
:102FB000F0A3F0A3F0A3F0A31208CC44000000900B
:102FC00000A31208CC000000009000A71208CC005B
:102FD000000000E49000ABF0A3F0A31208CC440082
:102FE00000009000B11208CC000000009000B51263
:102FF00008CC00000000E49000B9F0A3F0A3120890
:10300000CC440000009000BF1208CC0000000090EB
:1030100000C31208CC00000000E49000C7F0A3F049
:10302000A31208CC440000009000CD1208CC000090
:1030300000009000D11208CC00000000E49000D500
:10304000F0A3F0A31208CC440000009000DB1208AB
:10305000CC000000009000DF1208CC00000000E46B
:103060009000E3F0A3F0A31208CC4400000090000D
:10307000E91208CC000000009000ED1208CC00001E
:103080000000E49000F1F0A3F0A31208CC4400008B
:10309000009000F71208CC000000009000FB12081E
:1030A000CC00000000E49000FFF0A3F0A31208CCD5
:1030B000440000009001051208CC000000009001BF
:1030C000091208CC000000009001F31208CC440063
:1030D00000009001F71208CC440000009001FB12A0
:1030E00008CC000000009001FF1208CC0000000096
:1030F000E4FDFCFFFE12250202276C90009CE0FE1E
:1031000090009BE0FDC39E500BC3ED9EFEC374FF79
:103110009EFF800E90009CE0FFC3ED9FFFC37407ED
:103120009FFF22900097E0F8A3E0F9A3E0FAA3E064
:10313000FB900116E0FCA3E0FDA3E0FEA3E0C39B2F
:10314000FFEE9AFEED99FDEC98FC22020CB990017D
:1031500057E0FEA3E0FF2290015BE0FEA3E0FF2228
:10316000900181E0FEA3E0FF2290014FE0FCA3E08C
:10317000FDA3E0FEA3E0FF22900153E0FCA3E0FDED
:10318000A3E0FEA3E0FF2290015DE0FCA3E0FDA32D
:10319000E0FEA3E0FF22900161E0FCA3E0FDA3E0DC
:1031A000FEA3E0FF2222AB07AA06A90531A59001E4
:1031B000B8EEF0A3EFF09001DFE0FCA3E0FDC3EF79
:1031C0009DFFEE9C9001B6F0A3EFF09001CAE06085
:1031D000399001BDE0FEA3E0FFC3E49FF074109EB0
:1031E0009001BDF09001CBE0FEA3E0FFC3E49FF0AF
:1031F00074109E9001CBF09001E1E0FEA3E0FFC3CC
:10320000E49FF074109E9001E1F09001CBE0FEA3EA
:10321000E0FFC39001BEE09FEE6480F89001BDE046
:10322000648098500E9001CBE0A3E09001BDEEF0D9
:10323000A3EFF09001E1E0FEA3E0FFD39001BEE038
:103240009FEE6480F89001BDE0648098400E90018C
:10325000E1E0A3E09001BDEEF0A3EFF0C39001BD6B
:10326000E0648094805004E4F0A3F0D39001BEE0C9
:1032700094009001BDE06480949040067410F0A327
:10328000E4F09001BDE0FEA3E0FFA3E0FCA3E0FDBD
:103290006F7002EC6E6041BCFF1ABDFF179001DF3A
:1032A000EAF0A3EBF0E49001D7F0A3F09001C1EABB
:1032B000F0A3EBF09001BDE0FEA3E0FFA3EEF0A3CE
:1032C000EFF0A3EEF0A3EFF09001C8EAF0A3EBF06B
:1032D0009001BAE09001C3F0E9700261AE9001BDC7
:1032E000E0FEA3E0FF9001C1E06E7003A3E06F7009
:1032F0000261AED39001BCE094009001BBE0648019
:103300009480500261AE9001BDE0FEA3E0FF900109
:10331000C9E09FEE6480F89001C8E0648098503F57
:103320009001BBE0FEA3E0FF9001C2E02FF090010E
:10333000C1E03EF09001BDE0FEA3E0FFC39001C2FA
:10334000E09FEE6480F89001C1E0648098405F9057
:1033500001BDE0A3E09001C1EEF0A3EFF0804F903B
:1033600001BDE0FEA3E0FFD39001C9E09FEE6480C1
:10337000F89001C8E064809840349001BBE0FEA35F
:10338000E0FF9001C2E09FFF9001C1E09EFEF0A32C
:10339000EFF09001BDE0FCA3E0FDC39FEE6480F878
:1033A000EC64809840089001C1ECF0A3EDF090012E
:1033B000BDE0FEA3E0FF9001C1E0FCA3E0FDB50786
:1033C0000CECB506089001B8E0FAA3E0FBC3ED9B56
:1033D000FEEC9A9001D5F0A3CEF0E960449001D5BF
:1033E000E0FEA3E0FF9001D8E02FF09001D7E03E8F
:1033F000F0E0FEA3E0FFC394D4EE6480947E500C12
:103400009001D774FEF0A374D4F08015D3EF942C00
:10341000EE64809481400A9001D77401F0A3742C6B
:10342000F0C39001E0E09BFE9001DFE09A9001D9AB
:10343000F0A3CEF0AF039001DFEAF0A3EFF090012C
:10344000DB1208CC000000009001D3E0FEA3E0FFF7
:10345000A3E0FCA3E0FDD39FEE6480F8EC648098C9
:103460005016C3E49FFFE49EFEC3ED9FEE6480F818
:10347000EC6480984002A1679001DBE0F8A3E0F9DA
:10348000A3E0FAA3E0FBC000C001C002C0039001AA
:10349000CDE0FEA3E0FFFBAA06E4F9F89001D5E039
:1034A000FEA3E0FFEE3395E0FDFC12069AD003D0B8
:1034B00002D001D000EB2FFFEA3EFEE93DFDE83CE3
:1034C000FC9001DB1208C09001DBE0F8A3E0F9A357
:1034D000E0FAA3E0FBC000C001C002C0039001CF2E
:1034E000E0FEA3E0FFFBAA06E4F9F89001D7E0FEB6
:1034F000A3E0FFEE3395E0FDFC12069AD003D00264
:10350000D001D000EB2FFFEA3EFEE93DFDE83CFC98
:103510009001DB1208C09001DBE0F8A3E0F9A3E022
:10352000FAA3E0FBC000C001C002C0039001D1E0DB
:10353000FEA3E0FFFBAA06E4F9F89001D9E0FEA3A0
:10354000E0FFEE3395E0FDFC12069AD003D002D0E6
:1035500001D000EB2FFFEA3EFEE93DFDE83CFC9088
:1035600001DB1208C08007E49001D7F0A3F09001BE
:10357000DBE0FCA3E0FDA3E0FEA3E0FF7808120778
:10358000FF9001DB1208C0E47FFFFEFDFC9001DB31
:10359000E0F8A3E0F9A3E0FAA3E0FBD31207C540EB
:1035A0000C9001DB1208CC000000FF802574FF7F27
:1035B00001FEFDFC9001DBE0F8A3E0F9A3E0FAA333
:1035C000E0FBC31207C5500A9001DB1208CCFFFFD5
:1035D000FF019001DBE0A3E0A3E0FEA3E0FF229067
:1035E00001D3E4F0A37420F0E49001CDF0A3F0A3A4
:1035F000F0A3F0A3F0A3F09001CBF0A3F09001E1D1
:103600007410F0A3E4F09001CAF022900097E0F863
:10361000A3E0F9A3E0FAA3E0FB900116E0FCA3E02D
:10362000FDA3E0FEA3E0C39BFFEE9AFEED99FDEC47
:1036300098FC2222020CB9900157E0FEA3E0FF2281
:1036400090015BE0FEA3E0FF22900181E0FEA3E099
:10365000FF2290014FE0FCA3E0FDA3E0FEA3E0FF0A
:1036600022900153E0FCA3E0FDA3E0FEA3E0FF22D3
:1036700090015DE0FCA3E0FDA3E0FEA3E0FF22904B
:103680000161E0FCA3E0FDA3E0FEA3E0FF2253DF25
:103690003F538EBF43DF0353DFFB75D10375D9E87A
:1036A000E4F5D2F5DAF5D2F5DAF5D4F5DCF5D2F5B4
:1036B000DAF5E343DF10D2DED2DF2290011AE024F4
:1036C000FE6072147002E15924026002E1B020022F
:1036D00002E1B0300502E1B0D3EF9400EE94005067
:1036E00002E1B053DEFEA2AF920DC2AF75C7AA755C
:1036F000C75543910153C6FD75C7AA75C755539168
:10370000FEA20D92AF53DEFB53DEF7C294D292C2FB
:1037100080D290900234E4F0A37432F075E8015343
:10372000E8DF43E81043E10843E10443E10290018C
:103730001AE004F022900234E07002A3E0700A3034
:10374000020790011AE004F022200264E49002349F
:10375000F0A3F090011A04F02230024E20054BD362
:10376000EF9400EE94004042D20A53DEFEA2AF92E4
:103770000DC2AF75C7AA75C75543910153C6FD75F4
:10378000C7AA75C7555391FEA20D92AF43DE0453ED
:10379000DEF7D294C292C28090014CE0FCA3E0FD1F
:1037A000ECF5D48DDCD2DED2DF2290011A7401F068
:1037B0002290013BE0FEA3E02424FFEE34FAFE3326
:1037C00095E0FDFC9001E91208C0E4FFFEFDFC90CD
:1037D00001E9E0F8A3E0F9A3E0FAA3E0FBD31207C4
:1037E000C5404320080A200007D202C2070238C29F
:1037F000C20253DEFEA2AF920DC2AF75C7AA75C753
:103800005543910153C6FD75C7AA75C7555391FE1F
:10381000A20D92AF53DEFB53DEF7C20AC294C292EE
:10382000C280C29001C29001E9E0FCA3E0FDA3E0E8
:10383000FEA3E0FFEC4D4E4F703F300504C202C2C4
:1038400005C207C20853DEFEA2AF920DC2AF75C714
:10385000AA75C75543910153C6FD75C7AA75C755CB
:103860005391FEA20D92AF53DEFB53DEF7C20AC2A4
:1038700094C292C280C2908049EC33504530020419
:10388000D205803E200807200004D2078034C207FA
:1038900053DEFEA2AF920DC2AF75C7AA75C75543DE
:1038A000910153C6FD75C7AA75C7555391FEA20D68
:1038B00092AF53DEFB53DEF7C20AC294C292C280BB
:1038C000C2909001E9E0FCA3E0FDA3E0FEA3E0FFCD
:1038D000EC33506C9001E9E0A3E0A3E0A3E0120711
:1038E000B79001E91208C090013EE02418FF900152
:1038F0003DE034FCFEE4FCFD9001E9E0F8A3E0F9D2
:10390000A3E0FAA3E0FB12069AE47B9C7A03F9F8A1
:10391000120BFA9001E91208C0300556E47F06FE4A
:10392000FDFC9001E9E0F8A3E0F9A3E0FAA3E0FBD5
:1039300012069A78021207FF9001E91208C080323D
:1039400090013EE02418FF90013DE034FCFEE4FCD1
:10395000FD9001E9E0F8A3E0F9A3E0FAA3E0FB128F
:10396000069AE47B9C7A03F9F8120BFA9001E912AB
:1039700008C0E47F0AFEFDFC9001E9E0F8A3E0F94D
:10398000A3E0FAA3E0FB12069AE47B04FAF9F8122A
:103990000BFA90014CEEF0A3EFF0300713D3E09454
:1039A000BC90014CE0940240077402F0A374BCF098
:1039B0009001E9E0A3E0A3E0FEA3E0FF1236BB30F4
:1039C0000753D20A43DE01A2AF920DC2AF75C7AA58
:1039D00075C75543910153C6FD75C7AA75C75553A1
:1039E00091FEA20D92AF53DEF753DEFBC294D2805C
:1039F000C29075E80153E8DF53E8EF43E10843E183
:103A00000443E10290014CE0FCA3E0FDECF5D28D13
:103A1000DAD2DED2DF20050241A0D20A90014C7436
:103A200003F0A374E8F0C394E874039403403153A3
:103A3000DEFEA2AF920DC2AF75C7AA75C7554391FE
:103A40000153C6FD75C7AA75C7555391FEA20D92C5
:103A5000AF53DEFB53DEF7C294D292C280D29022E3
:103A600043DE01A2AF920DC2AF75C7AA75C7554319
:103A7000910143C60275C7AA75C7555391FEA20DA1
:103A800092AF43DE0443DE0890014CE0FCA3E0FD6E
:103A9000ECFFF5D2AE058EDA8FD48EDCD2DED2DF2B
:103AA0002230082B90011BE0FEA3E0FF900243E0D0
:103AB000FCA3E0FDC39FFFEC9EFEC3EF9432EE94A7
:103AC00000406A90011BECF0A3EDF0B293805E30F1
:103AD000002B90011BE0FEA3E0FF900243E0FCA35B
:103AE000E0FDC39FFFEC9EFEC3EF94C8EE94004040
:103AF0003C90011BECF0A3EDF0B2938030300B2B27
:103B000090011BE0FEA3E0FF900243E0FCA3E0FD78
:103B1000C39FFFEC9EFEC3EF94F4EE9401400E9021
:103B2000011BECF0A3EDF0B2938002D293200B09BD
:103B30003003067F32B145801C300C0C2006092072
:103B40000B067F32717A800D200C0A300607200B9D
:103B5000047F3291F73000072001047FC8717A306A
:103B600008072009047FFA717AA2089209A200923C
:103B700001A20C9206A20B9203229001E9EFF0FD44
:103B80007FDC7E0371C69001E9E0FD7F707E0371EA
:103B9000C69001E9E0FD7F107E0371C69001E9E067
:103BA000FD7FBA7E0271C69001E9E0FD7F937E023F
:103BB00071C69001E9E0FD7F4B7E0271C69001E97C
:103BC000E0FD7F0B7E029001EAEEF0A3EFF0A3EDA3
:103BD000F0A31208CC000F424053DF3F9001EDE00C
:103BE000FCA3E0FDA3E0FEA3E0FFC006C007900138
:103BF000EAE0FEA3E0FFFBAA06E4F9F8D007D0064E
:103C00001207259001ED1208C09001EDE0FCA3E041
:103C1000FDA3E0FEA3E0FF78081207EC8FD190012E
:103C2000EDE0A3E0A3E0A3E0F5D943D60143D60835
:103C300043DE01A2AF920DC2AF75C7AA75C7554347
:103C4000910143C60275C7AA75C7555391FEA20DCF
:103C500092AF43DE0443DE089001EDE0FCA3E0FDFB
:103C6000A3E0FEA3E0FF78041207EC90014CEEF015
:103C7000A3EFF090014CE0FCA3E0FDECFFF5D3AE28
:103C8000058EDB8FD48EDC9001EDE0A3E0A3E0FE97
:103C9000A3E0FF90014CE0FCA3E0FDC3EF9DFFEE2D
:103CA0009C90014CF0A3EFF090014CE0FCA3E0FDF0
:103CB000ECFFF5D2AE058EDA8FD58EDDD2DED2DF07
:103CC0009001ECE0FF900234E4F0A3EFF0900234B6
:103CD000E07002A3E070F675D10375D9E8E4F5D27F
:103CE000F5DAF5D4F5DC53D6FE53D6F743DF40536F
:103CF000DF7FD2DED2DF229001E9EFF0FD7F0B7E85
:103D00000271C69001E9E0FD7F4B7E0271C6900111
:103D1000E9E0FD7F937E0271C69001E9E0FD7FBA84
:103D20007E0271C69001E9E0FD7F107E0371C690AE
:103D300001E9E0FD7F707E0371C69001E9E0FD7F3F
:103D4000DC7E0361C69001E9EFF0FD7F0B7E02711E
:103D5000C69001E9E0FD7F937E0271C69001E9E023
:103D6000FD7F107E0371C69001E9E0FD7FDC7E03DC
:103D700061C6200A22C3900133E094AA900132E088
:103D80009405500E90011DE004F0E094C84008D264
:103D90000022E490011DF022E4FF300A3A90011F56
:103DA000E0D3946440313002047F1980027F82D3D3
:103DB00090014BE09F90014AE09400401090011E5A
:103DC000E004F0E0D394C84013D208800F90011EA5
:103DD000E0600914F08005E490011EF0300A1690AE
:103DE000011FE0D394645003E004F090014AE0FE28
:103DF000A3E0FF8006E490011FF022AD07AC06C2ED
:103E0000F9ECF59A30F9FDC2F9AF058F9A30F9FD5A
:103E100022900097E0F8A3E0F9A3E0FAA3E0FB907A
:103E20000116E0FCA3E0FDA3E0FEA3E0C39BFFEED0
:103E30009AFEED99FDEC98FC2222020CB9900157F4
:103E4000E0FEA3E0FF2290015BE0FEA3E0FF2290F2
:103E50000181E0FEA3E0FF2290014FE0FCA3E0FD22
:103E6000A3E0FEA3E0FF22900153E0FCA3E0FDA34A
:103E7000E0FEA3E0FF2290015DE0FCA3E0FDA3E0F3
:103E8000FEA3E0FF22900161E0FCA3E0FDA3E0FEC1
:103E9000A3E0FF22E4FDEDC39FEE6480F8748098F8
:103EA0005004000D80F0229001F1EFF0900265E0E7
:103EB000FEA3E0FFE4FCFD7804120813EF24FFFBEF
:103EC000EE34FFFAED34FFF9EC34FFF89001F1E045
:103ED000FFE4FCFDFE12069AE47BFFFAF9F81207F4
:103EE000259001F2EEF0A3EFF0900263E07006D2AD
:103EF00083D281A3F09001F1E0900263F02290015F
:103F0000F1EFF0900265E0FEA3E0FFE4FCFD780431
:103F1000120813EF24FFFBEE34FFFAED34FFF9EC47
:103F200034FFF89001F1E0FFE4FCFDFE12069AE494
:103F30007BFFFAF9F81207259001F2EEF0A3EFF0FB
:103F4000900264E07008D283D281900263F0900105
:103F5000F1E0900264F022900097E0F8A3E0F9A36A
:103F6000E0FAA3E0FB900116E0FCA3E0FDA3E0FE75
:103F7000A3E0C39BFFEE9AFEED99FDEC98FC222294
:103F8000020CB9900157E0FEA3E0FF2290015BE034
:103F9000FEA3E0FF22900181E0FEA3E0FF2290015A
:103FA0004FE0FCA3E0FDA3E0FEA3E0FF229001535D
:103FB000E0FCA3E0FDA3E0FEA3E0FF2290015DE0B2
:103FC000FCA3E0FDA3E0FEA3E0FF22900161E0FC82
:103FD000A3E0FDA3E0FEA3E0FF229002671208C069
:103FE00053B1BF53B2BF53B17F53B27F75985243A1
:103FF000878053C4F843C420900267E0F8A3E0F937
:10400000A3E0FAA3E0FB7F407E427D0F7C00120715
:1040100025C374FF9FFF74FF9EFEE49DFDE49CFC9E
:1040200078081207EC8FC6900267E0F8A3E0F9A3C6
:10403000E0FAA3E0FB7F407E427D0F7C0012072563
:10404000C374FF9FFF74FF9EFEE49DFDE49CFCEFA4
:10405000E48FC543C408223098FDAF99C29822C2AC
:10406000998F993099FD22AD07AC06C299ECF5996C
:104070003099FDC299AF058F993099FD229001E9E1
:104080001208C0D2FE9001E9E0F8A3E0F9A3E0FA3B
:10409000A3E0FB7F407E427D0F7C00120725C374A6
:1040A000FF9FFF74FF9EFEE49DFDE49CFC780812D8
:1040B00007EC8FC69001E9E0F8A3E0F9A3E0FAA3CA
:1040C000E0FB7F407E427D0F7C00120725C374FF1A
:1040D0009FFF74FF9EFEE49DFDE49CFCEFE48FC512
:1040E00043C40822C2F98F9A30F9FD22900097E06C
:1040F000F8A3E0F9A3E0FAA3E0FB900116E0FCA32B
:10410000E0FDA3E0FEA3E0C39BFFEE9AFEED99FD68
:10411000EC98FC2222020CB9900157E0FEA3E0FFCC
:104120002290015BE0FEA3E0FF22900181E0FEA36C
:10413000E0FF2290014FE0FCA3E0FDA3E0FEA3E03E
:10414000FF22900153E0FCA3E0FDA3E0FEA3E0FF0B
:104150002290015DE0FCA3E0FDA3E0FEA3E0FF22CE
:0F416000900161E0FCA3E0FDA3E0FEA3E0FF22DD
:00000001FF
