:0A000000020397020877C2CF3222F4
:06000B00021007D20122E1
:06001300021035C20122BB
:0F001B0080623393A3B1172735361B2B393AB2C6
:0D002B0080D9C2998F993099FD227F002263
:10003B0002107205A41F3005FF00313605931181A4
:10004B00013C8215480417121F619002EBEFF0225E
:10005B0002131D00007F167E037DE3DDFEDEFCDF59
:10006B00FA22C2AF9002E3E0A3F09002E36002E455
:0E007B00F0D2AF22C0E0E4F58BF58DD0E0327C
:10008B00021171E709F608DFFA8046E709F208DF8B
:10009B00FA803E88828C83E709F0A3DFFA8032E393
:1000AB0009F608DFFA8078E309F208DFFA80708836
:1000BB00828C83E309F0A3DFFA806489828A83E070
:1000CB00A3F608DFFA805889828A83E0A3F208DF5F
:1000DB00FA804C80D280FA80C680D4806980F2800E
:1000EB0033801080A680EA809A80A880DA80E28034
:1000FB00CA803389828A83ECFAE493A3C8C582C889
:10010B00CCC583CCF0A3C8C582C8CCC583CCDFE9F2
:10011B00DEE7800D89828A83E493A3F608DFF9EC8E
:10012B00FAA9F0EDFB2289828A83ECFAE0A3C8C519
:10013B0082C8CCC583CCF0A3C8C582C8CCC583CC40
:10014B00DFEADEE880DB89828A83E493A3F208DFAF
:10015B00F980CC88F0EF60010E4E60C388F0ED247F
:10016B0002B4040050B9F582EB2402B4040050AF82
:10017B0023234582239000DE73BB010689828A8389
:10018B00E0225002E722BBFE02E32289828A83E44B
:10019B009322BB010CE58229F582E5833AF583E0D6
:1001AB00225006E92582F8E622BBFE06E92582F8F5
:1001BB00E222E58229F582E5833AF583E49322BBBB
:1001CB00010689828A83F0225002F722BBFE01F3DB
:1001DB0022F8BB010DE58229F582E5833AF583E828
:1001EB00F0225006E92582C8F622BBFE05E92582DE
:1001FB00C8F222EF8DF0A4A8F0CF8CF0A428CE8DFE
:10020B00F0A42EFE22A3F8E0C5F025F0F0E5821550
:10021B008270021583E0C838F0E822BB0110E5823A
:10022B0029F582E5833AF583E0F5F0A3E022500946
:10023B00E92582F886F008E622BBFE0AE92582F85A
:10024B00E2F5F008E222E5832AF583E993F5F0A3C2
:10025B00E99322BB010A89828A83F0E5F0A3F0229D
:10026B005006F709A7F01922BBFE06F3E5F009F3D8
:10027B001922F8BB0111E58229F582E5833AF58352
:10028B00E8F0E5F0A3F0225009E92582C8F608A6AC
:10029B00F022BBFE09E92582C8F2E5F008F22275CF
:1002AB00F008758200EF2FFFEE33FECD33CDCC334C
:1002BB00CCC58233C5829BED9AEC99E58298400CB4
:1002CB00F582EE9BFEED9AFDEC99FC0FD5F0D6E492
:1002DB00CEFBE4CDFAE4CCF9A88222B800C1B90078
:1002EB0059BA002DEC8BF084CFCECDFCE5F0CBF9D9
:1002FB007818EF2FFFEE33FEED33FDEC33FCEB33D1
:10030B00FB10D703994004EB99FB0FD8E5E4F9FAFE
:10031B00227818EF2FFFEE33FEED33FDEC33FCC9E3
:10032B0033C910D7059BE99A4007EC9BFCE99AF976
:10033B000FD8E0E4C9FAE4CCFB2275F010EF2FFFE5
:10034B00EE33FEED33FDCC33CCC833C810D7079B4F
:10035B00EC9AE899400AED9BFDEC9AFCE899F80FB2
:10036B00D5F0DAE4CDFBE4CCFAE4C8F922E8600F6F
:10037B00ECC313FCED13FDEE13FEEF13FFD8F122CC
:10038B00ECF0A3EDF0A3EEF0A3EFF022787FE4F610
:10039B00D8FD9000007FFF7E03E4F0A3DFFCDEFAC4
:1003AB007581200203EC0205C4E493A3F8E493A344
:1003BB004003F68001F208DFF48029E493A3F8549C
:1003CB0007240CC8C333C4540F4420C8834004F41F
:1003DB0056800146F6DFE4800B0102040810204032
:1003EB0080900431E47E019360BCA3FF543F30E561
:1003FB0009541FFEE493A360010ECF54C025E060A7
:10040B00A840B8E493A3FAE493A3F8E493A3C8C574
:10041B0082C8CAC583CAF0A3C8C582C8CAC583CA65
:10042B00DFE9DEE780BE4202DE00004402D70000B7
:10043B0000004402E1000000004202E50000C1019F
:10044B004102C1004102BC034102A6C84102BFB830
:10045B004102BD374102A4014102A5014102C00086
:10046B00C1024102A2014102BE024102BB0541028F
:10047B00F7004202E800004202F500004102F300DF
:10048B004102EB004102E7004102F4004202EC00A2
:10049B00004202F000004102EA004102F200420277
:1004AB00EE00004203280000410325004103270012
:1004BB00410326000010011100120013001800194F
:1004CB00001F0020472100220023002400250026C6
:1004DB000027002E00300032003300340036003786
:1004EB000038003A003B003C003D003E003F0090CE
:1004FB0002E2E004F0E075F00584E5F07005A3E09E
:10050B004420F09002E2E075F01984E5F07005A349
:10051B00E04440F09002E2E0B43207E4F0A3E044A0
:10052B0080F0221211E8115EC287C282C283D2858B
:10053B00D284D281D280C202121A00120854121134
:10054B001F7F007EC27D017C0012184DD295116D6C
:10055B009002E4E030E4F77F07121128EEC4F85460
:10056B00F0C868EFC4540F48FF9002D6F0C374FF75
:10057B009FFFF09002E0E0FEEFC39E40099002D691
:10058B00E09E9002DDF09002D6E0FD7C009002E050
:10059B00E0FB7A009002DDE0FF900010E4F0A3EFA7
:1005AB00F0E4A3F0A3F0A3F0A3F07FF1D17C9002D1
:1005BB00D6E09002E0F0809622E4900006F0B12E97
:1005CB00116D9002E4E030E14B9002377401F0A31F
:1005DB007400F0A37402F0A37401F0A37400F0A3F1
:1005EB007404F07B017A007900120B7C900000E020
:1005FB00FCA3E0FDA3E0FAA3E0FBA3E0FFA3E090E4
:10060B000010CFF0A3EFF0E4A3F0A3F0A3F0A3F05E
:10061B007FF1D17C9002E4E030E34030013D90006B
:10062B0006E004F0E064057032F0121D95A9079006
:10063B000000E0FCA3E0FDA3E0FAA3E0FBA3E0FFD6
:10064B00A3E0900010CFF0A3EFF0AF01A3E4F0A371
:10065B00EFF0E4A3F0A3F07FF1D17C9002E4E03063
:10066B00E603121CB89002E4E020E702A1CBA1CB79
:10067B002290000CECF0A3EDF0A3EAF0A3EBF0E476
:10068B00FEFD0E24C2F582E43402F58374AAF00E4B
:10069B0074C22401F582E43402F58374AAF00E745B
:1006AB00C22402F582E43402F583EFF00E74C22407
:1006BB0003F582E43402F583E4F090000CE0FF0EC6
:1006CB0074C22404F582E43402F583EFF090000D3C
:1006DB00E0FF0E74C22405F582E43402F583EFF0DB
:1006EB0090000EE0FF0E74C22406F582E43402F58E
:1006FB0083EFF090000FE0FF0E74C22407F582E445
:10070B003402F583EFF0900010E0FF0E74C2240862
:10071B00F582E43402F583EFF0900011E0FF0E74E4
:10072B00C22409F582E43402F583EFF0900012E065
:10073B00FF0E74C2240AF582E43402F583EFF090C5
:10074B000013E0FF0E74C2240BF582E43402F58330
:10075B00EFF0900014E0FF0E74C2240CF582E43429
:10076B0002F583EFF0900015E0FF0E74C2240DF537
:10077B0082E43402F583EFF0EE24FC9002C5F0E442
:10078B00FFEFC39E501074C22FF582E43402F58341
:10079B00E02DFD0F80EBAF05AD060E74C22DF5827B
:1007AB00E43402F583EFF07B017A0279C2AF06AD38
:1007BB0007900016EBF0A3EAF0A3E9F0E4FEEEC31A
:1007CB009D5018900016E0FBA3E0FAA3E0F98E828F
:1007DB00758300319DFF112D0E80E3229002E3E023
:1007EB004401F09002E1E004F0E020E0079002E326
:1007FB00E04402F09002E1E075F00584E5F070074B
:10080B009002E3E04404F09002E1E075F00A84E525
:10081B00F070079002E3E04408F09002E1E0B414BA
:10082B000CE4F09002E3E04410F01204FAD39002CF
:10083B00DFE094009002DEE09400400CA3E024FF84
:10084B00F09002DEE034FFF0225389F0438901433C
:10085B008E08758A80758CC1D28CD2A9D2AF2253E7
:10086B00890F438910D28ED2ABD2AF22C0E0C0F039
:10087B00C083C082C0D075D000C000C001C002C010
:10088B0003C004C005C006C007C28911B3D007D08E
:10089B0006D005D004D003D002D001D000D0D0D0E8
:1008AB0082D083D0F0D0E032E49000E6F07D3C7F44
:1008BB0046FE11EF9000E6EFF0BF01229002E7E059
:1008CB00701604F012000EE49002ECF0A3F090020C
:1008DB00F0F0A3F09002EAF09002F47401F09000B3
:1008EB00E6E0FF229000E7EEF0A3EFF0A3EDF0E4DB
:1008FB00A3F0A3F0A3F0A3F09001AFF0A3F090024C
:10090B0031F0A3F0A3F07B0190023704F0A3740144
:10091B00F0A3742EF0A3EBF0A37401F0A3746EF0AC
:10092B007A0079EE717C9001AEEFF0E49000EAF082
:10093B009001AEE0FF9000EAE0F9C39F400221CBAB
:10094B00742E29F582E43401F583E0FD3395E0FC48
:10095B00AF05FE1201FEAA06AB0774EE29F582E481
:10096B003400F583E0FD3395E0FCAF05FE1201FE8C
:10097B00EF2BFBEE3AFA746E29F582E43401F58322
:10098B00E0FD3395E0FCAF05FE1201FEEF2BFFEE11
:10099B003AFE9001AFF0A3EFF0121FD79001AFEE2C
:1009AB00F0A3EFF09000EAE025E024B1F582E43407
:1009BB0001F583EEF0A3EFF09000EAE004F0213BA9
:1009CB00E49000ECF09000EA04F09001AEE014FF2C
:1009DB009000EAE0FEC39F40026162EE25E024B383
:1009EB00F582E43401F583E0FEA3E0FF9000E7E03D
:1009FB00FCA3E0FDD3EF9DEE9C500261019000EA59
:100A0B00E025E024AFF582E43401F583E0FEA3E0BA
:100A1B00C3941EEE9400400261019000EDE0600271
:100A2B0041F9900232F0A3F09000EBF09000EAE075
:100A3B00F914FFA3E0C39F400241D7E0FF25E02458
:100A4B00B3F582E43401F583E0FCA3E0FDEF25E090
:100A5B0024B1F582E43401F583E0FEA3E0FFD39DDE
:100A6B00EE9C40299000EBE025E024B3F582E434C2
:100A7B0001F583E0FCA3E0FDC3EF9DFFEE9CFE9030
:100A8B000233E02FF0900232E03EF080379000EB23
:100A9B00E0FF25E024B1F582E43401F583E0FCA30B
:100AAB00E0FDEF25E024B3F582E43401F583E0FEAD
:100ABB00A3E0C39DFFEE9CFE900233E02FF090026B
:100ACB0032E03EF09000EBE004F041379000E9E0BB
:100ADB00FFD3900233E09F900232E09400400890E5
:100AEB000326E004F080709000ECE9F080089000A1
:100AFB00EAE09000ECF09000ECE0FF60529000EA2E
:100B0B00E0FE25E024B3F582E43401F583E0FCA399
:100B1B00E0FDEE25E024AFF582E43401F583E0FA45
:100B2B00A3E0C39DFDEA9CFC9000E8E024F6FB905B
:100B3B0000E7E034FFFAD3ED9BEC9A40129000EA09
:100B4B00E09FC3940550089000ED7401F08008906D
:100B5B0000EAE004F021D59000EDE0B4010890022A
:100B6B00317401F08005E4900231F0900231E0FF26
:100B7B0022900234EBF0A3EAF0A3E9F09002567452
:100B8B0001F0A37402F0A3743DF07B017D2F7F0174
:100B9B00917390023DE0FF30E6089002437420F021
:100BAB008007EF541F900243F0E4900244F0900250
:100BBB0043E0FFA3E0C39F4002816D900256740196
:100BCB00F0A37402F0A3743DF07B067DA87F019126
:100BDB007390023EE0FE90023DE07C002400FFECAF
:100BEB003EFE900234E0FBA3E0FAA3E0F99002444E
:100BFB00E075F002A4F58285F083EE8FF012027D92
:100C0B00900240E0FE90023FE02400FFEC3EFE909D
:100C1B000237E0FBA3E0FAA3E0F9900244E075F0A1
:100C2B0002A4F58285F083EE8FF012027D900242D2
:100C3B00E0FE900241E02400FFEC3EFE90023AE021
:100C4B00FBA3E0FAA3E0F9900244E075F002A4F5EF
:100C5B008285F083EE8FF012027D900244E004F067
:100C6B0061B9900243E0FF22AE03EF60159002568C
:100C7B00E0FBA3E0FAA3E0F990025EEEF07F18121E
:100C8B0016A57F0122900025EDF0900024EFF07067
:100C9B00287B0190025604F0A37400F0A37426F095
:100CAB007D2E7F019173900026E0543FF0E0F0E041
:100CBB00FB7D2E7F01B192806D900024E06401706A
:100CCB00357B0190025604F0A37400F0A37426F058
:100CDB007D2E7F019173900026E0543FF0E0FB7D69
:100CEB002E7F01B192900026E04440F0E0FB7D2E78
:100CFB007F01B1928030900024E0640270287B0168
:100D0B0090025604F0A37400F0A37426F07D2E7F9E
:100D1B00019173900026E0543FF0E04480F0E0FB3B
:100D2B007D2E7F01B192900025E070287B0190020F
:100D3B005604F0A37400F0A37426F07D247F019178
:100D4B0073900026E05440F0E0F0E0FB7D247F013F
:100D5B00B1928030900025E0640170287B019002F5
:100D6B005604F0A37400F0A37426F07D247F019148
:100D7B0073900026E05440F0E04440F0E0FB7D240B
:100D8B007F01B1927F0122900253EBF0EF60117B58
:100D9B00017A0279539002597401F07F18121630C0
:100DAB007F0122900021EBF0A3EAF0A3E9F0900081
:100DBB0021E0FBA3E0FAA3E0F912018470087D01A6
:100DCB007F67D1758006E4FD7F77D1757D017F024A
:100DDB009190900021E0FBA3E0FAA3E0F9900001D1
:100DEB0012019DFB7D217F01B192900021E0FBA3BD
:100DFB00E0FAA3E0F990000212019DFB7D257F0133
:100E0B00B192900021E0FBA3E0FAA3E0F99000037C
:100E1B0012019DFB7D387F01B192900021E0FBA375
:100E2B00E0FAA3E0F990000412019DFB7D3A7F01EB
:100E3B00B192900021E0FBA3E0FAA3E0F99000054A
:100E4B0012019DFB7D3B7F01B192900021E0FBA342
:100E5B00E0FAA3E0F990000612019DFB7D3C7F01B7
:100E6B00B1927B907D237F01A192900024EFF0A3A0
:100E7B00EDF06005E064017036900027740FF0F41C
:100E8B00F09002567401F0A37400F0A37426F07B6B
:100E9B00017D1F7F019173900026E0FFA3E0FEEF21
:100EAB005E900026F0E0FB7D1F7F01B192802E90BB
:100EBB000025E064027026A3F07B0190025604F03B
:100ECB00A37400F0A37426F07D1F7F019173900033
:100EDB0026E0440FF0E0FB7D1F7F01B192900025CF
:100EEB00E0700E900024E0FFC394975004EF440F82
:100EFB00F090002674FFF0900024E0FB7D207F0132
:100F0B00B1929002567401F0A37400F0A37426F012
:100F1B007B017D207F019173900024E0FF900026E0
:100F2B00E0B507037F01227FFF22900021EBF0A3A6
:100F3B00EAF0A3E9F0120184FB7D107F01B19290DE
:100F4B000021E0FBA3E0FAA3E0F990000112019D60
:100F5B00FB7D187F01B192900021E0FBA3E0FAA387
:100F6B00E0F990000212019DFB7D197F01B1929077
:100F7B000021E0FBA3E0FAA3E0F990000312019D2E
:100F8B00FB7D1A7F01B192900021E0FBA3E0FAA355
:100F9B00E0F990000412019DFB7D117F01B192904D
:100FAB000021E0FBA3E0FAA3E0F990000512019DFC
:100FBB00FB7D127F01B192900021E0FBA3E0FAA32D
:100FCB00E0F990000612019DFB7D137F01B1929019
:100FDB0002567401F0A37400F0A374C8F07B017D7A
:100FEB00107F0191739000C8E04404F0E0FB7D108A
:100FFB007F01B192E4900328F0A3F022C0E0C0F08F
:10100B00C083C082C0D0758A80758CC11207E790EF
:10101B0002E6E004F070069002E5E004F0B296D030
:10102B00D0D082D083D0F0D0E032C0E0C0F0C0830B
:10103B00C082C0D075D000C000C001C002C003C0C8
:10104B0004C005C006C007C28B120052D007D006E1
:10105B00D005D004D003D002D001D000D0D0D082A4
:10106B00D083D0F0D0E032C0E0C0F0C083C082C0EB
:10107B00D075D000C000C001C002C003C004C005C1
:10108B00C006C007AFECEF14706CD295311F7F0711
:10109B003128EEC4F854F0C868EFC4540F48FF90E1
:1010AB0002D6F0C374FF9FF053E1FEC295E0FD75CD
:1010BB00F037A4E5F0FF3395E09002BDEFF090021E
:1010CB00BBE08DF0A4E5F0FF3395E0EF049002BE9A
:1010DB00F09002BDE0FFC374FF9F9002A6F0EFF407
:1010EB0004FFC374819F9002BFF09002C0E4F090A4
:1010FB0002C1F0438F0875EC00D007D006D005D0A5
:10110B0004D003D002D001D000D0D0D082D083D075
:10111B00F0D0E03243E10175F680C2EF22A2AF922C
:10112B0000C2AF75C7AA75C75543A380A20092AF83
:10113B00EF540FF5E8C2EFD2EE20EEFDC2EFAFC3D6
:10114B00EF75F010A4FFE5C2540F7C002FFFEC35B8
:10115B00F0FEA2AF9200C2AF75C7AA75C75553A3D5
:10116B007FA20092AF22C0E0C0F0C083C082C0D08B
:10117B0075D000C000C001C002C003C004C005C0D0
:10118B0006C0077F073128EEC4F854F0C868EFC4D7
:10119B00540F48FF9002D6F0C374FF9FFFF09002EC
:1011AB00E0E0FEEFD39E40099002D6E09E9002DD78
:1011BB00F09002D6E09002E0F0538FF77586014372
:1011CB008F08D007D006D005D004D003D002D001B1
:1011DB00D000D0D0D082D083D0F0D0E032E4F5B1C3
:1011EB0075B2FF7580CC75B30275B47D7590F875CB
:1011FB00A09FF5ACF5AD75B0FF22A2AF9200C2AFC8
:10120B0075C7AA75C755439610A20092AFA2AF92AD
:10121B0000C2AF75C7AA75C755439604A20092AF1B
:10122B00A2AF9200C2AF75C7AA75C7555396FDA260
:10123B000092AFA2AF9200C2AF75C7AA75C7555344
:10124B00A37FA20092AFA2AF9200C2AF75C7AA75DF
:10125B00C755539FFEA20092AFA2AF9200C2AF75CB
:10126B00C7AA75C7555397DFA20092AF22A2AF92C0
:10127B0000C2AF75C7AA75C755439620A20092AF9F
:10128B00A2AF9200C2AF75C7AA75C7555396FBA202
:10129B000092AFA2AF9200C2AF75C7AA75C75553E4
:1012AB0096FDA20092AFA2AF9200C2AF75C7AA750E
:1012BB00C75553A37FA20092AFA2AF9200C2AF75E6
:1012CB00C7AA75C755539FFEA20092AFA2AF92005B
:1012DB00C2AF75C7AA75C7555396DFA20092AF224E
:1012EB00758F0B7586C8439C04D2AF2275E90675C2
:1012FB00EA01439B02D2AF22D288D289D2A8D2AFC5
:10130B0022D28AD28BD2AAD2AF2275E801C2EFD2F7
:10131B00EE22C0E0C0F0C083C082C0D075D000C048
:10132B0004C006C007AFC3EF75F010A4FFE5C254AD
:10133B000F7C002FFEEC35F0900260F0A3CEF0C2D4
:10134B00EFD007D006D004D0D0D082D083D0F0D04D
:10135B00E03275C7AA75C75553A5FE75C7AA75C7E1
:10136B0055539FFE22AD07AC0671AD75AF22ECF560
:10137B00A7AF058FA675AEFF75C7AA75C75543A452
:10138B000180CFAB07AA0671AD75AF21EAF5A7AF08
:10139B00038FA6AF058FAE75C7AA75C75543A401BA
:1013AB0080B075C7AA75C755439F0175C7AA75C786
:1013BB005543A5012290032AEEF0A3EFF0A3ECF026
:1013CB00A3EDF0C2AF718E90032BE02401FF9003CD
:1013DB002AE03400FE90032CE0FD718ED2AF2290F8
:1013EB000320EBF0A3EAF0A3E9F0A3EDF07F007E7E
:1013FB00407170E4A3F0900323E0FFA3E0FEC39FD2
:10140B005035EE75F002A42400FFE5F03440FE9059
:10141B000320E0FBA3E0FAA3E0F9900324E075F0CE
:10142B0002A4F58285F083120226FDACF071C09008
:10143B000324E004F080BF227F007E4071707F01A7
:10144B00227B017A0279A77D0A8094914C7B017AE9
:10145B000279A77D0A90030FEBF0A3EAF0A3E9F062
:10146B00A3EDF0E4A3F0A3F0900313F0A3F090032B
:10147B0012E0FFA3E0FCA3E0FDC39FEC94005046F9
:10148B00ED25E0FFEC33FEE42FFFEE3440FE91D26E
:10149B00AC06AD07900314E025E0FF900313E03397
:1014AB00FE90030FE0FBA3E0FAA3E0F98F828E839B
:1014BB00EC8DF012027D900314E004F070069003A3
:1014CB0013E004F080A822AD07AC06C2AF91F4ABD9
:1014DB0007ED2401FFE43EFE91F47E00EFFE7C005D
:1014EB00E42BFFEC3EFED2AF228F828E83E493FF80
:1014FB00227F007E4091F4900332EFF07F0291F453
:10150B00900333EFF0900332E0640260037F00221C
:10151B007F01229003347402F07F007E4071707B58
:10152B00017A03793490030D7402F0E4FDFCB13EB3
:10153B007F0122900308EBF0A3EAF0A3E9F0A3EC00
:10154B00F0A3EDF0E490030EF0F090030DE0FFA399
:10155B00E0FEC39F503890030CE02400FD90030B7A
:10156B00E03440FCEE7E002DFFEE3CFE900308E0E5
:10157B00FBA3E0FAA3E0F990030EE0F5827583007C
:10158B0012019DFD718E90030EE004F080BC229041
:10159B000301EBF0A3EAF0A3E9F0A3ECF0A3EDF069
:1015AB00E4900307F0F0900306E0FFA3E0FEC39F77
:1015BB005038900305E02400FD900304E03440FC18
:1015CB00EE7E002DFFEE3CFE91F4900301E0FBA3B9
:1015DB00E0FAA3E0F9900307E0F582758300EF12C0
:1015EB0001DC900307E004F080BC22ED4C60181284
:1015FB000184FF90031AE02FF0740129F9E43AFA01
:10160B00ED1D70011C80E490031AE0FF22EF1FAC6C
:10161B000670011E4C70F622C2947F037E00D11817
:10162B00D293D29422900254EFF0900256EBF0A397
:10163B00EAF0A3E9F0F169900254E0FF25E0FFF135
:10164B0032EF700280D2AF05F132EF700280C9E445
:10165B0090025AF0A3F0900259E0FFC390025BE0B6
:10166B009F7480F890025AE0648098502B90025639
:10167B00E0FBA3E475F001120210A9F0FA12018449
:10168B00FFF132EF7002809090025BE004F0700685
:10169B0090025AE004F080BEC123900259EFF09003
:1016AB00025BEBF0A3EAF0A3E9F0F169900259E0D9
:1016BB00FF25E0FFF132EF7002C123AF05F132EFEE
:1016CB007002C123F169900259E0FF25E004FFF19C
:1016DB0032EF7002C123E490025FF090025EE014DF
:1016EB00FFA3E0C39F50207F01F17E90025BE0FBE4
:1016FB00A3E475F001120210A9F0FAEF1201CA90DF
:10170B00025FE004F080D4E4FFF17E90025BE0FB2B
:10171B00A3E475F001120210A9F0FAEF1201CA430B
:10172B00B41053B3EFC123E4FEEF30E704D294803F
:10173B0002C294D293C293EF25E0FF0EEEB408E9F8
:10174B0053B4EF43B310D293A294E433FEC293434A
:10175B00B41053B3EF70047F0180027F0022D29448
:10176B00D2937F0A7E00D118C2947F0A7E00D118D3
:10177B00C29322AD07E4FB53B4EF43B3107F01FEDA
:10178B00D118E4FFD293EB25E0FB3094034401FB2B
:10179B00C2930FEFB408ED43B41053B3EFED6004F5
:1017AB00C2948002D294D2937F017E00D118C2934F
:1017BB0053B4EF43B310AF03227B017A0379389014
:1017CB00025E7401F07D107F18D1A5900338E054B0
:1017DB00FBF07B017A0379389002597401F07D108C
:1017EB007F18C130900337741DF0E4900336F090EE
:1017FB000337E0FF900336E0C39F5032E0FF25E054
:10180B0024C0F582E43404F583E493FDEF75F00214
:10181B00A424C1F9740435F0FA7BFF9002597401CA
:10182B00F07F18121630900336E004F080C1227B53
:10183B00017A02798290025E7403F07D157F1802A3
:10184B0016A590000B12038B53B1BF53B2BF759803
:10185B004243878053C4F843C42090000BE0F8A3A5
:10186B00E0F9A3E0FAA3E0FB7F407E427D0F7C0012
:10187B001202E6C374FF9FFF74FF9EFEE49DFDE41E
:10188B009CFC78081203788FC690000BE0F8A3E05D
:10189B00F9A3E0FAA3E0FB7F407E427D0F7C0012B0
:1018AB0002E6C374FF9FFF74FF9EFEE49DFDE49C64
:1018BB00FCEFE48FC543C408223098FDAF99C29862
:1018CB0022AD07AC06C299ECF5993099FDC299AFE0
:1018DB00058F993099FD2290032E12038BD2FE9027
:1018EB00032EE0F8A3E0F9A3E0FAA3E0FB7F407E30
:1018FB00427D0F7C001202E6C374FF9FFF74FF9EB4
:10190B00FEE49DFDE49CFC78081203788FC69003DF
:10191B002EE0F8A3E0F9A3E0FAA3E0FB7F407E42C0
:10192B007D0F7C001202E6C374FF9FFF74FF9EFEC7
:10193B00E49DFDE49CFCEFE48FC543C40822C2F98F
:10194B008F9A30F9FD22AD07AC06C2F9ECF59A304F
:10195B00F9FDC2F9AF058F9A30F9FD229002A2E092
:10196B0024FE6024047044538FF77586C8438F0898
:10197B009002C0E075F00C84E5F090001E93F580AA
:10198B009002A2E004F08023538FF77586B8438F43
:10199B0008C2029002C0E004F0E0C3943C4006E4AD
:1019AB00F0A3E004F09002A2E014F0538FEF22308A
:1019BB0002189002C0E075F00C84E5F004FD900273
:1019CB00BEE0FC9002BBE0C39CFE300227E4FF901C
:1019DB0002BEE0FCEFC39C500AED90001D93F58016
:1019EB000F80ECE4FFEFC39E50E090001DE493F5F5
:1019FB00800F80F122E490000BF0780C7C007D01CD
:101A0B007BFF7A00793EFE7F0712015E78137C0024
:101A1B007D017BFF7A0079457E007F0412015E78A1
:101A2B00177C007D017BFF7A0079497E007F0212D3
:101A3B00015E9000197482F0781A7C007D017BFFA7
:101A4B007A00794B7E007F0712015E7F0871109040
:101A5B00000BEFF07F10716B90000BEFF0E4FD7F4C
:101A6B0047120E7590000BEFF07D017F02120C9068
:101A7B0090000BEFF0900019E0FF51DC90000BEFA2
:101A8B00F07B017A00790C120F357B017A00791308
:101A9B0071C77B017A00791751BBE49002F5F0A373
:101AAB00F07B017A00791A120DAE90000BE0FF2249
:101ABB00900021EBF0A3EAF0A3E9F0A3E0FB7D6B30
:101ACB007F01120D92900024E0FB7D6C7F01020DD3
:101ADB0092900021EFF0FB7D257F01120D92900279
:101AEB00567401F0A37400F0A37422F07B017D25E2
:101AFB007F01120C73900021E0FFA3E0B507037F79
:101B0B0001227F0022900021EFF0A374FFF09002DE
:101B1B00567401F0A37400F0A37422F07B017D577F
:101B2B007F01120C73900022E054F3FF900021E030
:101B3B004FA3F0E0FB7D577F01120D92900256747C
:101B4B0001F0A37400F0A37422F07B017D0F7F01E1
:101B5B00120C73900022E0B413037F01227FFF224B
:101B6B00900021EFF0A374FFF09002567401F0A3E4
:101B7B007400F0A37422F07B017D237F01120C73A0
:101B8B00900021E04488FF900023F0FB7D237F0130
:101B9B00120D929002567401F0A37400F0A37422FC
:101BAB00F07B017D237F01120C73900023E0FF90EB
:101BBB000022E0B507037F01227FFF22900021EB7B
:101BCB00F0A3EAF0A3E9F0120184FB7D087F011278
:101BDB000D92900021E0FBA3E0FAA3E0F91201843F
:101BEB00FF900325F0E4900327F0EF54C0600374DB
:101BFB0040F0900325E054306007900327E0441039
:101C0B00F090000112019DFB7D097F01120D929056
:101C1B000021E0FBA3E0FAA3E0F990000212019D82
:101C2B00FB7D0A7F01120D92900021E0FBA3E0FAED
:101C3B00A3E0F990000312019DFB7D0B7F01020DC8
:101C4B0092E4FFB1169002F3EFF09002F5E0700210
:101C5B00A3E07043EFD39401402F9002E9E004F02E
:101C6B0070069002E8E004F0D39002E9E09414903F
:101C7B0002E8E09400400FE4F0A3F09002F5F0A32B
:101C8B0004F0EF13FF227F0022E49002E8F0A3F0B0
:101C9B009002F5F0A304F0EFD3940250037F0022DF
:101CAB00EFD3940550037F01227F0222229002374B
:101CBB007401F0A37400F0A37447F0A37401F0A3B4
:101CCB007400F0A37487F07B017A007907120B7C08
:101CDB009000C7EFF0B1339002EEEEF0A3EFF0D32C
:101CEB0094C8EE94004003120FDA9002F2E004F075
:101CFB00E0C39478400C914C9002F7EFF0E4900223
:101D0B00F2F09002EEE0FEA3E0FF22900256740187
:101D1B00F0A37400F0A374C8F07B017D6F7F0112F8
:101D2B000C739000C8E0FF229002567401F0A3746C
:101D3B0000F0A374C8F07B037D957F01120C7390A8
:101D4B0000C9E07D00FCA3E07E007810C333CE33E6
:101D5B00CED8F9FFEE4CFEEF4DFF9000C8E0FDEE44
:101D6B00EF4DFDAC06900328E0FEA3E0FFC3ED9F13
:101D7B00FBEC9EFAD3EB9464EA94004001229003AF
:101D8B0028ECF0A3EDF0AE04FF22E4900007F090F6
:101D9B0002E7E064016002C1569002EDE004F070CE
:101DAB00069002ECE004F09002ECE0FEA3E0FFC32F
:101DBB00940AEE940050229002F4E0B4011BE4F07C
:101DCB009002F1E02FF09002F0E03EF0E49002EC94
:101DDB00F0A3F09002EAE004F07F01D159900007E4
:101DEB00EFF09002ECE0FEA3E0FFC3940AEE940048
:101DFB00500FC39002F1E094649002F0E094004025
:101E0B0009900007E0C394024012C3EF940AEE94CA
:101E1B00004038900007E0D39401402F120016E4E5
:101E2B009002E7F09002ECF0A3F09002F0F0A3F038
:101E3B00900007E0D39400400CE4FFD159900007C9
:101E4B00EFF07F00229002EAE0FF227F0022EF708A
:101E5B0004900326F0900326E0FF2290033974FFD1
:101E6B00F09002567401F0A37403F0A37439F07B65
:101E7B00017D687F01120C73900339E044A5F0E0FB
:101E8B00FB7D687F01120D929002567401F0A374D2
:101E9B0003F0A37439F07B017D247F01120C739046
:101EAB000339E04480F0E0FB7D247F01120D927F2B
:101EBB0001229002F8EBF0A3EAF0A3E9F0900256AE
:101ECB007401F0A37402F0A374FBF07B017D277FF8
:101EDB0001120C739002FBE0540F640F70757B01C1
:101EEB0090025604F0A37402F0A374FBF07B067D02
:101EFB00A87F01120C739002FCE0FE9002FBE07CC9
:101F0B00002400FFEC3EF99002F8E0FBA3E0FAA3FB
:101F1B00E0C98FF012025E9002FEE0FE9002FDE03F
:101F2B002400FFEC3EFE9002F8E0FBA3E0FAA3E0F6
:101F3B00F9900002EE8FF012027D900300E0FE900C
:101F4B0002FFE02400FFEC3E9000048FF012027DB4
:101F5B007F01227F00229002567401F0A37402F0DD
:101F6B00A37452F07B017D067F01120C7390025219
:101F7B00E0FF54066041EF30E10C900327E0FF9047
:101F8B000325E05F6013900252E030E22A900327B2
:101F9B00E0FF900325E05F601E900325E0FFF4FE59
:101FAB00900327E05EFEEF54AF4E900325F0FEFB4F
:101FBB007D087F01120D92900252E0FE30E1037F0B
:101FCB000122EE30E2037F02227F0022900234EEE8
:101FDB00F0A3EFF0E4F9A3F0A3F0A3EEF0A3EFF07E
:101FEB002400FFE43EC313FEEF13FFA3EEF0A3EFB9
:101FFB00F090023AE0FCA3E0FDFFAE041201FE906C
:10200B000234E0FAA3E0FBC39FEA9E501190023A20
:10201B00E0FFA3E0900238CFF0A3EFF0800F900227
:10202B003AE0FFA3E0900236CFF0A3EFF090023638
:10203B00E0FEA3E0FFC3900239E09FFF900238E07F
:10204B009EFEEF64014E7047900236E0FCA3E0FD6C
:10205B00FFAE041201FEC3EB9FFBEA9EFAA3E0FC6A
:10206B00A3E0FDFFAE041201FE900234E0FCA3E0FE
:10207B00FDC3EF9DFFEE9CFED3EF9BEE9A4007A3B3
:10208B00E0FEA3E0FF22900238E0FEA3E0FF2290E7
:10209B000236E0FEA3E0FF900239E02FFF900238FA
:1020AB00E03EC313FEEF13FF90023AEEF0A3EFF006
:0D20BB0009E964C86003021FFCE4FEFF2277
:00000001FF
