:0A000000020397020845D2012222F4
:06000B00020FF4C2CF3227
:06001300021022C20122CE
:10001B0002105F3393A3B1172735361B2B393AB236
:0D002B0080E1C2998F993099FD227F00225B
:10003B0002106905A41F3005FF00313605931181AD
:10004B00013C8215480417D288D289D2A8D2AF229C
:10005B0002132200007F167E037DE3DDFEDEFCDF54
:10006B00FA22C2AF9002F5E0A3F09002F56002E431
:0D007B00F0D2AF221221039002DCEFF02240
:10008B00021175E709F608DFFA8046E709F208DF87
:10009B00FA803E88828C83E709F0A3DFFA8032E393
:1000AB0009F608DFFA8078E309F208DFFA80708836
:1000BB00828C83E309F0A3DFFA806489828A83E070
:1000CB00A3F608DFFA805889828A83E0A3F208DF5F
:1000DB00FA804C80D280FA80C680D4806980F2800E
:1000EB0033801080A680EA809A80A880DA80E28034
:1000FB00CA803389828A83ECFAE493A3C8C582C889
:10010B00CCC583CCF0A3C8C582C8CCC583CCDFE9F2
:10011B00DEE7800D89828A83E493A3F608DFF9EC8E
:10012B00FAA9F0EDFB2289828A83ECFAE0A3C8C519
:10013B0082C8CCC583CCF0A3C8C582C8CCC583CC40
:10014B00DFEADEE880DB89828A83E493A3F208DFAF
:10015B00F980CC88F0EF60010E4E60C388F0ED247F
:10016B0002B4040050B9F582EB2402B4040050AF82
:10017B0023234582239000DE73BB010689828A8389
:10018B00E0225002E722BBFE02E32289828A83E44B
:10019B009322BB010CE58229F582E5833AF583E0D6
:1001AB00225006E92582F8E622BBFE06E92582F8F5
:1001BB00E222E58229F582E5833AF583E49322BBBB
:1001CB00010689828A83F0225002F722BBFE01F3DB
:1001DB0022F8BB010DE58229F582E5833AF583E828
:1001EB00F0225006E92582C8F622BBFE05E92582DE
:1001FB00C8F222EF8DF0A4A8F0CF8CF0A428CE8DFE
:10020B00F0A42EFE22A3F8E0C5F025F0F0E5821550
:10021B008270021583E0C838F0E822BB0110E5823A
:10022B0029F582E5833AF583E0F5F0A3E022500946
:10023B00E92582F886F008E622BBFE0AE92582F85A
:10024B00E2F5F008E222E5832AF583E993F5F0A3C2
:10025B00E99322BB010A89828A83F0E5F0A3F0229D
:10026B005006F709A7F01922BBFE06F3E5F009F3D8
:10027B001922F8BB0111E58229F582E5833AF58352
:10028B00E8F0E5F0A3F0225009E92582C8F608A6AC
:10029B00F022BBFE09E92582C8F2E5F008F22275CF
:1002AB00F008758200EF2FFFEE33FECD33CDCC334C
:1002BB00CCC58233C5829BED9AEC99E58298400CB4
:1002CB00F582EE9BFEED9AFDEC99FC0FD5F0D6E492
:1002DB00CEFBE4CDFAE4CCF9A88222B800C1B90078
:1002EB0059BA002DEC8BF084CFCECDFCE5F0CBF9D9
:1002FB007818EF2FFFEE33FEED33FDEC33FCEB33D1
:10030B00FB10D703994004EB99FB0FD8E5E4F9FAFE
:10031B00227818EF2FFFEE33FEED33FDEC33FCC9E3
:10032B0033C910D7059BE99A4007EC9BFCE99AF976
:10033B000FD8E0E4C9FAE4CCFB2275F010EF2FFFE5
:10034B00EE33FEED33FDCC33CCC833C810D7079B4F
:10035B00EC9AE899400AED9BFDEC9AFCE899F80FB2
:10036B00D5F0DAE4CDFBE4CCFAE4C8F922E8600F6F
:10037B00ECC313FCED13FDEE13FEEF13FFD8F122CC
:10038B00ECF0A3EDF0A3EEF0A3EFF022787FE4F610
:10039B00D8FD9000007FFF7E03E4F0A3DFFCDEFAC4
:1003AB007581200203EC020592E493A3F8E493A376
:1003BB004003F68001F208DFF48029E493A3F8549C
:1003CB0007240CC8C333C4540F4420C8834004F41F
:1003DB0056800146F6DFE4800B0102040810204032
:1003EB0080900431E47E019360BCA3FF543F30E561
:1003FB0009541FFEE493A360010ECF54C025E060A7
:10040B00A840B8E493A3FAE493A3F8E493A3C8C574
:10041B0082C8CAC583CAF0A3C8C582C8CAC583CA65
:10042B00DFE9DEE780BE4202F100004402EB000090
:10043B0000004402F3000000004202F70000C1017B
:10044B004102C3004102BD034102A6C84102C0B82C
:10045B004102BE374102A7004102C2004102A20085
:10046B004102A5014102C100C1024102A3014102A7
:10047B00BF024102BC054102E8004202D900004222
:10048B0002E600004102E4004102DC004102D80018
:10049B004102E5004202DD00004202E100004102A0
:1004AB00DB004102E3004202DF00004203290000AF
:1004BB0041032600410328004103270000100111CE
:1004CB000012001300180019001F00204721002202
:1004DB0000230024002500260027002E00300032C8
:1004EB0000330034003600370038003A003B003C44
:1004FB00003D003E003F009002F4E004F0E075F098
:10050B000584E5F07005A3E04420F09002F4E0755B
:10051B00F01984E5F07005A3E04440F09002F4E09C
:10052B00B43207E4F0A3E04480F0221211F6115E1E
:10053B00C287C282C283D285D284D281D280C202C8
:10054B00121BCC1211237F007EC27D017C0012187E
:10055B005211521213111213051212F91212139097
:10056B0002C3E0C394014019C287C282C283D28501
:10057B00D284D281D280C202538FF7E4F5EC439B35
:10058B0002121B8880D922E4900006F0B136116D5F
:10059B009002F6E030E14B9002377401F0A3740047
:1005AB00F0A37402F0A37401F0A37400F0A374041D
:1005BB00F07B017A007900120B4A900000E0FCA35B
:1005CB00E0FDA3E0FAA3E0FBA3E0FFA3E090000CA7
:1005DB00CFF0A3EFF0E4A3F0A3F0A3F0A3F07FF12F
:1005EB00D14A9002F6E030E34030013D900006E046
:1005FB0004F0E064057032F0121F41A9079000006F
:10060B00E0FCA3E0FDA3E0FAA3E0FBA3E0FFA3E083
:10061B0090000CCFF0A3EFF0AF01A3E4F0A3EFF049
:10062B00E4A3F0A3F07FF1D14A9002F6E030E603A9
:10063B00121E649002F6E020E702A199A199229084
:10064B000008ECF0A3EDF0A3EAF0A3EBF0E4FEFD61
:10065B000E24C4F582E43402F58374AAF00E74C43C
:10066B002401F582E43402F58374AAF00E74C424D9
:10067B0002F582E43402F583EFF00E74C42403F523
:10068B0082E43402F583E4F0900008E0FF0E74C4BA
:10069B002404F582E43402F583EFF0900009E0FFC7
:1006AB000E74C42405F582E43402F583EFF0900058
:1006BB000AE0FF0E74C42406F582E43402F583EFDE
:1006CB00F090000BE0FF0E74C42407F582E43402B3
:1006DB00F583EFF090000CE0FF0E74C42408F58254
:1006EB00E43402F583EFF090000DE0FF0E74C424A8
:1006FB0009F582E43402F583EFF090000EE0FF0E73
:10070B0074C4240AF582E43402F583EFF090000FF1
:10071B00E0FF0E74C4240BF582E43402F583EFF092
:10072B00900010E0FF0E74C4240CF582E43402F543
:10073B0083EFF0900011E0FF0E74C4240DF582E4FA
:10074B003402F583EFF0EE24FC9002C7F0E4FFEFE8
:10075B00C39E501074C42FF582E43402F583E02D50
:10076B00FD0F80EBAF05AD060E74C42DF582E4349E
:10077B0002F583EFF07B017A0279C4AF06AD0790E7
:10078B000012EBF0A3EAF0A3E9F0E4FEEEC39D50F8
:10079B0018900012E0FBA3E0FAA3E0F98E827583B8
:1007AB0000319DFF112D0E80E3229002F5E04401F4
:1007BB00F09002F3E004F0E020E0079002F5E04453
:1007CB0002F09002F3E075F00584E5F070079002FB
:1007DB00F5E04404F09002F3E075F00A84E5F07064
:1007EB00079002F5E04408F09002F3E0B4140CE437
:1007FB00F09002F5E04410F0120502D39002F2E003
:10080B0094009002F1E09400400CA3E024FFF090E0
:10081B0002F1E034FFF0225389F0438901438E0843
:10082B00758A80758CC1D28CD2A9D2AF2253890F15
:10083B00438910D28ED2ABD2AF22C0E0C0F0C083BE
:10084B00C082C0D075D000C000C001C002C003C0C0
:10085B0004C005C006C007C2891181D007D006D0DD
:10086B0005D004D003D002D001D000D0D0D082D09C
:10087B0083D0F0D0E032E49000E6F07D3C7F46FE82
:10088B0011BD9000E6EFF0BF01229002D8E0701688
:10089B0004F0120006E49002DDF0A3F09002E1F008
:1008AB00A3F09002DBF09002E57401F09000E6E01B
:1008BB00FF229000E7EEF0A3EFF0A3EDF0E4A3F03E
:1008CB00A3F0A3F0A3F09001AFF0A3F0900231F0EE
:1008DB00A3F0A3F07B0190023704F0A37401F0A303
:1008EB00742EF0A3EBF0A37401F0A3746EF07A00F6
:1008FB0079EE714A9001AEEFF0E49000EAF09001CE
:10090B00AEE0FF9000EAE0F9C39F40022199742EFC
:10091B0029F582E43401F583E0FD3395E0FCAF0566
:10092B00FE1201FEAA06AB0774EE29F582E4340031
:10093B00F583E0FD3395E0FCAF05FE1201FEEF2BD6
:10094B00FBEE3AFA746E29F582E43401F583E0FD8F
:10095B003395E0FCAF05FE1201FEEF2BFFEE3AFEE6
:10096B009001AFF0A3EFF01221799001AFEEF0A35D
:10097B00EFF09000EAE025E024B1F582E43401F5D4
:10098B0083EEF0A3EFF09000EAE004F02109E4908D
:10099B0000ECF09000EA04F09001AEE014FF900040
:1009AB00EAE0FEC39F40026130EE25E024B3F582FE
:1009BB00E43401F583E0FEA3E0FF9000E7E0FCA345
:1009CB00E0FDD3EF9DEE9C500241CF9000EAE02575
:1009DB00E024AFF582E43401F583E0FEA3E0C39499
:1009EB001EEE9400400241CF9000EDE0600241C743
:1009FB00900232F0A3F09000EBF09000EAE0F914D3
:100A0B00FFA3E0C39F400241A5E0FF25E024B3F51F
:100A1B0082E43401F583E0FCA3E0FDEF25E024B193
:100A2B00F582E43401F583E0FEA3E0FFD39DEE9C59
:100A3B0040299000EBE025E024B3F582E43401F586
:100A4B0083E0FCA3E0FDC3EF9DFFEE9CFE90023321
:100A5B00E02FF0900232E03EF080379000EBE0FFA9
:100A6B0025E024B1F582E43401F583E0FCA3E0FD3D
:100A7B00EF25E024B3F582E43401F583E0FEA3E037
:100A8B00C39DFFEE9CFE900233E02FF0900232E00C
:100A9B003EF09000EBE004F041059000E9E0FFD35D
:100AAB00900233E09F900232E094004008900327BD
:100ABB00E004F080709000ECE9F080089000EAE030
:100ACB009000ECF09000ECE0FF60529000EAE0FE4A
:100ADB0025E024B3F582E43401F583E0FCA3E0FDCB
:100AEB00EE25E024AFF582E43401F583E0FAA3E0D0
:100AFB00C39DFDEA9CFC9000E8E024F6FB9000E728
:100B0B00E034FFFAD3ED9BEC9A40129000EAE09FA1
:100B1B00C3940550089000ED7401F080089000EA32
:100B2B00E004F021A39000EDE0B4010890023174D1
:100B3B0001F08005E4900231F0900231E0FF229049
:100B4B000234EBF0A3EAF0A3E9F09002567401F043
:100B5B00A37402F0A3743DF07B017D2F7F019141C3
:100B6B0090023DE0FF30E6089002437420F08007CE
:100B7B00EF541F900243F0E4900244F0900243E0E4
:100B8B00FFA3E0C39F4002813B9002567401F0A388
:100B9B007402F0A3743DF07B067DA87F0191419018
:100BAB00023EE0FE90023DE07C002400FFEC3EFEA6
:100BBB00900234E0FBA3E0FAA3E0F9900244E07565
:100BCB00F002A4F58285F083EE8FF012027D900285
:100BDB0040E0FE90023FE02400FFEC3EFE90023727
:100BEB00E0FBA3E0FAA3E0F9900244E075F002A465
:100BFB00F58285F083EE8FF012027D900242E0FECB
:100C0B00900241E02400FFEC3EFE90023AE0FBA391
:100C1B00E0FAA3E0F9900244E075F002A4F58285B6
:100C2B00F083EE8FF012027D900244E004F06187B6
:100C3B00900243E0FF22AE03EF6015900256E0FBFB
:100C4B00A3E0FAA3E0F990025EEEF07F181216AA69
:100C5B007F0122900025EDF0900024EFF070287BAF
:100C6B000190025604F0A37400F0A37426F07D2EBD
:100C7B007F019141900026E0543FF0E0F0E0FB7DD6
:100C8B002E7F01B160806D900024E0640170357B94
:100C9B000190025604F0A37400F0A37426F07D2E8D
:100CAB007F019141900026E0543FF0E0FB7D2E7FC9
:100CBB0001B160900026E04440F0E0FB7D2E7F0107
:100CCB00B1608030900024E0640270287B019002B8
:100CDB005604F0A37400F0A37426F07D2E7F0191CF
:100CEB0041900026E0543FF0E04480F0E0FB7D2E85
:100CFB007F01B160900025E070287B0190025604C3
:100D0B00F0A37400F0A37426F07D247F0191419031
:100D1B000026E05440F0E0F0E0FB7D247F01B16061
:100D2B008030900025E0640170287B01900256040E
:100D3B00F0A37400F0A37426F07D247F0191419001
:100D4B000026E05440F0E04440F0E0FB7D247F01BE
:100D5B00B1607F0122900253EBF0EF60117B017ABF
:100D6B000279539002597401F07F181216357F01E6
:100D7B0022900021EBF0A3EAF0A3E9F0900021E030
:100D8B00FBA3E0FAA3E0F912018470087D017F67F1
:100D9B00D1438006E4FD7F77D1437D017F02915ED5
:100DAB00900021E0FBA3E0FAA3E0F990000112010F
:100DBB009DFB7D217F01B160900021E0FBA3E0FA58
:100DCB00A3E0F990000212019DFB7D257F01B1602C
:100DDB00900021E0FBA3E0FAA3E0F99000031201DD
:100DEB009DFB7D387F01B160900021E0FBA3E0FA11
:100DFB00A3E0F990000412019DFB7D3A7F01B160E5
:100E0B00900021E0FBA3E0FAA3E0F99000051201AA
:100E1B009DFB7D3B7F01B160900021E0FBA3E0FADD
:100E2B00A3E0F990000612019DFB7D3C7F01B160B0
:100E3B007B907D237F01A160900024EFF0A3EDF068
:100E4B006005E064017036900027740FF0F4F090A9
:100E5B0002567401F0A37400F0A37426F07B017D9D
:100E6B001F7F019141900026E0FFA3E0FEEF5E9013
:100E7B000026F0E0FB7D1F7F01B160802E900025E6
:100E8B00E064027026A3F07B0190025604F0A37479
:100E9B0000F0A37426F07D1F7F019141900026E0A6
:100EAB00440FF0E0FB7D1F7F01B160900025E070E7
:100EBB000E900024E0FFC394975004EF440FF09082
:100ECB00002674FFF0900024E0FB7D207F01B160D1
:100EDB009002567401F0A37400F0A37426F07B010A
:100EEB007D207F019141900024E0FF900026E0B52A
:100EFB0007037F01227FFF22900021EBF0A3EAF092
:100F0B00A3E9F0120184FB7D107F01B160900021F9
:100F1B00E0FBA3E0FAA3E0F990000112019DFB7D39
:100F2B00187F01B160900021E0FBA3E0FAA3E0F988
:100F3B0090000212019DFB7D197F01B16090002191
:100F4B00E0FBA3E0FAA3E0F990000312019DFB7D07
:100F5B001A7F01B160900021E0FBA3E0FAA3E0F956
:100F6B0090000412019DFB7D117F01B16090002167
:100F7B00E0FBA3E0FAA3E0F990000512019DFB7DD5
:100F8B00127F01B160900021E0FBA3E0FAA3E0F92E
:100F9B0090000612019DFB7D137F01B160900256FC
:100FAB007401F0A37400F0A374C8F07B017D107F73
:100FBB000191419000C8E04404F0E0FB7D107F01FB
:100FCB00B160E4900329F0A3F022900021EBF0A391
:100FDB00EAF0A3E9F0A3E0FB7D6B7F01B160900029
:100FEB0024E0FB7D6C7F01A160C0E0C0F0C083C03A
:100FFB0082C0D0758A80758CC11207B59002F8E05B
:10100B0004F070069002F7E004F0B296D0D0D082D4
:10101B00D083D0F0D0E032C0E0C0F0C083C082C03B
:10102B00D075D000C000C001C002C003C004C00511
:10103B00C006C007C28B12007FD007D006D005D0E8
:10104B0004D003D002D001D000D0D0D082D083D036
:10105B00F0D0E032C0E0E4F58BF58DD0E032C0E0AB
:10106B00C0F0C083C082C0D075D000C000C001C02A
:10107B0002C003C004C005C006C007AFECEF14707C
:10108B0079D29531237F07312CEEC4F854F0C86820
:10109B00FEEFC4540F48FF9002E9EEF0A3EFF0C34C
:1010AB0074FF9FF0E49E9002E9F053E1FEC295E0DD
:1010BB00FAA3E0FB7C007D37FFAE021201FEEE903F
:1010CB0002BEF09002BCE0FDAF03AE021201FEEED9
:1010DB00049002BFF09002BEE0FFC374FF9F90022A
:1010EB00A6F0EFF404FFC374819F9002C0F090024E
:1010FB00C1E4F09002C3F0438F0875EC00D007D029
:10110B0006D005D004D003D002D001D000D0D0D06F
:10111B0082D083D0F0D0E03243E10175F680C2EF8C
:10112B0022A2AF9200C2AF75C7AA75C75543A38061
:10113B00A20092AFEF540FF5E8C2EFD2EE20EEFD16
:10114B00C2EFAFC3EF75F010A4FFE5C2540F7C00E4
:10115B002FFFEC35F0FEA2AF9200C2AF75C7AA7598
:10116B00C75553A37FA20092AF22C0E0C0F0C0834B
:10117B00C082C0D075D000C000C001C002C003C087
:10118B0004C005C006C00731AFD007D006D005D0CC
:10119B0004D003D002D001D000D0D0D082D083D0E5
:1011AB00F0D0E0329002A3E024FE601604703853B6
:1011BB008FF77586C8438F08D2029002A3E004F024
:1011CB008025538FF77586B8438F08C2029002C1F2
:1011DB00E004F0E0C3943C4008E4F09002C3E00468
:1011EB00F09002A3E014F0538FEF22E4F5B175B247
:1011FB00FF7580CC75B30275B47D7590F875A09FA3
:10120B00F5ACF5AD75B0FF22A2AF9200C2AF75C7BA
:10121B00AA75C755439610A20092AFA2AF9200C217
:10122B00AF75C7AA75C755439604A20092AFA2AF7C
:10123B009200C2AF75C7AA75C7555396FDA200920F
:10124B00AFA2AF9200C2AF75C7AA75C75553A37FA4
:10125B00A20092AFA2AF9200C2AF75C7AA75C755D5
:10126B00539FFEA20092AFA2AF9200C2AF75C7AA66
:10127B0075C7555397DFA20092AF22A2AF9200C25F
:10128B00AF75C7AA75C755439620A20092AFA2AF00
:10129B009200C2AF75C7AA75C7555396FBA20092B1
:1012AB00AFA2AF9200C2AF75C7AA75C7555396FDD3
:1012BB00A20092AFA2AF9200C2AF75C7AA75C75575
:1012CB0053A37FA20092AFA2AF9200C2AF75C7AA81
:1012DB0075C755539FFEA20092AFA2AF9200C2AF4B
:1012EB0075C7AA75C7555396DFA20092AF22758FAB
:1012FB000B7586C8439C04D2AF2275E90675EA01CB
:10130B00439B02D2AF22D28AD28BD2AAD2AF227502
:10131B00E801C2EFD2EE22C0E0C0F0C083C082C0B1
:10132B00D075D000C004C006C007AFC3EF75F01076
:10133B00A4FFE5C2540F7C002FFEEC35F090026049
:10134B00F0A3CEF0C2EFD007D006D004D0D0D0821D
:10135B00D083D0F0D0E03275C7AA75C75553A5FE20
:10136B0075C7AA75C755539FFE22AD07AC0671B260
:10137B0075AF22ECF5A7AF058FA675AEFF75C7AAA3
:10138B0075C75543A40180CFAB07AA0671B275AFE1
:10139B0021EAF5A7AF038FA6AF058FAE75C7AA7568
:1013AB00C75543A40180B075C7AA75C755439F01A4
:1013BB0075C7AA75C75543A5012290032BEEF0A361
:1013CB00EFF0A3ECF0A3EDF0C2AF719390032CE020
:1013DB002401FF90032BE03400FE90032DE0FD7100
:1013EB0093D2AF22900321EBF0A3EAF0A3E9F0A391
:1013FB00EDF07F007E407175E4A3F0900324E0FFD5
:10140B00A3E0FEC39F5035EE75F002A42400FFE568
:10141B00F03440FE900321E0FBA3E0FAA3E0F99047
:10142B000325E075F002A4F58285F083120226FDF8
:10143B00ACF071C5900325E004F080BF227F007EE5
:10144B004071757F01227B017A0279A87D0A809415
:10145B0091517B017A0279A87D0A900310EBF0A3DE
:10146B00EAF0A3E9F0A3EDF0E4A3F0A3F0900314EA
:10147B00F0A3F0900313E0FFA3E0FCA3E0FDC39FF8
:10148B00EC94005046ED25E0FFEC33FEE42FFFEE2D
:10149B003440FE91D7AC06AD07900315E025E0FF75
:1014AB00900314E033FE900310E0FBA3E0FAA3E0FB
:1014BB00F98F828E83EC8DF012027D900315E00480
:1014CB00F07006900314E004F080A822AD07AC0680
:1014DB00C2AF91F9AB07ED2401FFE43EFE91F97E1B
:1014EB0000EFFE7C00E42BFFEC3EFED2AF228F829E
:1014FB008E83E493FF227F007E4091F9900333EFBC
:10150B00F07F0291F9900334EFF0900333E0640223
:10151B0060037F00227F01229003357402F07F006D
:10152B007E4071757B017A03793590030E7402F05E
:10153B00E4FDFCB1437F0122900309EBF0A3EAF039
:10154B00A3E9F0A3ECF0A3EDF0E490030FF0F0901F
:10155B00030EE0FFA3E0FEC39F503890030DE02481
:10156B0000FD90030CE03440FCEE7E002DFFEE3CC2
:10157B00FE900309E0FBA3E0FAA3E0F990030FE070
:10158B00F58275830012019DFD719390030FE004AA
:10159B00F080BC22900302EBF0A3EAF0A3E9F0A3E6
:1015AB00ECF0A3EDF0E4900308F0F0900307E0FFFC
:1015BB00A3E0FEC39F5038900306E02400FD900388
:1015CB0005E03440FCEE7E002DFFEE3CFE91F990E1
:1015DB000302E0FBA3E0FAA3E0F9900308E0F58235
:1015EB00758300EF1201DC900308E004F080BC224D
:1015FB00ED4C6018120184FF90031BE02FF0740177
:10160B0029F9E43AFAED1D70011C80E490031BE00C
:10161B00FF22EF1FAC0670011E4C70F622C2947FA6
:10162B00037E00D11DD293D29422900254EFF090FE
:10163B000256EBF0A3EAF0A3E9F0F16E900254E04E
:10164B00FF25E0FFF137EF700280D2AF05F137EFE6
:10165B00700280C9E490025AF0A3F0900259E0FFA7
:10166B00C390025BE09F7480F890025AE06480980C
:10167B00502B900256E0FBA3E475F001120210A967
:10168B00F0FA120184FFF137EF7002809090025B49
:10169B00E004F0700690025AE004F080BEC128907E
:1016AB000259EFF090025BEBF0A3EAF0A3E9F0F143
:1016BB006E900259E0FF25E0FFF137EF7002C12871
:1016CB00AF05F137EF7002C128F16E900259E0FFC0
:1016DB0025E004FFF137EF7002C128E490025FF0C0
:1016EB0090025EE014FFA3E0C39F50207F01F183C3
:1016FB0090025BE0FBA3E475F001120210A9F0FA73
:10170B00EF1201CA90025FE004F080D4E4FFF18392
:10171B0090025BE0FBA3E475F001120210A9F0FA52
:10172B00EF1201CA43B41053B3EFC128E4FEEF30FC
:10173B00E704D2948002C294D293C293EF25E0FFC8
:10174B000EEEB408E953B4EF43B310D293A294E472
:10175B0033FEC29343B41053B3EF70047F01800286
:10176B007F0022D294D2937F0A7E00D11DC2947F38
:10177B000A7E00D11DC29322AD07E4FB53B4EF43A5
:10178B00B3107F01FED11DE4FFD293EB25E0FB30BC
:10179B0094034401FBC2930FEFB408ED43B4105311
:1017AB00B3EFED6004C2948002D294D2937F017E9A
:1017BB0000D11DC29353B4EF43B310AF03227B018F
:1017CB007A03793990025E7401F07D107F18D1AAEB
:1017DB00900339E054FBF07B017A0379399002597D
:1017EB007401F07D107F18C135900338741DF0E43F
:1017FB00900337F0900338E0FF900337E0C39F501E
:10180B0032E0FF25E024C8F582E43404F583E49349
:10181B00FDEF75F002A424C9F9740435F0FA7BFFCF
:10182B009002597401F07F18121635900337E004BB
:10183B00F080C1227B017A02798290025E7403F000
:10184B007D157F180216AA90000B12038B53B1BFA4
:10185B0053B2BF75984243878053C4F843C420905A
:10186B00000BE0F8A3E0F9A3E0FAA3E0FB7F407ED6
:10187B00427D0F7C001202E6C374FF9FFF74FF9E34
:10188B00FEE49DFDE49CFC78081203788FC6900063
:10189B000BE0F8A3E0F9A3E0FAA3E0FB7F407E4264
:1018AB007D0F7C001202E6C374FF9FFF74FF9EFE48
:1018BB00E49DFDE49CFCEFE48FC543C40822309803
:1018CB00FDAF99C29822AD07AC06C299ECF59930E1
:1018DB0099FDC299AF058F993099FD2290032F1274
:1018EB00038BD2FE90032FE0F8A3E0F9A3E0FAA359
:1018FB00E0FB7F407E427D0F7C001202E6C374FF4B
:10190B009FFF74FF9EFEE49DFDE49CFC7808120390
:10191B00788FC690032FE0F8A3E0F9A3E0FAA3E0D9
:10192B00FB7F407E427D0F7C001202E6C374FF9F5B
:10193B00FF74FF9EFEE49DFDE49CFCEFE48FC5432A
:10194B00C40822C2F98F9A30F9FD22AD07AC06C24A
:10195B00F9ECF59A30F9FDC2F9AF058F9A30F9FD24
:10196B00229002A7E0FFB418004002614990197F52
:10197B00F82828730219EA021A03021A0D021A2216
:10198B00021A2C021A41021A4B021A64021A6E0234
:10199B001A83021A8D021AA2021AAC021AC1021A77
:1019AB00CB021AE4021AEE021B03021B0D021B22CE
:1019BB00021B2C021B410219C70219E09002A2E084
:1019CB0030E008C283D287C2808002D2809002A608
:1019DB00E0F5866149D2809002C0E0F586614990BE
:1019EB0002A2E030E008D280D287C2858002D28585
:1019FB009002A6E0F5866149D2859002C0E0F5869B
:101A0B0061499002A2E030E004C2848002D284904B
:101A1B0002A6E0F5866149D2849002C0E0F58661AA
:101A2B00499002A2E030E004C2818002D281900290
:101A3B00A6E0F5866149D2819002C0E0F586614946
:101A4B009002A2E030E008C287D282C2858002D227
:101A5B00859002A6E0F5866149D2859002C0E0F53B
:101A6B008661499002A2E030E004C2848002D284F5
:101A7B009002A6E0F5866149D2849002C0E0F5861B
:101A8B0061499002A2E030E004C2818002D28190D1
:101A9B0002A6E0F5866149D2819002C0E0F586612D
:101AAB00499002A2E030E004C2808002D280900212
:101ABB00A6E0F5866149D2809002C0E0F586807E73
:101ACB009002A2E030E008C282D283C2858002D2AB
:101ADB00859002A6E0F5868065D2859002C0E0F580
:101AEB0086805B9002A2E030E004C2848002D28444
:101AFB009002A6E0F5868046D2849002C0E0F5867F
:101B0B00803C9002A2E030E004C2818002D281903E
:101B1B0002A6E0F5868027D2819002C0E0F5868090
:101B2B001D9002A2E030E004C2808002D2809002BD
:101B3B00A6E0F5868008D2809002C0E0F586EF2003
:101B4B00E0089002A7E004F080219002A2E075F07B
:101B5B000584AFF0BF04089002A7E004F080069064
:101B6B0002A7E014F09002A2E004F09002A7E0C3F9
:101B7B0094184008E4F09002C3E004F022300216FF
:101B8B009002C1E075F0058404FD9002BFE0FC906B
:101B9B0002BCE0C39CFE300227E4FF9002BFE0FCD6
:101BAB00EFC39C500AED90001E93F5800F80ECE480
:101BBB00FFEFC39E50E090001EE493F5800F80F181
:101BCB0022E490000BF0780C7C007D017BFF7A0007
:101BDB00793EFE7F0712015E78137C007D017BFF4F
:101BEB007A0079457E007F0412015E78177C007DB8
:101BFB00017BFF7A0079497E007F0212015E900023
:101C0B00197482F0781A7C007D017BFF7A00794B86
:101C1B007E007F0712015E7F0891BC90000BEFF0F6
:101C2B007F10B11790000BEFF0E4FD7F47120E43CE
:101C3B0090000BEFF07D017F02120C5E90000BEF1A
:101C4B00F0900019E0FF918890000BEFF07B017A88
:101C5B0000790C120F037B017A007913B1737B01AE
:101C6B007A007917120FD5E49002E6F0A3F07B010E
:101C7B007A00791A120D7C90000BE0FF2290002164
:101C8B00EFF0FB7D257F01120D609002567401F081
:101C9B00A37400F0A37422F07B017D257F01120C4D
:101CAB0041900021E0FFA3E0B507037F01227F00F5
:101CBB0022900021EFF0A374FFF09002567401F014
:101CCB00A37400F0A37422F07B017D577F01120CEB
:101CDB0041900022E054F3FF900021E04FA3F0E08D
:101CEB00FB7D577F01120D609002567401F0A374B7
:101CFB0000F0A37422F07B017D0F7F01120C419049
:101D0B000022E0B413037F01227FFF22900021EF1A
:101D1B00F0A374FFF09002567401F0A37400F0A3CB
:101D2B007422F07B017D237F01120C41900021E096
:101D3B004488FF900023F0FB7D237F01120D609000
:101D4B0002567401F0A37400F0A37422F07B017DA2
:101D5B00237F01120C41900023E0FF900022E0B59D
:101D6B0007037F01227FFF22900021EBF0A3EAF013
:101D7B00A3E9F0120184FB7D087F01120D60900036
:101D8B0021E0FBA3E0FAA3E0F9120184FF90032604
:101D9B00F0E4900328F0EF54C060037440F090031C
:101DAB0026E054306007900328E04410F0900001C7
:101DBB0012019DFB7D097F01120D60900021E0FB5C
:101DCB00A3E0FAA3E0F990000212019DFB7D0A7FCC
:101DDB0001120D60900021E0FBA3E0FAA3E0F99063
:101DEB00000312019DFB7D0B7F01020D60E4FFD10F
:101DFB00C29002E4EFF09002E6E07002A3E07043C1
:101E0B00EFD39401402F9002DAE004F070069002B9
:101E1B00D9E004F0D39002DAE094149002D9E09464
:101E2B0000400FE4F0A3F09002E6F0A304F0EF13F0
:101E3B00FF227F0022E49002D9F0A3F09002E6F09B
:101E4B00A304F0EFD3940250037F0022EFD3940549
:101E5B0050037F01227F0222229002377401F0A3EC
:101E6B007400F0A37447F0A37401F0A37400F0A303
:101E7B007487F07B017A007907120B4A9000C7EF49
:101E8B00F0D1DF9002DFEEF0A3EFF0D394C8EE9425
:101E9B00004003120FA89002E3E004F0E0C3947833
:101EAB00400CB1F89002E8EFF0E49002E3F09002FE
:101EBB00DFE0FEA3E0FF229002567401F0A3740052
:101ECB00F0A374C8F07B017D6F7F01120C41900071
:101EDB00C8E0FF229002567401F0A37400F0A374C3
:101EEB00C8F07B037D957F01120C419000C9E07D0A
:101EFB0000FCA3E07E007810C333CE33CED8F9FFBD
:101F0B00EE4CFEEF4DFF9000C8E0FDEEEF4DFDAC4B
:101F1B0006900329E0FEA3E0FFC3ED9FFBEC9EFAC6
:101F2B00D3EB9464EA9400400122900329ECF0A3D4
:101F3B00EDF0AE04FF22E4900007F09002D8E064CD
:101F4B000160030220059002DEE004F070069002AF
:101F5B00DDE004F09002DDE0FEA3E0FFC3940AEEA7
:101F6B00940050229002E5E0B4011BE4F09002E2F1
:101F7B00E02FF09002E1E03EF0E49002DDF0A3F000
:101F8B009002DBE004F07F01122269900007EFF072
:101F9B009002DDE0FEA3E0FFC3940AEE9400500F25
:101FAB00C39002E2E094649002E1E0940040099057
:101FBB000007E0C394024012C3EF940AEE94004072
:101FCB0039900007E0D394014030120016E49002E0
:101FDB00D8F09002DDF0A3F09002E1F0A3F09000B6
:101FEB0007E0D39400400DE4FF122269900007EF45
:101FFB00F07F00229002DBE0FF227F002290033A69
:10200B0074FFF09002567401F0A37403F0A3743ABA
:10201B00F07B017D687F01120C4190033AE044A5EF
:10202B00F0E0FB7D687F01120D609002567401F0A9
:10203B00A37403F0A3743AF07B017D247F01120C8F
:10204B004190033AE04480F0E0FB7D247F01120DC8
:10205B00607F01229002F9EBF0A3EAF0A3E9F09084
:10206B0002567401F0A37402F0A374FCF07B017DA3
:10207B00277F01120C419002FCE0540F640F707526
:10208B007B0190025604F0A37402F0A374FCF07B66
:10209B00067DA87F01120C419002FDE0FE9002FC30
:1020AB00E07C002400FFEC3EF99002F9E0FBA3E09A
:1020BB00FAA3E0C98FF012025E9002FFE0FE9002DD
:1020CB00FEE02400FFEC3EFE9002F9E0FBA3E0FAF9
:1020DB00A3E0F9900002EE8FF012027D900301E075
:1020EB00FE900300E02400FFEC3E9000048FF01202
:1020FB00027D7F01227F00229002567401F0A374AF
:10210B0002F0A37452F07B017D067F01120C41900B
:10211B000252E0FF54066041EF30E10C900328E0DF
:10212B00FF900326E05F6013900252E030E22A90AA
:10213B000328E0FF900326E05F601E900326E0FF7C
:10214B00F4FE900328E05EFEEF54AF4E900326F0B2
:10215B00FEFB7D087F01120D60900252E0FE30E124
:10216B00037F0122EE30E2037F02227F00229002E6
:10217B0034EEF0A3EFF0E4F9A3F0A3F0A3EEF0A399
:10218B00EFF02400FFE43EC313FEEF13FFA3EEF0CA
:10219B00A3EFF090023AE0FCA3E0FDFFAE041201C6
:1021AB00FE900234E0FAA3E0FBC39FEA9E5011902D
:1021BB00023AE0FFA3E0900238CFF0A3EFF0800FDC
:1021CB0090023AE0FFA3E0900236CFF0A3EFF0903D
:1021DB000236E0FEA3E0FFC3900239E09FFF9002BE
:1021EB0038E09EFEEF64014E7047900236E0FCA390
:1021FB00E0FDFFAE041201FEC3EB9FFBEA9EFAA3C8
:10220B00E0FCA3E0FDFFAE041201FE900234E0FC03
:10221B00A3E0FDC3EF9DFFEE9CFED3EF9BEE9A4038
:10222B0007A3E0FEA3E0FF22900238E0FEA3E0FF4D
:10223B0022900236E0FEA3E0FF900239E02FFF90E0
:10224B000238E03EC313FEEF13FF90023AEEF0A309
:10225B00EFF009E964C86002219EE4FEFF22EF70F3
:0B226B0004900327F0900327E0FF22FF
:00000001FF
