:0D00000002028132C2CF327F002222813005
:0200130080EE7D
:0B001B0080107F367EC7DEFEDFFC2277
:0C002B0080D7C0E0E4F58BF58DD0E0320A
:10003B00819B90009AE0A3F090009A6002E4F0227A
:0F004B0000007F247E057DD3DDFEDEFCDFFA2280
:10005B000208845389F0438901538EF7758ACB7557
:10006B008CFAD28CD2A9D2AF22916D113D90009B0C
:09007B00E030E7F7C2AF80F32288
:10008B00A1ABBB010689828A83E0225002E722BB27
:10009B00FE02E32289828A83E49322BB010CE58270
:1000AB0029F582E5833AF583E0225006E92582F8AB
:1000BB00E622BBFE06E92582F8E222E58229F582DB
:1000CB00E5833AF583E49322BB010689828A83F0A8
:1000DB00225002F722BBFE01F322F8BB010DE58291
:1000EB0029F582E5833AF583E8F0225006E925826B
:1000FB00C8F622BBFE05E92582C8F222EF8DF0A4DB
:10010B00A8F0CF8CF0A428CE8DF0A42EFE22A3F85D
:10011B00E0C5F025F0F0E582158270021583E0C88A
:10012B0038F0E822BB0110E58229F582E5833AF528
:10013B0083E0F5F0A3E0225009E92582F886F00868
:10014B00E622BBFE0AE92582F8E2F5F008E222E599
:10015B00832AF583E993F5F0A3E99322F8BB011108
:10016B00E58229F582E5833AF583E8F0E5F0A3F023
:10017B00225009E92582C8F608A6F022BBFE09E940
:10018B002582C8F2E5F008F22275F008758200EFBF
:10019B002FFFEE33FECD33CDCC33CCC58233C582AE
:1001AB009BED9AEC99E58298400CF582EE9BFEED67
:1001BB009AFDEC99FC0FD5F0D6E4CEFBE4CDFAE436
:1001CB00CCF9A88222B800C1B90059BA002DEC8B2A
:1001DB00F084CFCECDFCE5F0CBF97818EF2FFFEE06
:1001EB0033FEED33FDEC33FCEB33FB10D7039940BF
:1001FB0004EB99FB0FD8E5E4F9FA227818EF2FFFFF
:10020B00EE33FEED33FDEC33FCC933C910D7059B40
:10021B00E99A4007EC9BFCE99AF90FD8E0E4C9FA9C
:10022B00E4CCFB2275F010EF2FFFEE33FEED33FD28
:10023B00CC33CCC833C810D7079BEC9AE899400A4B
:10024B00ED9BFDEC9AFCE899F80FD5F0DAE4CDFBC9
:10025B00E4CCFAE4C8F922E8600FECC313FCED130D
:10026B00FDEE13FEEF13FFD8F122ECF0A3EDF0A39C
:10027B00EEF0A3EFF022787FE4F6D8FD9000007F3C
:10028B00FF7E03E4F0A3DFFCDEFA7581200202D6C9
:10029B00020074E493A3F8E493A34003F68001F205
:1002AB0008DFF48029E493A3F85407240CC8C33364
:1002BB00C4540F4420C8834004F456800146F6DF33
:1002CB00E4800B010204081020408090031BE47EA5
:1002DB00019360BCA3FF543F30E509541FFEE49328
:1002EB00A360010ECF54C025E060A840B8E493A3EF
:1002FB00FAE493A3F8E493A3C8C582C8CAC583CA1A
:10030B00F0A3C8C582C8CAC583CADFE9DEE780BED1
:10031B00420096000044009000000000440098004A
:10032B0000000042009C0000C1014100740041002C
:10033B008A034100738F41008CF041008B0F410009
:10034B00750041008D004100720000100111001278
:10035B00001300180019001F002047210022002362
:10036B000024002500260027002E00300032003329
:10037B000034003600370038003A003B003C003DAB
:10038B00003E003F00900099E004F0E075F005841A
:10039B00E5F07005A3E04420F0900099E075F019AA
:1003AB0084E5F07005A3E04440F0900099E0B4328E
:1003BB0007E4F0A3E04480F02290009AE04401F0BF
:1003CB00900098E004F0E020E00790009AE04402EF
:1003DB00F0900098E075F00584E5F0700790009AB6
:1003EB00E04404F0900098E075F00A84E5F07007A3
:1003FB0090009AE04408F0900098E0B4140BE4F0FD
:10040B0090009AE04410F07190D3900097E0940024
:10041B00900096E09400400CA3E024FFF09000962F
:10042B00E034FFF022C0E0C0F0C083C082C0D075C2
:10043B008ACB758CFA71C490009DE004F070069025
:10044B00009CE004F0B284D0D0D082D083D0F0D026
:10045B00E03253890F438910538EF7D28ED2ABD231
:10046B00AF22B145114B80FE900074E0C394014064
:10047B0019C287C282C283D292D291D290D280C249
:10048B0001538FF7E4F5EC439B0243870280D9229B
:10049B00C0E0C0F0C083C082C0D075D000C000C027
:1004AB0001C002C003C004C005C006C007AFECEF1B
:1004BB0024FE705FB13CD2957F04B162EEC4F85458
:1004CB00F0C868FEEFC4540F48FF90008EEEF0A307
:1004DB00EFF0C3E49FF074019E90008EF053E1FEA9
:1004EB00C295E0FEA3E0FF7C007D0F3107EE90008C
:1004FB008BF0E0FFF404FEC374809E900073F0C396
:10050B0074FF9F90008CF0900075E4F0900074F0F5
:10051B00438F0875EC00D007D006D005D004D0036C
:10052B00D002D001D000D0D0D082D083D0F0D0E098
:10053B003243E10175F690C2EF2275B12075B2DD41
:10054B007580EEE4F5B375B47F7590F875A09FF5E3
:10055B00ACF5AD75B0FF22A2AF9200C2AF75C7AAC2
:10056B0075C75543A380A20092AFEF540FF5E8C2B5
:10057B00EFD2EE20EEFDC2EFAFC3EF75F010A4FF8C
:10058B00E5C2540F7C002FFFEC35F0FEA2AF9200BA
:10059B00C2AF75C7AA75C75553A37FA20092AF22EE
:1005AB00C0E0C0F0C083C082C0D075D000C000C016
:1005BB0001C002C003C004C005C006C007538FEFC3
:1005CB00539BFDB1EBD007D006D005D004D003D0A0
:1005DB0002D001D000D0D0D082D083D0F0D0E03286
:1005EB00900075E0FFB418004002E1449005FEF85E
:1005FB0028287302065E02066C020676020680024B
:10060B00068A02069402069E0206AC0206B6020693
:10061B00C00206CA0206D40206DE0206E80206F291
:10062B0002070002070A02071402071E020728022C
:10063B00073202073C020646020654C283D287C227
:10064B0080900073E0F586E144D28090008CE0F559
:10065B0086E144D280D287C292900073E0F586E1A6
:10066B0044D29290008CE0F586E144C291900073E5
:10067B00E0F586E144D29190008CE0F586E144C22E
:10068B0090900073E0F586E144D29090008CE0F5F9
:10069B0086E144C287D282C292900073E0F586E174
:1006AB0044D29290008CE0F586E144C291900073A5
:1006BB00E0F586E144D29190008CE0F586807AC219
:1006CB0090900073E0F5868070D29090008CE0F5EE
:1006DB00868066C280900073E0F586805CD2809045
:1006EB00008CE0F5868052C282D283C29290007356
:1006FB00E0F5868044D29290008CE0F586803AC279
:10070B0091900073E0F5868030D29190008CE0F5EB
:10071B00868026C290900073E0F586801CD2909064
:10072B00008CE0F5868012C280900073E0F5868025
:10073B0008D28090008CE0F586EF20E008900075E1
:10074B00E004F0801C900072E004F0E0C3940540DC
:10075B000AE4F0900075E004F08006900075E01458
:10076B00F0900075E0C394184008E4F0900074E03A
:10077B0004F022A2AF9200C2AF75C7AA75C755434A
:10078B009610A20092AFA2AF9200C2AF75C7AA7526
:10079B00C755439604A20092AFA2AF9200C2AF75A9
:1007AB00C7AA75C7555396FDA20092AFA2AF920090
:1007BB00C2AF75C7AA75C75553A37FA20092AFA24C
:1007CB00AF9200C2AF75C7AA75C755539FFEA20063
:1007DB0092AFA2AF9200C2AF75C7AA75C755539718
:1007EB00DFA20092AF22A2AF9200C2AF75C7AA756B
:1007FB00C755439620A20092AFA2AF9200C2AF752D
:10080B00C7AA75C7555396FBA20092AFA2AF920031
:10081B00C2AF75C7AA75C7555396FDA20092AFA27A
:10082B00AF9200C2AF75C7AA75C75553A37FA2007D
:10083B0092AFA2AF9200C2AF75C7AA75C755539FAF
:10084B00FEA20092AFA2AF9200C2AF75C7AA75C746
:10085B00555396DFA20092AF22758F0B7586FE4320
:10086B009C04D2AF2275E90875EA02439B02D2AF12
:10087B002275E801C2EFD2EE22C0E0C0F0C083C007
:10088B0082C0D075D000C004C006C007AFC3EF75DF
:10089B00F010A4FFE5C2540F7C002FFEEC35F09056
:1008AB0000D6F0A3CEF0C2EFD007D006D004D0D044
:1008BB00D082D083D0F0D0E03275C7AA75C755531C
:1008CB00A5FE75C7AA75C755539FFE22AD07AC068B
:1008DB00311475AF22ECF5A7AF058FA675AEFF757A
:1008EB00C7AA75C75543A40180CFAB07AA0631141D
:1008FB0075AF21EAF5A7AF038FA6AF058FAE75C70E
:10090B00AA75C75543A40180B075C7AA75C75543CF
:10091B009F0175C7AA75C75543A501229000E2EE4A
:10092B00F0A3EFF0A3ECF0A3EDF0C2AF11F5900044
:10093B00E3E02401FF9000E2E03400FE9000E4E0ED
:10094B00FD11F5D2AF229000DDEBF0A3EAF0A3E9A5
:10095B00F0A3EDF07F007E4011D7E4A3F09000E010
:10096B00E0FFA3E0FEC39F5035EE75F002A4240018
:10097B00FFE5F03440FE9000DDE0FBA3E0FAA3E0DE
:10098B00F99000E1E075F002A4F58285F083120185
:10099B002FFDACF031279000E1E004F080BF227F07
:1009AB00007E4011D77F01227B017A0079767D0A88
:1009BB00809431B37B017A0079767D0A9000C6EB87
:1009CB00F0A3EAF0A3E9F0A3EDF0E4A3F0A3F09019
:1009DB0000CAF0A3F09000C9E0FFA3E0FCA3E0FD88
:1009EB00C39FEC94005046ED25E0FFEC33FEE42F63
:1009FB00FFEE3440FE5139AC06AD079000CBE0253D
:100A0B00E0FF9000CAE033FE9000C6E0FBA3E0FAE3
:100A1B00A3E0F98F828E83EC8DF01201679000CBEF
:100A2B00E004F070069000CAE004F080A822AD0745
:100A3B00AC06C2AF515BAB07ED2401FFE43EFE51A8
:100A4B005B7E00EFFE7C00E42BFFEC3EFED2AF2280
:100A5B008F828E83E493FF227F007E40515B900058
:100A6B00F1EFF07F02515B9000F2EFF09000F1E0BC
:100A7B00640260037F00227F01229000F37402F076
:100A8B007F007E4011D77B017A0079F39000BD7413
:100A9B0002F0E4FDFC51A57F01229000B8EBF0A31E
:100AAB00EAF0A3E9F0A3ECF0A3EDF0E49000BEF0C4
:100ABB00F09000BDE0FFA3E0FEC39F50389000BC58
:100ACB00E02400FD9000BBE03440FCEE7E002DFFE7
:100ADB00EE3CFE9000B8E0FBA3E0FAA3E0F9900037
:100AEB00BEE0F5827583001200A6FD11F59000BEE5
:100AFB00E004F080BC229000B1EBF0A3EAF0A3E994
:100B0B00F0A3ECF0A3EDF0E49000B7F0F09000B69A
:100B1B00E0FFA3E0FEC39F50389000B5E02400FD3A
:100B2B009000B4E03440FCEE7E002DFFEE3CFE5115
:100B3B005B9000B1E0FBA3E0FAA3E0F99000B7E013
:100B4B00F582758300EF1200E59000B7E004F080AA
:100B5B00BC22ED4C601812008DFF9000D1E02FF0FD
:100B6B00740129F9E43AFAED1D70011C80E4900040
:100B7B00D1E0FF229000E612027553B1BF53B2BF12
:100B8B0075985243878053C4F843C4209000E6E025
:100B9B00F8A3E0F9A3E0FAA3E0FB7F407E427D0FD0
:100BAB007C001201D0C374FF9FFF74FF9EFEE49D77
:100BBB00FDE49CFC78081202628FC69000E6E0F818
:100BCB00A3E0F9A3E0FAA3E0FB7F407E427D0F7C1C
:100BDB00001201D0C374FF9FFF74FF9EFEE49DFDC6
:100BEB00E49CFCEFE48FC543C408223098FDAF9919
:100BFB00C29822C2998F993099FD229000EEEBF0AA
:100C0B00A3EAF0A3E9F0E4FEEEC39D50199000EEC9
:100C1B00E0FBA3E0FAA3E0F98E827583001200A635
:100C2B00FF71FE0E80E22290009FECF0A3EDF0A38B
:100C3B00EAF0A3EBF0E4FEFD0E2440F582E4340071
:100C4B00F58374AAF00E74402401F582E43400F5A8
:100C5B008374AAF00E74402402F582E43400F58309
:100C6B00EFF00E74402403F582E43400F583E4F0D6
:100C7B0090009FE0FF0E74402404F582E43400F5ED
:100C8B0083EFF09000A0E0FF0E74402405F582E4A2
:100C9B003400F583EFF09000A1E0FF0E74402406C2
:100CAB00F582E43400F583EFF09000A2E0FF0E74C0
:100CBB00402407F582E43400F583EFF09000A3E0C5
:100CCB00FF0E74402408F582E43400F583EFF090B6
:100CDB0000A4E0FF0E74402409F582E43400F58390
:100CEB00EFF09000A5E0FF0E7440240AF582E43487
:100CFB0000F583EFF09000A6E0FF0E7440240BF597
:100D0B0082E43400F583EFF09000A7E0FF0E74400F
:100D1B00240CF582E43400F583EFF09000A8E0FF9B
:100D2B000E7440240DF582E43400F583EFF0EE24CD
:100D3B00FC900043F0E4FFEFC39E501074402FF57E
:100D4B0082E43400F583E02DFD0F80EBAF05AD069B
:100D5B000E74402DF582E43400F583EFF07B017ABD
:100D6B00007940AF06AD078106AD07AC06C299EC22
:100D7B00F5993099FDC299AF058F993099FD229065
:100D8B0000EA120275D2FE9000EAE0F8A3E0F9A3A4
:100D9B00E0FAA3E0FB7F407E427D0F7C001201D086
:100DAB00C374FF9FFF74FF9EFEE49DFDE49CFC78E3
:100DBB00081202628FC69000EAE0F8A3E0F9A3E004
:100DCB00FAA3E0FB7F407E427D0F7C001201D0C373
:100DDB0074FF9FFF74FF9EFEE49DFDE49CFCEFE41B
:100DEB008FC543C40822C2F98F9A30F9FD22AD0793
:100DFB00AC06C2F9ECF59A30F9FDC2F9AF058F9A42
:100E0B0030F9FD229000F6741DF0E49000F5F0909F
:100E1B0000F6E0FF9000F5E0C39F5031E0FF25E0C6
:100E2B002456F582E43403F583E493FDEF75F00269
:100E3B00A42457F9740335F0FA7BFF9000AE7401CC
:100E4B00F07F18D1599000F5E004F080C222900099
:100E5B00A9EFF09000ABEBF0A3EAF0A3E9F0F19D62
:100E6B009000A9E0FF25E0FFF166EF70028052AF22
:100E7B0005F166EF70028049E49000AFF0A3F090AB
:100E8B0000AEE0FFC39000B0E09F7480F89000AF1D
:100E9B00E0648098502B9000ABE0FBA3E475F0016D
:100EAB00120119A9F0FA12008DFFF166EF700280A2
:100EBB00109000B0E004F070069000AFE004F080FA
:100ECB00BEC2947F037E00F1B2D293D294229000E3
:100EDB00BFEFF09000C1EBF0A3EAF0A3E9F0F19DB6
:100EEB009000BFE0FF25E0FFF166EF700280D2AF0C
:100EFB0005F166EF700280C9F19D9000BFE0FF2500
:100F0B00E004FFF166EF700280B7E49000C5F0904B
:100F1B0000C4E014FFA3E0C39F50207F01F1FA90BF
:100F2B0000C1E0FBA3E475F001120119A9F0FAEF7F
:100F3B001200D39000C5E004F080D4E4FFF1FA90E6
:100F4B0000C1E0FBA3E475F001120119A9F0FAEF5F
:100F5B001200D343B41053B3EFC1CCE4FEEF30E730
:100F6B0004D2948002C294D293C293EF25E0FF0E79
:100F7B00EEB408E953B4EF43B310D293A294E43325
:100F8B00FEC29343B41053B3EF70047F0180027F12
:100F9B000022D294D2937F0A7E00F1B2C2947F0AD0
:100FAB007E00F1B2C29322EF1FAC0670011E4C7093
:100FBB00F6227B017A0079F79000C47401F07D1062
:100FCB007F18D1D99000F7E054FBF07B017A0079C0
:100FDB00F79000AE7401F07D107F18C1597B017A38
:100FEB000079209000C47403F07D157F18C1D9AD32
:100FFB0007E4FB53B4EF43B3107F01FE120FB2E4CF
:10100B00FFD293EB25E0FB3094034401FBC2930F1B
:10101B00EFB408ED43B41053B3EFED6004C294800A
:10102B0002D294D2937F017E00120FB2C29353B4BB
:07103B00EF43B310AF0322E5
:00000001FF
