:0A000000020397020801D201222238
:06000B00020FB9C2CF3262
:06001300020FF9C20122F8
:10001B000210B3007F017E86DEFEDFFC227F002212
:0E002B0080E1758F0B7586FE439C04D2AF22D8
:10003B000210BD05A41F3005FF0031360593118159
:10004B00013C8215480417D288D289D2A8D2AF229C
:10005B00021510900253EBF0EF60117B017A0279DD
:10006B00539002597401F07F18120E7C7F0122D23B
:10007B008AD28BD2AAD2AF2275E801C2EFD2EE227E
:10008B000211B1E709F608DFFA8046E709F208DF4B
:10009B00FA803E88828C83E709F0A3DFFA8032E393
:1000AB0009F608DFFA8078E309F208DFFA80708836
:1000BB00828C83E309F0A3DFFA806489828A83E070
:1000CB00A3F608DFFA805889828A83E0A3F208DF5F
:1000DB00FA804C80D280FA80C680D4806980F2800E
:1000EB0033801080A680EA809A80A880DA80E28034
:1000FB00CA803389828A83ECFAE493A3C8C582C889
:10010B00CCC583CCF0A3C8C582C8CCC583CCDFE9F2
:10011B00DEE7800D89828A83E493A3F608DFF9EC8E
:10012B00FAA9F0EDFB2289828A83ECFAE0A3C8C519
:10013B0082C8CCC583CCF0A3C8C582C8CCC583CC40
:10014B00DFEADEE880DB89828A83E493A3F208DFAF
:10015B00F980CC88F0EF60010E4E60C388F0ED247F
:10016B0002B4040050B9F582EB2402B4040050AF82
:10017B0023234582239000DE73BB010689828A8389
:10018B00E0225002E722BBFE02E32289828A83E44B
:10019B009322BB010CE58229F582E5833AF583E0D6
:1001AB00225006E92582F8E622BBFE06E92582F8F5
:1001BB00E222E58229F582E5833AF583E49322BBBB
:1001CB00010689828A83F0225002F722BBFE01F3DB
:1001DB0022F8BB010DE58229F582E5833AF583E828
:1001EB00F0225006E92582C8F622BBFE05E92582DE
:1001FB00C8F222EF8DF0A4A8F0CF8CF0A428CE8DFE
:10020B00F0A42EFE22A3F8E0C5F025F0F0E5821550
:10021B008270021583E0C838F0E822BB0110E5823A
:10022B0029F582E5833AF583E0F5F0A3E022500946
:10023B00E92582F886F008E622BBFE0AE92582F85A
:10024B00E2F5F008E222E5832AF583E993F5F0A3C2
:10025B00E99322BB010A89828A83F0E5F0A3F0229D
:10026B005006F709A7F01922BBFE06F3E5F009F3D8
:10027B001922F8BB0111E58229F582E5833AF58352
:10028B00E8F0E5F0A3F0225009E92582C8F608A6AC
:10029B00F022BBFE09E92582C8F2E5F008F22275CF
:1002AB00F008758200EF2FFFEE33FECD33CDCC334C
:1002BB00CCC58233C5829BED9AEC99E58298400CB4
:1002CB00F582EE9BFEED9AFDEC99FC0FD5F0D6E492
:1002DB00CEFBE4CDFAE4CCF9A88222B800C1B90078
:1002EB0059BA002DEC8BF084CFCECDFCE5F0CBF9D9
:1002FB007818EF2FFFEE33FEED33FDEC33FCEB33D1
:10030B00FB10D703994004EB99FB0FD8E5E4F9FAFE
:10031B00227818EF2FFFEE33FEED33FDEC33FCC9E3
:10032B0033C910D7059BE99A4007EC9BFCE99AF976
:10033B000FD8E0E4C9FAE4CCFB2275F010EF2FFFE5
:10034B00EE33FEED33FDCC33CCC833C810D7079B4F
:10035B00EC9AE899400AED9BFDEC9AFCE899F80FB2
:10036B00D5F0DAE4CDFBE4CCFAE4C8F922E8600F6F
:10037B00ECC313FCED13FDEE13FEEF13FFD8F122CC
:10038B00ECF0A3EDF0A3EEF0A3EFF022787FE4F610
:10039B00D8FD9000007FFF7E03E4F0A3DFFCDEFAC4
:1003AB007581200203EC0205BBE493A3F8E493A34D
:1003BB004003F68001F208DFF48029E493A3F8549C
:1003CB0007240CC8C333C4540F4420C8834004F41F
:1003DB0056800146F6DFE4800B0102040810204032
:1003EB0080900431E47E019360BCA3FF543F30E561
:1003FB0009541FFEE493A360010ECF54C025E060A7
:10040B00A840B8E493A3FAE493A3F8E493A3C8C574
:10041B0082C8CAC583CAF0A3C8C582C8CAC583CA65
:10042B00DFE9DEE780BE4202EB00004402E500009C
:10043B0000004402ED000000004202F10000C10187
:10044B00C1024102A4004102BA034102A38F41023F
:10045B00BCF04102BB0F4102A5004102BD004102AD
:10046B00A2004102E2004202D300004202E000007F
:10047B004102DE004102D6004102D2004102DF0000
:10048B004202D700004202DB00004102D5004102CC
:10049B00DD004202D900004203230000410320008B
:1004AB00410322004103210000100111001200132F
:1004BB0000180019001F00204721002200230024F0
:1004CB00002500260027002E0030003200330034B8
:1004DB00003600370038003A003B003C003D003E40
:1004EB00003F009002EEE004F0E075F00584E5F0CB
:1004FB007005A3E04420F09002EEE075F01984E55E
:10050B00F07005A3E04440F09002EEE0B43207E453
:10051B00F0A3E04480F02212140D111EC287C28298
:10052B00C283D292D291D290D280C202121AE6F139
:10053B00D27F007EC27D017C001218561152117AB7
:10054B00F1E8012D9002EFE04401F09002EDE004A0
:10055B00F0E020E0079002EFE04402F09002EDE0C3
:10056B0075F00584E5F070079002EFE04404F0901D
:10057B0002EDE075F00A84E5F070079002EFE044BD
:10058B0008F09002EDE0B4140BE4F09002EFE044BD
:10059B0010F091EED39002ECE094009002EBE0941B
:1005AB0000400CA3E024FFF09002EBE034FFF022BC
:1005BB00E4900006F0B122F1019002F0E030E14C42
:1005CB009002377401F0A37400F0A37402F0A374CB
:1005DB0001F0A37400F0A37404F07B017A0079009E
:1005EB00120B06900000E0FCA3E0FDA3E0FAA3E0F1
:1005FB00FBA3E0FFA3E090000CCFF0A3EFF0E4A38C
:10060B00F0A3F0A3F0A3F07FF11219099002F0E030
:10061B0030E34130013E900006E004F0E0640570E9
:10062B0033F0121E6BA907900000E0FCA3E0FDA3C2
:10063B00E0FAA3E0FBA3E0FFA3E090000CCFF0A354
:10064B00EFF0AF01A3E4F0A3EFF0E4A3F0A3F07F8E
:10065B00F11219099002F0E030E602D1749002F029
:10066B00E020E702A1C2A1C2229002377401F0A3DD
:10067B007400F0A37447F0A37401F0A37400F0A30B
:10068B007487F07B017A007907120B069000C7EF95
:10069B00F01220379002D9EEF0A3EFF0D394C8EE0E
:1006AB0094004002D1D39002DDE004F0E0C39478D3
:1006BB00400D121DE29002E2EFF0E49002DDF090AB
:1006CB0002D9E0FEA3E0FF229002567401F0A3745E
:1006DB0000F0A374C8F07B017D107F01120BFD901D
:1006EB0000C8E04404F0E0FB7D107F01115EE49054
:1006FB000323F0A3F022C2AF9002EFE0A3F090022D
:10070B00EF6002E4F0D2AF22900021EBF0A3EAF00D
:10071B00A3E9F03184FB7D107F01115E900021E095
:10072B00FBA3E0FAA3E0F9900001319DFB7D187F5C
:10073B0001115E900021E0FBA3E0FAA3E0F9900029
:10074B0002319DFB7D197F01115E900021E0FBA31F
:10075B00E0FAA3E0F9900003319DFB7D1A7F0111B4
:10076B005E900021E0FBA3E0FAA3E0F990000431D6
:10077B009DFB7D117F01115E900021E0FBA3E0FA50
:10078B00A3E0F9900005319DFB7D127F01115E9076
:10079B000021E0FBA3E0FAA3E0F9900006319DFBFA
:1007AB007D137F01115EC1D3900021EBF0A3EAF022
:1007BB00A3E9F0A3E0FB7D6B7F01115E900024E0C9
:1007CB00FB7D6C7F01015E5389F0438901438E08E9
:1007DB00758A80758CC1D28CD2A9D2AF2275E908EB
:1007EB0075EA02439B02D2AF2253890F438910D281
:1007FB008ED2ABD2AF22C0E0C0F0C083C082C0D0DB
:10080B0075D000C000C001C002C003C004C005C049
:10081B0006C007C289113DD007D006D005D004D041
:10082B0003D002D001D000D0D0D082D083D0F0D072
:10083B00E032E49000E6F07D3C7F46FE11799000BB
:10084B00E6EFF0BF01229002D2E0701604F0120026
:10085B0006E49002D7F0A3F09002DBF0A3F0900235
:10086B00D5F09002DF7401F09000E6E0FF229000DB
:10087B00E7EEF0A3EFF0A3EDF0E4A3F0A3F0A3F009
:10088B00A3F09001AFF0A3F0900231F0A3F0A3F02E
:10089B007B0190023704F0A37401F0A3742EF0A334
:1008AB00EBF0A37401F0A3746EF07A0079EE71068D
:1008BB009001AEEFF0E49000EAF09001AEE0FF9013
:1008CB0000EAE0F9C39F40022155742E29F582E41A
:1008DB003401F583E0FD3395E0FCAF05FE1201FE1C
:1008EB00AA06AB0774EE29F582E43400F583E0FD2C
:1008FB003395E0FCAF05FE1201FEEF2BFBEE3AFA4F
:10090B00746E29F582E43401F583E0FD3395E0FC48
:10091B00AF05FE1201FEEF2BFFEE3AFE9001AFF09A
:10092B00A3EFF01220999001AFEEF0A3EFF090003F
:10093B00EAE025E024B1F582E43401F583EEF0A37F
:10094B00EFF09000EAE004F001C5E49000ECF090C9
:10095B0000EA04F09001AEE014FF9000EAE0FEC361
:10096B009F400241ECEE25E024B3F582E43401F51F
:10097B0083E0FEA3E0FF9000E7E0FCA3E0FDD3EFF4
:10098B009DEE9C5002418B9000EAE025E024AFF5F0
:10099B0082E43401F583E0FEA3E0C3941EEE9400E1
:1009AB004002418B9000EDE060024183900232F0F7
:1009BB00A3F09000EBF09000EAE0F914FFA3E0C382
:1009CB009F40024161E0FF25E024B3F582E434014E
:1009DB00F583E0FCA3E0FDEF25E024B1F582E434E0
:1009EB0001F583E0FEA3E0FFD39DEE9C4029900030
:1009FB00EBE025E024B3F582E43401F583E0FCA3BE
:100A0B00E0FDC3EF9DFFEE9CFE900233E02FF090D4
:100A1B000232E03EF080379000EBE0FF25E024B19E
:100A2B00F582E43401F583E0FCA3E0FDEF25E0243F
:100A3B00B3F582E43401F583E0FEA3E0C39DFFEE42
:100A4B009CFE900233E02FF0900232E03EF09000DB
:100A5B00EBE004F021C19000E9E0FFD3900233E01A
:100A6B009F900232E094004008900321E004F08054
:100A7B00709000ECE9F080089000EAE09000ECF058
:100A8B009000ECE0FF60529000EAE0FE25E024B31A
:100A9B00F582E43401F583E0FCA3E0FDEE25E024D0
:100AAB00AFF582E43401F583E0FAA3E0C39DFDEAE0
:100ABB009CFC9000E8E024F6FB9000E7E034FFFAA2
:100ACB00D3ED9BEC9A40129000EAE09FC394055043
:100ADB00089000ED7401F080089000EAE004F0212A
:100AEB005F9000EDE0B401089002317401F08005D5
:100AFB00E4900231F0900231E0FF22900234EBF0EF
:100B0B00A3EAF0A3E9F09002567401F0A37402F08B
:100B1B00A3743DF07B017D2F7F0171FD90023DE0C1
:100B2B00FF30E6089002437420F08007EF541F90CB
:100B3B000243F0E4900244F0900243E0FFA3E0C3D1
:100B4B009F400261F79002567401F0A37402F0A368
:100B5B00743DF07B067DA87F0171FD90023EE0FEA7
:100B6B0090023DE07C002400FFEC3EFE900234E05E
:100B7B00FBA3E0FAA3E0F9900244E075F002A4F5C0
:100B8B008285F083EE8FF012027D900240E0FE90A2
:100B9B00023FE02400FFEC3EFE900237E0FBA3E0B7
:100BAB00FAA3E0F9900244E075F002A4F58285F017
:100BBB0083EE8FF012027D900242E0FE900241E044
:100BCB002400FFEC3EFE90023AE0FBA3E0FAA3E028
:100BDB00F9900244E075F002A4F58285F083EE8F64
:100BEB00F012027D900244E004F06143900243E076
:100BFB00FF22AE03EF6014900256E0FBA3E0FAA3D2
:100C0B00E0F990025EEEF07F18B1E47F01229000D4
:100C1B0025EDF0900024EFF070297B019002560433
:100C2B00F0A37400F0A37426F07D2E7F0171FD906C
:100C3B000026E0543FF0E0F0E0FB7D2E7F01120038
:100C4B005E8070900024E0640170377B0190025647
:100C5B0004F0A37400F0A37426F07D2E7F0171FDC8
:100C6B00900026E0543FF0E0FB7D2E7F0112005EEA
:100C7B00900026E04440F0E0FB7D2E7F0112005EE9
:100C8B008031900024E0640270297B0190025604AD
:100C9B00F0A37400F0A37426F07D2E7F0171FD90FC
:100CAB000026E0543FF0E04480F0E0FB7D2E7F0116
:100CBB0012005E900025E070297B0190025604F033
:100CCB00A37400F0A37426F07D247F0171FD9000C6
:100CDB0026E05440F0E0F0E0FB7D247F0112005E43
:100CEB008031900025E0640170297B01900256044D
:100CFB00F0A37400F0A37426F07D247F0171FD90A6
:100D0B000026E05440F0E04440F0E0FB7D247F01FE
:100D1B0012005E7F0122900024EFF0A3EDF060053E
:100D2B00E064017037900027740FF0F4F0900256D6
:100D3B007401F0A37400F0A37426F07B017D1F7F78
:100D4B000171FD900026E0FFA3E0FEEF5E90002610
:100D5B00F0E0FB7D1F7F0112005E802F900025E0ED
:100D6B0064027027A3F07B0190025604F0A3740079
:100D7B00F0A37426F07D1F7F0171FD900026E044E7
:100D8B000FF0E0FB7D1F7F0112005E900025E070ED
:100D9B000E900024E0FFC394975004EF440FF090A3
:100DAB00002674FFF0900024E0FB7D207F011200F1
:100DBB005E9002567401F0A37400F0A37426F07BCE
:100DCB00017D207F0171FD900024E0FF900026E063
:100DDB00B507037F01227FFF22900259EFF09002AB
:100DEB005BEBF0A3EAF0A3E9F0F128900259E0FFE6
:100DFB0025E0FFD1F1EF7002806AAF05D1F1EF7002
:100E0B00028061F128900259E0FF25E004FFD1F147
:100E1B00EF7002804FE490025FF090025EE014FFEF
:100E2B00A3E0C39F50207F01F14890025BE0FBA33E
:100E3B00E475F001120210A9F0FAEF1201CA900248
:100E4B005FE004F080D4E4FFF14890025BE0FBA389
:100E5B00E475F001120210A9F0FAEF1201CA43B4C3
:100E6B001053B3EFC2947F037E00F13DD293D29423
:100E7B0022900254EFF0900256EBF0A3EAF0A3E9B4
:100E8B00F0F128900254E0FF25E0FFD1F1EF700262
:100E9B0080D2AF05D1F1EF700280C9E490025AF015
:100EAB00A3F0900259E0FFC390025BE09F7480F8BF
:100EBB0090025AE0648098502B900256E0FBA3E41A
:100ECB0075F001120210A9F0FA120184FFD1F1EFB3
:100EDB007002809090025BE004F0700690025AE082
:100EEB0004F080BEC16FE4FEEF30E704D2948002C1
:100EFB00C294D293C293EF25E0FF0EEEB408E953F0
:100F0B00B4EF43B310D293A294E433FEC29343B431
:100F1B001053B3EF70047F0180027F0022D294D272
:100F2B00937F0A7E00F13DC2947F0A7E00F13DC2A1
:100F3B009322EF1FAC0670011E4C70F622AD07E436
:100F4B00FB53B4EF43B3107F01FEF13DE4FFD293AB
:100F5B00EB25E0FB3094034401FBC2930FEFB40885
:100F6B00ED43B41053B3EFED6004C2948002D294FE
:100F7B00D2937F017E00F13DC29353B4EF43B31084
:100F8B00AF03227B017A03793390025E7401F07D0B
:100F9B00107F18B1E4900333E054FBF07B017A032C
:100FAB0079339002597401F07D107F18C17CC0E039
:100FBB00C0F0C083C082C0D0758A80758CC1120509
:100FCB004F9002F2E004F070069002F1E004F0B2F0
:100FDB0096D0D0D082D083D0F0D0E0327B017A0291
:100FEB00798290025E7403F07D157F18A1E4C0E056
:100FFB00C0F0C083C082C0D075D000C000C001C09B
:10100B0002C003C004C005C006C007C28B1135D097
:10101B0007D006D005D004D003D002D001D000D029
:10102B00D0D082D083D0F0D0E032113D9002D6EFF9
:10103B00F0229002567401F0A37402F0A37452F0E4
:10104B007B017D067F01120BFD900252E0FF5406DF
:10105B006041EF30E10C900322E0FF900320E05F52
:10106B006013900252E030E22A900322E0FF9003DB
:10107B0020E05F601E900320E0FFF4FE900322E06F
:10108B005EFEEF54AF4E900320F0FEFB7D087F0118
:10109B0012005E900252E0FE30E1037F0122EE303F
:1010AB00E2037F02227F0022C0E0E4F58BF58DD0B6
:1010BB00E032C0E0C0F0C083C082C0D075D000C0A9
:1010CB0000C001C002C003C004C005C006C007AF0A
:1010DB00ECEF24FE7060D295315F7F043168EEC473
:1010EB00F854F0C868FEEFC4540F48FF9002E3EECB
:1010FB00F0A3EFF0C374FF9FF0E49E9002E3F05374
:10110B00E1FEC295E0FEA3E0FF7C007D0F1201FE25
:10111B00EE9002BBF0E0FFF404FEC374809E9002DD
:10112B00A3F0C374FF9F9002BCF09002A5E4F09073
:10113B0002A4F0438F0875EC00D007D006D005D081
:10114B0004D003D002D001D000D0D0D082D083D035
:10115B00F0D0E03243E10175F610C2EF22A2AF925C
:10116B0000C2AF75C7AA75C75543A380A20092AF43
:10117B00EF540FF5E8C2EFD2EE20EEFDC2EFAFC396
:10118B00EF75F010A4FFE5C2540F7C002FFFEC3578
:10119B00F0FEA2AF9200C2AF75C7AA75C75553A395
:1011AB007FA20092AF22C0E0C0F0C083C082C0D04B
:1011BB0075D000C000C001C002C003C004C005C090
:1011CB0006C007538FEF539BFD31F1D007D006D0EC
:1011DB0005D004D003D002D001D000D0D0D082D023
:1011EB0083D0F0D0E0329002A5E0FFB418004002AB
:1011FB0061CE901204F828287302126F0212880233
:10120B0012920212A70212B10212C60212D00212DD
:10121B00E90212F30213080213120213270213310D
:10122B00021346021350021369021373021388024E
:10123B0013920213A70213B10213C602124C02122D
:10124B00659002A2E030E008C283D287C2808002A0
:10125B00D2809002A3E0F58661CED2809002BCE0F2
:10126B00F58661CE9002A2E030E008D280D287C230
:10127B00928002D2929002A3E0F58661CED2929038
:10128B0002BCE0F58661CE9002A2E030E004C29190
:10129B008002D2919002A3E0F58661CED2919002AA
:1012AB00BCE0F58661CE9002A2E030E004C29080F3
:1012BB0002D2909002A3E0F58661CED2909002BC50
:1012CB00E0F58661CE9002A2E030E008C287D282C0
:1012DB00C2928002D2929002A3E0F58661CED292A6
:1012EB009002BCE0F58661CE9002A2E030E004C231
:1012FB00918002D2919002A3E0F58661CED29190BB
:10130B0002BCE0F58661CE9002A2E030E004C29010
:10131B008002D2909002A3E0F58661CED29090022B
:10132B00BCE0F58661CE9002A2E030E004C2808082
:10133B0002D2809002A3E0F58661CED2809002BCEF
:10134B00E0F586807E9002A2E030E008C282D28374
:10135B00C2928002D2929002A3E0F5868065D2926F
:10136B009002BCE0F586805B9002A2E030E004C204
:10137B00918002D2919002A3E0F5868046D29190A3
:10138B0002BCE0F586803C9002A2E030E004C29003
:10139B008002D2909002A3E0F5868027D290900233
:1013AB00BCE0F586801D9002A2E030E004C2808094
:1013BB0002D2809002A3E0F5868008D2809002BC16
:1013CB00E0F586EF20E0089002A5E004F080219084
:1013DB0002A2E075F00584AFF0BF04089002A5E00F
:1013EB0004F080069002A5E014F09002A2E004F055
:1013FB009002A5E0C394184008E4F09002A4E00426
:10140B00F02275B12075B2DD7580CEE4F5B375B4FD
:10141B007F7590F875A09FF5ACF5AD75B0FF22A266
:10142B00AF9200C2AF75C7AA75C755439610A200FD
:10143B0092AFA2AF9200C2AF75C7AA75C7554396BC
:10144B0004A20092AFA2AF9200C2AF75C7AA75C734
:10145B00555396FDA20092AFA2AF9200C2AF75C7D3
:10146B00AA75C75553A37FA20092AFA2AF9200C239
:10147B00AF75C7AA75C755539FFEA20092AFA2AF17
:10148B009200C2AF75C7AA75C7555397DFA20092DA
:10149B00AF22A2AF9200C2AF75C7AA75C7554396CC
:1014AB0020A20092AFA2AF9200C2AF75C7AA75C7B8
:1014BB00555396FBA20092AFA2AF9200C2AF75C775
:1014CB00AA75C7555396FDA20092AFA2AF9200C268
:1014DB00AF75C7AA75C75553A37FA20092AFA2AF32
:1014EB009200C2AF75C7AA75C755539FFEA2009253
:1014FB00AFA2AF9200C2AF75C7AA75C7555396DF9F
:10150B00A20092AF22C0E0C0F0C083C082C0D075F1
:10151B00D000C004C006C007AFC3EF75F010A4FF26
:10152B00E5C2540F7C002FFEEC35F0900260F0A367
:10153B00CEF0C2EFD007D006D004D0D0D082D0836B
:10154B00D0F0D0E03275C7AA75C75553A5FE75C745
:10155B00AA75C755539FFE22AD07AC06B1A075AF58
:10156B0022ECF5A7AF058FA675AEFF75C7AA75C799
:10157B005543A40180CFAB07AA06B1A075AF21EAF2
:10158B00F5A7AF038FA6AF058FAE75C7AA75C75565
:10159B0043A40180B075C7AA75C755439F0175C792
:1015AB00AA75C75543A50122900325EEF0A3EFF0D2
:1015BB00A3ECF0A3EDF0C2AFB181900326E02401C0
:1015CB00FF900325E03400FE900327E0FDB181D2AC
:1015DB00AF2290031BEBF0A3EAF0A3E9F0A3EDF02D
:1015EB007F007E40B163E4A3F090031EE0FFA3E015
:1015FB00FEC39F5035EE75F002A42400FFE5F034D6
:10160B0040FE90031BE0FBA3E0FAA3E0F990031F5D
:10161B00E075F002A4F58285F083120226FDACF092
:10162B00B1B390031FE004F080BF227F007E40B176
:10163B00637F01227B017A0279A67D0A8094D13FD8
:10164B007B017A0279A67D0A90030AEBF0A3EAF0FC
:10165B00A3E9F0A3EDF0E4A3F0A3F090030EF0A345
:10166B00F090030DE0FFA3E0FCA3E0FDC39FEC941F
:10167B00005046ED25E0FFEC33FEE42FFFEE344047
:10168B00FED1C5AC06AD0790030FE025E0FF90033C
:10169B000EE033FE90030AE0FBA3E0FAA3E0F98F20
:1016AB00828E83EC8DF012027D90030FE004F070BC
:1016BB000690030EE004F080A822AD07AC06C2AF83
:1016CB00D1E7AB07ED2401FFE43EFED1E77E00EF4F
:1016DB00FE7C00E42BFFEC3EFED2AF228F828E838A
:1016EB00E493FF227F007E40D1E790032DEFF07F44
:1016FB0002D1E790032EEFF090032DE0640260031C
:10170B007F00227F012290032F7402F07F007E4026
:10171B00B1637B017A03792F9003087402F0E4FD27
:10172B00FCF1317F0122900303EBF0A3EAF0A3E974
:10173B00F0A3ECF0A3EDF0E4900309F0F0900308B4
:10174B00E0FFA3E0FEC39F5038900307E02400FDA9
:10175B00900306E03440FCEE7E002DFFEE3CFE9045
:10176B000303E0FBA3E0FAA3E0F9900309E0F582A1
:10177B0075830012019DFDB181900309E004F08097
:10178B00BC229002FCEBF0A3EAF0A3E9F0A3ECF08F
:10179B00A3EDF0E4900302F0F0900301E0FFA3E06F
:1017AB00FEC39F5038900300E02400FD9002FFE041
:1017BB003440FCEE7E002DFFEE3CFED1E79002FCA8
:1017CB00E0FBA3E0FAA3E0F9900302E0F582758356
:1017DB0000EF1201DC900302E004F080BC22ED4C20
:1017EB006018120184FF900315E02FF0740129F9A2
:1017FB00E43AFAED1D70011C80E4900315E0FF2222
:10180B00900332741DF0E4900331F0900332E0FF4B
:10181B00900331E0C39F5032E0FF25E024B4F58202
:10182B00E43404F583E493FDEF75F002A424B5F9D9
:10183B00740435F0FA7BFF9002597401F07F181293
:10184B000E7C900331E004F080C12290000B120358
:10185B008B53B1BF53B2BF75985243878053C4F8B3
:10186B0043C42090000BE0F8A3E0F9A3E0FAA3E057
:10187B00FB7F407E427D0F7C001202E6C374FF9F0C
:10188B00FF74FF9EFEE49DFDE49CFC780812037838
:10189B008FC690000BE0F8A3E0F9A3E0FAA3E0FBFE
:1018AB007F407E427D0F7C001202E6C374FF9FFFD8
:1018BB0074FF9EFEE49DFDE49CFCEFE48FC543C4E6
:1018CB0008223098FDAF99C29822C2998F9930990E
:1018DB00FD22900012EBF0A3EAF0A3E9F0E4FEEE98
:1018EB00C39D5019900012E0FBA3E0FAA3E0F98E20
:1018FB008275830012019DFF11D50E80E2229000AC
:10190B0008ECF0A3EDF0A3EAF0A3EBF0E4FEFD0E80
:10191B0024BEF582E43402F58374AAF00E74BE245F
:10192B0001F582E43402F58374AAF00E74BE24022E
:10193B00F582E43402F583EFF00E74BE2403F582D6
:10194B00E43402F583E4F0900008E0FF0E74BE244B
:10195B0004F582E43402F583EFF0900009E0FF0E0A
:10196B0074BE2405F582E43402F583EFF090000A8F
:10197B00E0FF0E74BE2406F582E43402F583EFF02B
:10198B0090000BE0FF0E74BE2407F582E43402F5E1
:10199B0083EFF090000CE0FF0E74BE2408F582E498
:1019AB003402F583EFF090000DE0FF0E74BE2409B6
:1019BB00F582E43402F583EFF090000EE0FF0E7435
:1019CB00BE240AF582E43402F583EFF090000FE0B9
:1019DB00FF0E74BE240BF582E43402F583EFF09016
:1019EB000010E0FF0E74BE240CF582E43402F58384
:1019FB00EFF0900011E0FF0E74BE240DF582E4347D
:101A0B0002F583EFF0EE24FC9002C1F0E4FFEFC38C
:101A1B009E501074BE2FF582E43402F583E02DFD49
:101A2B000F80EBAF05AD060E74BE2DF582E43402CC
:101A3B00F583EFF07B017A0279BEAF06AD0701DDCE
:101A4B00AD07AC06C299ECF5993099FDC299AF057B
:101A5B008F993099FD2290032912038BD2FE9003AC
:101A6B0029E0F8A3E0F9A3E0FAA3E0FB7F407E4274
:101A7B007D0F7C001202E6C374FF9FFF74FF9EFE76
:101A8B00E49DFDE49CFC78081203788FC690032933
:101A9B00E0F8A3E0F9A3E0FAA3E0FB7F407E427DF0
:101AAB000F7C001202E6C374FF9FFF74FF9EFEE4DF
:101ABB009DFDE49CFCEFE48FC543C40822C2F98F63
:101ACB009A30F9FD22AD07AC06C2F9ECF59A30F964
:101ADB00FDC2F9AF058F9A30F9FD22E490000BF0AF
:101AEB00780C7C007D017BFF7A00793EFE7F07122C
:101AFB00015E78137C007D017BFF7A0079457E00C7
:101B0B007F0412015E78177C007D017BFF7A0079E0
:101B1B00497E007F0212015E9000197482F0781AE0
:101B2B007C007D017BFF7A00794B7E007F071201E1
:101B3B005E7F0871D590000BEFF07F109130900015
:101B4B000BEFF0E4FD7F47120D2190000BEFF07DC2
:101B5B00017F02120C1990000BEFF0900019E0FFBF
:101B6B0071A190000BEFF07B017A00790C12071337
:101B7B007B017A007913918C7B017A00791712071C
:101B8B00B3E49002E0F0A3F07B017A00791AB11173
:101B9B0090000BE0FF22900021EFF0FB7D257F01F1
:101BAB0012005E9002567401F0A37400F0A374222D
:101BBB00F07B017D257F01120BFD900021E0FFA33F
:101BCB00E0B507037F01227F0022900021EFF0A3F5
:101BDB0074FFF09002567401F0A37400F0A374220A
:101BEB00F07B017D577F01120BFD900022E054F337
:101BFB00FF900021E04FA3F0E0FB7D577F01120027
:101C0B005E9002567401F0A37400F0A37422F07B73
:101C1B00017D0F7F01120BFD900022E0B413037FB7
:101C2B0001227FFF22900021EFF0A374FFF09002BE
:101C3B00567401F0A37400F0A37422F07B017D2392
:101C4B007F01120BFD900021E04488FF900023F0F0
:101C5B00FB7D237F0112005E9002567401F0A3748A
:101C6B0000F0A37422F07B017D237F01120BFD900A
:101C7B000023E0FF900022E0B507037F01227FFFE6
:101C8B0022900021EBF0A3EAF0A3E9F0120184FB10
:101C9B007D087F0112005E900021E0FBA3E0FAA318
:101CAB00E0F9120184FF900320F0E4900322F0EF9F
:101CBB0054C060037440F0900320E05430600790F0
:101CCB000322E04410F090000112019DFB7D097F7F
:101CDB000112005E900021E0FBA3E0FAA3E0F99073
:101CEB00000212019DFB7D0A7F0112005E90002114
:101CFB00E0FBA3E0FAA3E0F990000312019DFB7D4A
:101D0B000B7F0102005E900021EBF0A3EAF0A3E948
:101D1B00F0900021E0FBA3E0FAA3E0F9120184703C
:101D2B00097D017F67120D218007E4FD7F77120D7E
:101D3B00217D017F02120C19900021E0FBA3E0FA38
:101D4B00A3E0F990000112019DFB7D217F011200A0
:101D5B005E900021E0FBA3E0FAA3E0F990000212F1
:101D6B00019DFB7D257F0112005E900021E0FBA30E
:101D7B00E0FAA3E0F990000312019DFB7D387F018F
:101D8B0012005E900021E0FBA3E0FAA3E0F99000C3
:101D9B000412019DFB7D3A7F0112005E900021E051
:101DAB00FBA3E0FAA3E0F990000512019DFB7D3B3C
:101DBB007F0112005E900021E0FBA3E0FAA3E0F9A3
:101DCB0090000612019DFB7D3C7F0112005E7B9013
:101DDB007D237F0102005EE4FFD14E9002DEEFF027
:101DEB009002E0E07002A3E07043EFD39401402F28
:101DFB009002D4E004F070069002D3E004F0D3908C
:101E0B0002D4E094149002D3E09400400FE4F0A3CA
:101E1B00F09002E0F0A304F0EF13FF227F0022E426
:101E2B009002D3F0A3F09002E0F0A304F0EFD39470
:101E3B000250037F0022EFD3940550037F01227FD2
:101E4B000222229002567401F0A37400F0A374C80E
:101E5B00F07B017D6F7F01120BFD9000C8E0FF222C
:101E6B00E4900007F09002D2E064016002E12C9054
:101E7B0002D8E004F070069002D7E004F09002D78D
:101E8B00E0FEA3E0FFC3940AEE940050229002DF21
:101E9B00E0B4011BE4F09002DCE02FF09002DBE0F9
:101EAB003EF0E49002D7F0A3F09002D5E004F07F6F
:101EBB0001F12F900007EFF09002D7E0FEA3E0FFB7
:101ECB00C3940AEE9400500FC39002DCE09464902C
:101EDB0002DBE094004009900007E0C3940240123B
:101EEB00C3EF940AEE94004038900007E0D39401BE
:101EFB00402F120016E49002D2F09002D7F0A3F01C
:101F0B009002DBF0A3F0900007E0D39400400CE4C8
:101F1B00FFF12F900007EFF07F00229002D5E0FF3A
:101F2B00227F0022EF7004900321F0900321E0FF49
:101F3B002290033474FFF09002567401F0A37403E3
:101F4B00F0A37434F07B017D687F01120BFD9003CD
:101F5B0034E044A5F0E0FB7D687F0112005E900247
:101F6B00567401F0A37403F0A37434F07B017D2449
:101F7B007F01120BFD900334E04480F0E0FB7D24E5
:101F8B007F0112005E7F01229002F3EBF0A3EAF0D7
:101F9B00A3E9F09002567401F0A37402F0A374F657
:101FAB00F07B017D277F01120BFD9002F6E0540FB1
:101FBB00640F70757B0190025604F0A37402F0A3BA
:101FCB0074F6F07B067DA87F01120BFD9002F7E003
:101FDB00FE9002F6E07C002400FFEC3EF99002F349
:101FEB00E0FBA3E0FAA3E0C98FF012025E9002F9C6
:101FFB00E0FE9002F8E02400FFEC3EFE9002F3E0DE
:10200B00FBA3E0FAA3E0F9900002EE8FF012027D41
:10201B009002FBE0FE9002FAE02400FFEC3E900001
:10202B00048FF012027D7F01227F002290025674F2
:10203B0001F0A37400F0A374C8F07B037D957F01BE
:10204B00120BFD9000C9E07D00FCA3E07E00781030
:10205B00C333CE33CED8F9FFEE4CFEEF4DFF9000DD
:10206B00C8E0FDEEEF4DFDAC06900323E0FEA3E0D0
:10207B00FFC3ED9FFBEC9EFAD3EB9464EA94004014
:10208B000122900323ECF0A3EDF0AE04FF229002AB
:10209B0034EEF0A3EFF0E4F9A3F0A3F0A3EEF0A37A
:1020AB00EFF02400FFE43EC313FEEF13FFA3EEF0AB
:1020BB00A3EFF090023AE0FCA3E0FDFFAE041201A7
:1020CB00FE900234E0FAA3E0FBC39FEA9E5011900E
:1020DB00023AE0FFA3E0900238CFF0A3EFF0800FBD
:1020EB0090023AE0FFA3E0900236CFF0A3EFF0901E
:1020FB000236E0FEA3E0FFC3900239E09FFF90029F
:10210B0038E09EFEEF64014E7047900236E0FCA370
:10211B00E0FDFFAE041201FEC3EB9FFBEA9EFAA3A8
:10212B00E0FCA3E0FDFFAE041201FE900234E0FCE4
:10213B00A3E0FDC3EF9DFFEE9CFED3EF9BEE9A4019
:10214B0007A3E0FEA3E0FF22900238E0FEA3E0FF2E
:10215B0022900236E0FEA3E0FF900239E02FFF90C1
:10216B000238E03EC313FEEF13FF90023AEEF0A3EA
:0E217B00EFF009E964C8600201BEE4FEFF2235
:00000001FF
