:0A0000000203970208DFD203222258
:06000B0002088FC2CF3293
:06001300020BE3DFFE22F8
:10001B00020FFB007F017E86DEFEDFFC22C2032285
:0E002B0080E1D288D289D2A8D2AF227F0022F3
:10003B0002100505A41F370FFF003135009311097E
:10004B00013C8215480417D28AD28BD2AAD2AF2296
:10005B000216A1900253EBF0EF60117B017A02794B
:10006B00539002597401F07F181219B67F01229038
:0D007B000311E0A3F09003116002E4F022F5
:10008B000210D3E709F608DFFA8046E709F208DF2A
:10009B00FA803E88828C83E709F0A3DFFA8032E393
:1000AB0009F608DFFA8078E309F208DFFA80708836
:1000BB00828C83E309F0A3DFFA806489828A83E070
:1000CB00A3F608DFFA805889828A83E0A3F208DF5F
:1000DB00FA804C80D280FA80C680D4806980F2800E
:1000EB0033801080A680EA809A80A880DA80E28034
:1000FB00CA803389828A83ECFAE493A3C8C582C889
:10010B00CCC583CCF0A3C8C582C8CCC583CCDFE9F2
:10011B00DEE7800D89828A83E493A3F608DFF9EC8E
:10012B00FAA9F0EDFB2289828A83ECFAE0A3C8C519
:10013B0082C8CCC583CCF0A3C8C582C8CCC583CC40
:10014B00DFEADEE880DB89828A83E493A3F208DFAF
:10015B00F980CC88F0EF60010E4E60C388F0ED247F
:10016B0002B4040050B9F582EB2402B4040050AF82
:10017B0023234582239000DE73BB010689828A8389
:10018B00E0225002E722BBFE02E32289828A83E44B
:10019B009322BB010CE58229F582E5833AF583E0D6
:1001AB00225006E92582F8E622BBFE06E92582F8F5
:1001BB00E222E58229F582E5833AF583E49322BBBB
:1001CB00010689828A83F0225002F722BBFE01F3DB
:1001DB0022F8BB010DE58229F582E5833AF583E828
:1001EB00F0225006E92582C8F622BBFE05E92582DE
:1001FB00C8F222EF8DF0A4A8F0CF8CF0A428CE8DFE
:10020B00F0A42EFE22A3F8E0C5F025F0F0E5821550
:10021B008270021583E0C838F0E822BB0110E5823A
:10022B0029F582E5833AF583E0F5F0A3E022500946
:10023B00E92582F886F008E622BBFE0AE92582F85A
:10024B00E2F5F008E222E5832AF583E993F5F0A3C2
:10025B00E99322BB010A89828A83F0E5F0A3F0229D
:10026B005006F709A7F01922BBFE06F3E5F009F3D8
:10027B001922F8BB0111E58229F582E5833AF58352
:10028B00E8F0E5F0A3F0225009E92582C8F608A6AC
:10029B00F022BBFE09E92582C8F2E5F008F22275CF
:1002AB00F008758200EF2FFFEE33FECD33CDCC334C
:1002BB00CCC58233C5829BED9AEC99E58298400CB4
:1002CB00F582EE9BFEED9AFDEC99FC0FD5F0D6E492
:1002DB00CEFBE4CDFAE4CCF9A88222B800C1B90078
:1002EB0059BA002DEC8BF084CFCECDFCE5F0CBF9D9
:1002FB007818EF2FFFEE33FEED33FDEC33FCEB33D1
:10030B00FB10D703994004EB99FB0FD8E5E4F9FAFE
:10031B00227818EF2FFFEE33FEED33FDEC33FCC9E3
:10032B0033C910D7059BE99A4007EC9BFCE99AF976
:10033B000FD8E0E4C9FAE4CCFB2275F010EF2FFFE5
:10034B00EE33FEED33FDCC33CCC833C810D7079B4F
:10035B00EC9AE899400AED9BFDEC9AFCE899F80FB2
:10036B00D5F0DAE4CDFBE4CCFAE4C8F922E8600F6F
:10037B00ECC313FCED13FDEE13FEEF13FFD8F122CC
:10038B00ECF0A3EDF0A3EEF0A3EFF022787FE4F610
:10039B00D8FD9000007FFF7E03E4F0A3DFFCDEFAC4
:1003AB007581200203EC020F50E493A3F8E493A3AE
:1003BB004003F68001F208DFF48029E493A3F8549C
:1003CB0007240CC8C333C4540F4420C8834004F41F
:1003DB0056800146F6DFE4800B0102040810204032
:1003EB0080900431E47E019360BCA3FF543F30E561
:1003FB0009541FFEE493A360010ECF54C025E060A7
:10040B00A840B8E493A3FAE493A3F8E493A3C8C574
:10041B0082C8CAC583CAF0A3C8C582C8CAC583CA65
:10042B00DFE9DEE780BE42030D0000440307000056
:10043B00000044030F000000004203130000C1033F
:10044B00C1004102D7004102EE034102D6F0410246
:10045B00F1784102EF0F4102D8004102F300C18154
:10046B004102ED1E4102F0014102F2074102D500AB
:10047B004203450000410342004103440041034352
:10048B0000410304004202F5000042030200004158
:10049B000300004102F8004102F400410301004255
:1004AB0002F900004202FD00004102F7004102FF89
:1004BB00004202FB00000010011100120013001893
:1004CB000019001F002047210022002300240025D3
:1004DB0000260027002E0030003200330034003697
:1004EB0000370038003A003B003C003D003E003F27
:1004FB0000A2AF9202C2AF75C7AA75C7554396103B
:10050B00A20292AFA2AF9202C2AF75C7AA75C7552E
:10051B00439604A20292AFA2AF9202C2AF75C7AAD2
:10052B0075C7555396FDA20292AFA2AF9202C2AF0E
:10053B0075C7AA75C75553A37FA20292AFA2AF92FC
:10054B0002C2AF75C7AA75C755539FFEA20292AFE1
:10055B00A2AF9202C2AF75C7AA75C7555397DFA258
:10056B000292AF22121664111EC287C282C283D2BC
:10057B0092D291D290D280C200B19D1208BC7F0062
:10058B007EC27D017C00121BD1112D1152121681DE
:10059B0081FCE490000BF0780C7C007D017BFF7AF2
:1005AB0000793EFE7F07315E78137C007D017BFF77
:1005BB007A0079457E007F04315E78177C007D01DF
:1005CB007BFF7A0079497E007F02315E90001974BF
:1005DB0082F0781A7C007D017BFF7A00794B7E00DC
:1005EB007F07315E7F08121E6190000BEFF07F10CA
:1005FB00121F1390000BEFF0E4FD7F47121F6F905B
:10060B00000BEFF07D017F02D13D90000BEFF090DE
:10061B000019E0FF12203590000BEFF07B017A0000
:10062B0079131221EAE4900302F0A3F090000BE09F
:10063B00FF22900022EDF0900021EFF070287B015B
:10064B0090025604F0A37400F0A37423F07D2E7F68
:10065B0001F1B2900023E0543FF0E0F0E0FB7D2E7F
:10066B007F01115E806D900021E0640170357B018C
:10067B0090025604F0A37400F0A37423F07D2E7F38
:10068B0001F1B2900023E0543FF0E0FB7D2E7F019F
:10069B00115E900023E04440F0E0FB7D2E7F0111C2
:1006AB005E8030900021E0640270287B019002563E
:1006BB0004F0A37400F0A37423F07D2E7F01F1B23C
:1006CB00900023E0543FF0E04480F0E0FB7D2E7F70
:1006DB0001115E900022E070287B0190025604F01D
:1006EB00A37400F0A37423F07D247F01F1B290007A
:1006FB0023E05440F0E0F0E0FB7D247F01115E80AD
:10070B0030900022E0640170287B0190025604F0C7
:10071B00A37400F0A37423F07D247F01F1B2900049
:10072B0023E05440F0E04440F0E0FB7D247F0111D6
:10073B005E7F0122A2AF9202C2AF75C7AA75C755E1
:10074B00439620A20292AFA2AF9202C2AF75C7AA84
:10075B0075C7555396FBA20292AFA2AF9202C2AFDE
:10076B0075C7AA75C7555396FDA20292AFA2AF9259
:10077B0002C2AF75C7AA75C75553A37FA20292AF2A
:10078B00A2AF9202C2AF75C7AA75C755539FFEA2FF
:10079B000292AFA2AF9202C2AF75C7AA75C75553EB
:1007AB0096DFA20292AF22AE03EF6015900256E0E5
:1007BB00FBA3E0FAA3E0F990025EEEF07F18121AA9
:1007CB002B7F0122900353EBF0A3EAF0A3E9F0A3F4
:1007DB00E0FB7D6B7F01115E900356E0FB7D6C7F30
:1007EB0001015E900310E004F0E075F00584E5F084
:1007FB007005A3E04420F0900310E075F01984E538
:10080B00F07005A3E04440F0900310E0B43207E42D
:10081B00F0A3E04480F022900311E04401F0900338
:10082B000FE004F0E020E007900311E04402F090A9
:10083B00030FE075F00584E5F07007900311E044B9
:10084B0004F090030FE075F00A84E5F07007900355
:10085B0011E04408F090030FE0B4140CE4F09003A3
:10086B0011E04410F01207EED390030EE0940090C9
:10087B00030DE09400400CA3E024FFF090030DE087
:10088B0034FFF022C0E0C0F0C083C082C0D0758AB4
:10089B0080758CC11122900314E004F07006900354
:1008AB0013E004F0B296D0D0D082D083D0F0D0E059
:1008BB00325389F0438901438E08758A80758CC148
:1008CB00D28CD2A9D2AF2253890F438910D28ED2A8
:1008DB00ABD2AF22C0E0C0F0C083C082C0D075D015
:1008EB0000C000C001C002C003C004C005C006C0E8
:1008FB0007C289311BD007D006D005D004D003D056
:10090B0002D001D000D0D0D082D083D0F0D0E03252
:10091B00E49000E6F07D3C7F46FE31579000E6EF19
:10092B00F0BF01229002F4E0701604F0120006E40E
:10093B009002F9F0A3F09002FDF0A3F09002F7F013
:10094B009003017401F09000E6E0FF229000E7EEC7
:10095B00F0A3EFF0A3EDF0E4A3F0A3F0A3F0A3F06A
:10096B009001AFF0A3F0900231F0A3F0A3F07B0164
:10097B0090023704F0A37401F0A3742EF0A3EBF0F4
:10098B00A37401F0A3746EF07A0079EEB18D90012F
:10099B00AEEFF0E49000EAF09001AEE0FF9000EAD9
:1009AB00E0F9C39F40024132742E29F582E43401F1
:1009BB00F583E0FD3395E0FCAF05FE1201FEAA06C0
:1009CB00AB0774EE29F582E43400F583E0FD339533
:1009DB00E0FCAF05FE1201FEEF2BFBEE3AFA746E54
:1009EB0029F582E43401F583E0FD3395E0FCAF0596
:1009FB00FE1201FEEF2BFFEE3AFE9001AFF0A3EFDC
:100A0B00F0919D9001AFEEF0A3EFF09000EAE0259E
:100A1B00E024B1F582E43401F583EEF0A3EFF0901E
:100A2B0000EAE004F021A3E49000ECF09000EA046B
:100A3B00F09001AEE014FF9000EAE0FEC39F40028D
:100A4B0061C9EE25E024B3F582E43401F583E0FEC1
:100A5B00A3E0FF9000E7E0FCA3E0FDD3EF9DEE9C4D
:100A6B00500261689000EAE025E024AFF582E4349F
:100A7B0001F583E0FEA3E0C3941EEE9400400261F7
:100A8B00689000EDE060026160900232F0A3F0909C
:100A9B0000EBF09000EAE0F914FFA3E0C39F4002E3
:100AAB00613EE0FF25E024B3F582E43401F583E0F9
:100ABB00FCA3E0FDEF25E024B1F582E43401F583DE
:100ACB00E0FEA3E0FFD39DEE9C40299000EBE025D8
:100ADB00E024B3F582E43401F583E0FCA3E0FDC32D
:100AEB00EF9DFFEE9CFE900233E02FF0900232E080
:100AFB003EF080379000EBE0FF25E024B1F582E477
:100B0B003401F583E0FCA3E0FDEF25E024B3F5828F
:100B1B00E43401F583E0FEA3E0C39DFFEE9CFE9061
:100B2B000233E02FF0900232E03EF09000EBE00455
:100B3B00F0419E9000E9E0FFD3900233E09F9002DA
:100B4B0032E094004008900343E004F08070900082
:100B5B00ECE9F080089000EAE09000ECF09000ECFB
:100B6B00E0FF60529000EAE0FE25E024B3F582E45A
:100B7B003401F583E0FCA3E0FDEE25E024AFF58224
:100B8B00E43401F583E0FAA3E0C39DFDEA9CFC90FD
:100B9B0000E8E024F6FB9000E7E034FFFAD3ED9B8E
:100BAB00EC9A40129000EAE09FC394055008900025
:100BBB00ED7401F080089000EAE004F0413C9000F5
:100BCB00EDE0B401089002317401F08005E490026D
:100BDB0031F0900231E0FF22C0E0C0F0C083C08250
:100BEB00C0D075D000C000C001C002C003C004C09B
:100BFB0005C006C007C28B911FD007D006D005D009
:100C0B0004D003D002D001D000D0D0D082D083D07A
:100C1B00F0D0E03291279002F8EFF0229002567458
:100C2B0001F0A37402F0A37452F07B017D067F01E7
:100C3B001207B2900252E0FF54066041EF30E10C14
:100C4B00900344E0FF900342E05F6013900252E098
:100C5B0030E22A900344E0FF900342E05F601E9075
:100C6B000342E0FFF4FE900344E05EFEEF54AF4E10
:100C7B00900342F0FEFB7D087F0112005E90025252
:100C8B00E0FE30E1037F0122EE30E2037F02227FA0
:100C9B000022900234EEF0A3EFF0E4F9A3F0A3F0FE
:100CAB00A3EEF0A3EFF02400FFE43EC313FEEF131B
:100CBB00FFA3EEF0A3EFF090023AE0FCA3E0FDFF00
:100CCB00AE041201FE900234E0FAA3E0FBC39FEAEC
:100CDB009E501190023AE0FFA3E0900238CFF0A3B0
:100CEB00EFF0800F90023AE0FFA3E0900236CFF0D6
:100CFB00A3EFF0900236E0FEA3E0FFC3900239E0D1
:100D0B009FFF900238E09EFEEF64014E7047900209
:100D1B0036E0FCA3E0FDFFAE041201FEC3EB9FFB2C
:100D2B00EA9EFAA3E0FCA3E0FDFFAE041201FE90E5
:100D3B000234E0FCA3E0FDC3EF9DFFEE9CFED3EF7E
:100D4B009BEE9A4007A3E0FEA3E0FF22900238E05F
:100D5B00FEA3E0FF22900236E0FEA3E0FF900239F3
:100D6B00E02FFF900238E03EC313FEEF13FF90021B
:100D7B003AEEF0A3EFF009E964C8600281C2E4FE29
:100D8B00FF22900234EBF0A3EAF0A3E9F0900256B5
:100D9B007401F0A37402F0A3743DF07B017D2F7FEF
:100DAB00011207B290023DE0FF30E6089002437457
:100DBB0020F08007EF541F900243F0E4900244F0C0
:100DCB00900243E0FFA3E0C39F4002C18090025614
:100DDB007401F0A37402F0A3743DF07B067DA87F31
:100DEB00011207B290023EE0FE90023DE07C00242F
:100DFB0000FFEC3EFE900234E0FBA3E0FAA3E0F927
:100E0B00900244E075F002A4F58285F083EE8FF03A
:100E1B0012027D900240E0FE90023FE02400FFECC6
:100E2B003EFE900237E0FBA3E0FAA3E0F990024408
:100E3B00E075F002A4F58285F083EE8FF012027D4F
:100E4B00900242E0FE900241E02400FFEC3EFE9057
:100E5B00023AE0FBA3E0FAA3E0F9900244E075F05C
:100E6B0002A4F58285F083EE8FF012027D9002448E
:100E7B00E004F0A1CB900243E0FF22900237740113
:100E8B00F0A37400F0A37447F0A37401F0A37400F3
:100E9B00F0A37487F07B017A007907B18D9000C7BE
:100EAB00EFF012226F9002FBEEF0A3EFF0D394C899
:100EBB00EE9400400312210D9002FFE004F0E0C31A
:100ECB009478400CD1E4900304EFF0E49002FFF02F
:100EDB009002FBE0FEA3E0FF22E4FFF1DE900300B3
:100EEB00EFF0900302E07002A3E07043EFD39401A4
:100EFB00402F9002F6E004F070069002F5E004F04B
:100F0B00D39002F6E094149002F5E09400400FE4C5
:100F1B00F0A3F0900302F0A304F0EF13FF227F0085
:100F2B0022E49002F5F0A3F0900302F0A304F0EF9B
:100F3B00D3940250037F0022EFD3940550037F011B
:100F4B00227F022222E4900006F012056F438702F3
:100F5B0080FB12007A900312E030E14B9002377461
:100F6B0001F0A37400F0A37402F0A37401F0A37456
:100F7B0000F0A37404F07B017A007900B18D90002E
:100F8B0000E0FCA3E0FDA3E0FAA3E0FBA3E0FFA3DA
:100F9B00E090000CCFF0A3EFF0E4A3F0A3F0A3F0EC
:100FAB00A3F07FF1121C84900312E030E3123003A4
:100FBB000F900006E004F0E0B40505E4F01223AF57
:100FCB00900312E030E602D186900312E030E78204
:100FDB008080229002567401F0A37400F0A374C8B1
:100FEB00F07B017D6F7F011207B29000C8E0FF22FA
:100FFB00C0E0E4F58BF58DD0E032C0E0C0F0C083EB
:10100B00C082C0D075D000C000C001C002C003C0F8
:10101B0004C005C006C007AFECEF24FE703AD295B2
:10102B0011817F04118AEEC4F854F0C868FEEFC436
:10103B00540F48FF900305EEF0A3EFF0C374FF9F2E
:10104B00F0E49E900305F053E1FEC2959002D8E4C4
:10105B00F09002D7F0438F0875EC00D007D006D084
:10106B0005D004D003D002D001D000D0D0D082D094
:10107B0083D0F0D0E03243E10175F690C2EF22A2AB
:10108B00AF9202C2AF75C7AA75C75543A380A20220
:10109B0092AFEF540FF5E8C2EFD2EE20EEFDC2EFA8
:1010AB00AFC3EF75F010A4FFE5C2540F7C002FFF08
:1010BB00EC35F0FEA2AF9202C2AF75C7AA75C75549
:1010CB0053A37FA20292AF22C0E0C0F0C083C082C4
:1010DB00C0D075D000C000C001C002C003C004C0A6
:1010EB0005C006C007538FEF539BFD3115B286D059
:1010FB0007D006D005D004D003D002D001D000D049
:10110B00D0D082D083D0F0D0E0329002D8E0B418A7
:10111B00004002C163901127F82828730211DA02EC
:10112B00121502124602127D0212AE0212E50213D2
:10113B00160213510213820213B90213EA0214218D
:10114B000214520214890214BA0214F50215260273
:10115B00155D02158E0215C50215F602162D02112C
:10116B006F0211AAC283D287E4FE9002F2E0FFEE77
:10117B00C39F501BC2809002F0E0FF120016D2807A
:10118B00E0FF9002EDE0C39FFF1200160E80DB9094
:10119B0002D8E004F0538FF77586FE438F0822D2F6
:1011AB0080538FF79002F1E0FFC374FF9FF58643E6
:1011BB008F089002D5E004F0E075F00584AFF0BF26
:1011CB000406E49002D8F0229002D8E014F022D268
:1011DB0080D287E4FE9002F2E0FFEEC39F501BC269
:1011EB00929002F0E0FF120016D292E0FF9002ED17
:1011FB00E0C39FFF1200160E80DB9002D8E004F0D4
:10120B00538FF77586FE438F0822D292538FF79038
:10121B0002F1E0FFC374FF9FF586438F089002D560
:10122B00E004F0E075F00584AFF0BF04079002D83E
:10123B00E004F0229002D8E014F022E4FE9002F2D7
:10124B00E0FFEEC39F501BC2919002F0E0FF120033
:10125B0016D291E0FF9002EDE0C39FFF1200160E35
:10126B0080DB9002D8E004F0538FF77586FE438F36
:10127B000822D291538FF79002F1E0FFC374FF9FC6
:10128B00F586438F089002D5E004F0E075F00584F5
:10129B00AFF0BF04079002D8E004F0229002D8E030
:1012AB0014F022E4FE9002F2E0FFEEC39F501BC24B
:1012BB00909002F0E0FF120016D290E0FF9002ED4A
:1012CB00E0C39FFF1200160E80DB9002D8E004F003
:1012DB00538FF77586FE438F0822D290538FF7906A
:1012EB0002F1E0FFC374FF9FF586438F089002D590
:1012FB00E004F0E075F00584AFF0BF04079002D86E
:10130B00E004F0229002D8E014F022C287D282E4EB
:10131B00FE9002F2E0FFEEC39F501BC2929002F0D0
:10132B00E0FF120016D292E0FF9002EDE0C39FFFA8
:10133B001200160E80DB9002D8E004F0538FF77585
:10134B0086FE438F0822D292538FF79002F1E0FF73
:10135B00C374FF9FF586438F089002D5E004F0E03D
:10136B0075F00584AFF0BF04079002D8E004F022BB
:10137B009002D8E014F022E4FE9002F2E0FFEEC3FC
:10138B009F501BC2919002F0E0FF120016D291E029
:10139B00FF9002EDE0C39FFF1200160E80DB900260
:1013AB00D8E004F0538FF77586FE438F0822D29155
:1013BB00538FF79002F1E0FFC374FF9FF586438FC5
:1013CB00089002D5E004F0E075F00584AFF0BF049F
:1013DB00079002D8E004F0229002D8E014F022E447
:1013EB00FE9002F2E0FFEEC39F501BC2909002F002
:1013FB00E0FF120016D290E0FF9002EDE0C39FFFDA
:10140B001200160E80DB9002D8E004F0538FF775B4
:10141B0086FE438F0822D290538FF79002F1E0FFA4
:10142B00C374FF9FF586438F089002D5E004F0E06C
:10143B0075F00584AFF0BF04079002D8E004F022EA
:10144B009002D8E014F022E4FE9002F2E0FFEEC32B
:10145B009F501BC2809002F0E0FF120016D280E07A
:10146B00FF9002EDE0C39FFF1200160E80DB90028F
:10147B00D8E004F0538FF77586FE438F0822D28095
:10148B00538FF79002F1E0FFC374FF9FF586438FF4
:10149B00089002D5E004F0E075F00584AFF0BF04CE
:1014AB00079002D8E004F0229002D8E014F022C298
:1014BB0082D283E4FE9002F2E0FFEEC39F501BC288
:1014CB00929002F0E0FF120016D292E0FF9002ED34
:1014DB00E0C39FFF1200160E80DB9002D8E004F0F1
:1014EB00538FF77586FE438F0822D292538FF79056
:1014FB0002F1E0FFC374FF9FF586438F089002D57E
:10150B00E004F0E075F00584AFF0BF04079002D85B
:10151B00E004F0229002D8E014F022E4FE9002F2F4
:10152B00E0FFEEC39F501BC2919002F0E0FF120050
:10153B0016D291E0FF9002EDE0C39FFF1200160E52
:10154B0080DB9002D8E004F0538FF77586FE438F53
:10155B000822D291538FF79002F1E0FFC374FF9FE3
:10156B00F586438F089002D5E004F0E075F0058412
:10157B00AFF0BF04079002D8E004F0229002D8E04D
:10158B0014F022E4FE9002F2E0FFEEC39F501BC268
:10159B00909002F0E0FF120016D290E0FF9002ED67
:1015AB00E0C39FFF1200160E80DB9002D8E004F020
:1015BB00538FF77586FE438F0822D290538FF79087
:1015CB0002F1E0FFC374FF9FF586438F089002D5AD
:1015DB00E004F0E075F00584AFF0BF04079002D88B
:1015EB00E004F0229002D8E014F022E4FE9002F224
:1015FB00E0FFEEC39F501BC2809002F0E0FF120091
:10160B0016D280E0FF9002EDE0C39FFF1200160E92
:10161B0080DB9002D8E004F0538FF77586FE438F82
:10162B000822D280538FF79002F1E0FFC374FF9F23
:10163B00F586438F089002D87416F09002D5E0041B
:10164B00F0E075F00584AFF0BF04079002D8741674
:10165B00F0229002D8E014F02275B12075B2DD753E
:10166B0080EEE4F5B375B47F7590F875A09FF5AC7B
:10167B00F5AD75B0FF22758F0B7586FE439C04D2BA
:10168B00AF2275E90875EA02439B02D2AF2275E8D7
:10169B0001C2EFD2EE22C0E0C0F0C083C082C0D046
:1016AB0075D000C004C006C007AFC3EF75F010A41F
:1016BB00FFE5C2540F7C002FFEEC35F0900261F079
:1016CB00A3CEF0C2EFD007D006D004D0D0D082D0BA
:1016DB0083D0F0D0E03275C7AA75C75553A5FE75F8
:1016EB00C7AA75C755539FFE22AD07AC06F13175DE
:1016FB00AF22ECF5A7AF058FA675AEFF75C7AA7520
:10170B00C75543A40180CFAB07AA06F13175AF21B2
:10171B00EAF5A7AF038FA6AF058FAE75C7AA75C73E
:10172B005543A40180B075C7AA75C755439F017572
:10173B00C7AA75C75543A50122900347EEF0A3EF47
:10174B00F0A3ECF0A3EDF0C2AFF112900348E0244C
:10175B0001FF900347E03400FE900349E0FDF112D6
:10176B00D2AF2290033DEBF0A3EAF0A3E9F0A3ED97
:10177B00F07F007E40D1F4E4A3F0900340E0FFA3A0
:10178B00E0FEC39F5035EE75F002A42400FFE5F098
:10179B003440FE90033DE0FBA3E0FAA3E0F9900395
:1017AB0041E075F002A4F58285F083120226FDACB0
:1017BB00F0F144900341E004F080BF227F007E40B3
:1017CB00D1F47F01227B017A0279D97D0A8094F1D1
:1017DB00D07B017A0279D97D0A90032CEBF0A3EA36
:1017EB00F0A3E9F0A3EDF0E4A3F0A3F0900330F045
:1017FB00A3F090032FE0FFA3E0FCA3E0FDC39FEC5D
:10180B0094005046ED25E0FFEC33FEE42FFFEE3461
:10181B0040FE1156AC06AD07900331E025E0FF907A
:10182B000330E033FE90032CE0FBA3E0FAA3E0F9D6
:10183B008F828E83EC8DF012027D900331E004F0E9
:10184B007006900330E004F080A822AD07AC06C20E
:10185B00AF1178AB07ED2401FFE43EFE11787E005B
:10186B00EFFE7C00E42BFFEC3EFED2AF228F828E8C
:10187B0083E493FF227F007E40117890035AEFF0B0
:10188B007F02117890035BEFF090035AE0640260E3
:10189B00037F00227F012290031EEBF0A3EAF0A34B
:1018AB00E9F0A3ECF0A3EDF0E4900324F0F0900347
:1018BB0023E0FFA3E0FEC39F5038900322E02400F7
:1018CB00FD900321E03440FCEE7E002DFFEE3CFE4C
:1018DB00117890031EE0FBA3E0FAA3E0F990032438
:1018EB00E0F582758300EF1201DC900324E004F035
:1018FB0080BC22900325EBF0A3EAF0A3E9F0A3EC64
:10190B00F0A3EDF0E490032BF0F090032AE0FFA39B
:10191B00E0FEC39F5039900329E02400FD9003287B
:10192B00E03440FCEE7E002DFFEE3CFE900325E004
:10193B00FBA3E0FAA3E0F990032BE0F5827583009B
:10194B0012019DFD12171290032BE004F080BB22B5
:10195B0090035C7402F07F007E401216F47B017AD8
:10196B0003795C90032A7402F0E4FDFC11FE7F0105
:10197B0022ED4C6018120184FF900337E02FF074B6
:10198B000129F9E43AFAED1D70011C80E49003374C
:10199B00E0FF22EF1FAC0670011E4C70F622C294C2
:1019AB007F037E00319ED293D29422900254EFF0AB
:1019BB00900256EBF0A3EAF0A3E9F051EF9002543A
:1019CB00E0FF25E0FF51B8EF700280D2AF0551B8B0
:1019DB00EF700280C9E490025AF0A3F0900259E034
:1019EB00FFC390025BE09F7480F890025AE0648022
:1019FB0098502B900256E0FBA3E475F001120210F5
:101A0B00A9F0FA120184FF51B8EF70028090900296
:101A1B005BE004F0700690025AE004F080BE21A94E
:101A2B00900259EFF090025BEBF0A3EAF0A3E9F020
:101A3B0051EF900259E0FF25E0FF51B8EF70022102
:101A4B00A9AF0551B8EF700221A951EF900259E0EF
:101A5B00FF25E004FF51B8EF700221A9E490025F6B
:101A6B00F090025EE014FFA3E0C39F50207F017152
:101A7B000490025BE0FBA3E475F001120210A9F0E5
:101A8B00FAEF1201CA90025FE004F080D4E4FF7118
:101A9B000490025BE0FBA3E475F001120210A9F0C5
:101AAB00FAEF1201CA43B41053B3EF21A9E4FEEFCE
:101ABB0030E704D2948002C294D293C293EF25E014
:101ACB00FF0EEEB408E953B4EF43B310D293A294D4
:101ADB00E433FEC29343B41053B3EF70047F018021
:101AEB00027F0022D294D2937F0A7E00319EC29451
:101AFB007F0A7E00319EC29322AD07E4FB53B4EF05
:101B0B0043B3107F01FE319EE4FFD293EB25E0FB44
:101B1B003094034401FBC2930FEFB408ED43B410B0
:101B2B0053B3EFED6004C2948002D294D2937F0141
:101B3B007E00319EC29353B4EF43B310AF03227BAD
:101B4B00017A03796090025E7401F07D107F185169
:101B5B002B900360E054FBF07B017A0379609002D9
:101B6B00597401F07D107F1821B67B017A027983BD
:101B7B0090025E7403F07D157F18412B90035F7408
:101B8B001DF0E490035EF090035FE0FF90035EE0D6
:101B9B00C39F5031E0FF25E024C2F582E43404F505
:101BAB0083E493FDEF75F002A424C3F9740435F0BC
:101BBB00FA7BFF9002597401F07F1831B690035EE7
:101BCB00E004F080C22290000B12038B53B1BF5381
:101BDB00B2BF75985243878053C4F843C42090001A
:101BEB000BE0F8A3E0F9A3E0FAA3E0FB7F407E4211
:101BFB007D0F7C001202E6C374FF9FFF74FF9EFEF5
:101C0B00E49DFDE49CFC78081203788FC690000BD2
:101C1B00E0F8A3E0F9A3E0FAA3E0FB7F407E427D6E
:101C2B000F7C001202E6C374FF9FFF74FF9EFEE45D
:101C3B009DFDE49CFCEFE48FC543C408223098FD66
:101C4B00AF99C29822C2998F993099FD22900012B8
:101C5B00EBF0A3EAF0A3E9F0E4FEEEC39D5019907C
:101C6B000012E0FBA3E0FAA3E0F98E827583001269
:101C7B00019DFF91500E80E222900008ECF0A3ED45
:101C8B00F0A3EAF0A3EBF0E4FEFD0E24A3F582E44F
:101C9B003402F58374AAF00E74A32401F582E434A4
:101CAB0002F58374AAF00E74A32402F582E43402C5
:101CBB00F583EFF00E74A32403F582E43402F5836D
:101CCB00E4F0900008E0FF0E74A32404F582E434E2
:101CDB0002F583EFF0900009E0FF0E74A32405F5E5
:101CEB0082E43402F583EFF090000AE0FF0E74A358
:101CFB002406F582E43402F583EFF090000BE0FF4D
:101D0B000E74A32407F582E43402F583EFF0900000
:101D1B000CE0FF0E74A32408F582E43402F583EF84
:101D2B00F090000DE0FF0E74A32409F582E4340259
:101D3B00F583EFF090000EE0FF0E74A3240AF582FA
:101D4B00E43402F583EFF090000FE0FF0E74A32450
:101D5B000BF582E43402F583EFF0900010E0FF0EF8
:101D6B0074A3240CF582E43402F583EFF090001198
:101D7B00E0FF0E74A3240DF582E43402F583EFF03B
:101D8B00EE24FC9002A6F0E4FFEFC39E501074A368
:101D9B002FF582E43402F583E02DFD0F80EBAF05C8
:101DAB00AD060E74A32DF582E43402F583EFF07BC0
:101DBB00017A0279A3AF06AD078158AD07AC06C215
:101DCB0099ECF5993099FDC299AF058F993099FD32
:101DDB002290034B12038BD2FE90034BE0F8A3E04F
:101DEB00F9A3E0FAA3E0FB7F407E427D0F7C00125B
:101DFB0002E6C374FF9FFF74FF9EFEE49DFDE49C0F
:101E0B00FC78081203788FC690034BE0F8A3E0F937
:101E1B00A3E0FAA3E0FB7F407E427D0F7C00120221
:101E2B00E6C374FF9FFF74FF9EFEE49DFDE49CFCE4
:101E3B00EFE48FC543C40822C2F98F9A30F9FD2213
:101E4B00AD07AC06C2F9ECF59A30F9FDC2F9AF0556
:101E5B008F9A30F9FD22900021EFF0A374FFF090E0
:101E6B0002567401F0A37400F0A37422F07B017D81
:101E7B00577F011207B2900022E054F3FF9000212C
:101E8B00E04FA3F0E0FB7D577F0112005E900256FE
:101E9B007401F0A37400F0A37422F07B017D0F7F1B
:101EAB00011207B2900022E0B413037F01227FFFDF
:101EBB002290036174FFF09002567401F0A3740337
:101ECB00F0A37461F07B017D687F011207B2900370
:101EDB0061E044A5F0E0FB7D687F0112005E90029B
:101EEB00567401F0A37403F0A37461F07B017D249D
:101EFB007F011207B2900361E04480F0E0FB7D2488
:101F0B007F0112005E7F0122900021EFF0A374FF8E
:101F1B00F09002567401F0A37400F0A37422F07BCE
:101F2B00017D237F011207B2900021E04488FF90CE
:101F3B000023F0FB7D237F0112005E90025674019B
:101F4B00F0A37400F0A37422F07B017D237F0112B8
:101F5B0007B2900023E0FF900022E0B507037F015A
:101F6B00227FFF22900021EFF0A3EDF06005E064EB
:101F7B00017038900024740FF0F4F0900256740145
:101F8B00F0A37400F0A37423F07B017D1F7F01127B
:101F9B0007B2900023E0FFA3E0FEEF5E900023F07A
:101FAB00E0FB7D1F7F0112005E8030900022E06419
:101FBB00027028A3F07B0190025604F0A37400F08A
:101FCB00A37423F07D1F7F011207B2900023E0441E
:101FDB000FF0E0FB7D1F7F0112005E900022E0708E
:101FEB000E900021E0FFC394975004EF440FF09044
:101FFB00002374FFF0900021E0FB7D207F01120095
:10200B005E9002567401F0A37400F0A37423F07B6E
:10201B00017D207F011207B2900021E0FF90002389
:10202B00E0B507037F01227FFF22900021EFF0FB39
:10203B007D257F0112005E9002567401F0A374009F
:10204B00F0A37422F07B017D257F011207B2900073
:10205B0021E0FFA3E0B507037F01227F002290035D
:10206B0015EBF0A3EAF0A3E9F09002567401F0A38C
:10207B007403F0A37418F07B017D277F011207B264
:10208B00900318E0540F640F70757B019002560497
:10209B00F0A37403F0A37418F07B067DA87F0112E4
:1020AB0007B2900319E0FE900318E07C002400FFB8
:1020BB00EC3EF9900315E0FBA3E0FAA3E0C98FF027
:1020CB0012025E90031BE0FE90031AE02400FFEC6B
:1020DB003EFE900315E0FBA3E0FAA3E0F9900002AB
:1020EB00EE8FF012027D90031DE0FE90031CE024A6
:1020FB0000FFEC3E9000048FF012027D7F01227FE7
:10210B0000229002567401F0A37400F0A374C8F07F
:10211B007B017D107F011207B29000C8E04404F0F0
:10212B00E0FB7D107F0112005EE4900345F0A3F00D
:10213B002290034FEBF0A3EAF0A3E9F0120184FB2A
:10214B007D107F0112005E90034FE0FBA3E0FAA32A
:10215B00E0F990000112019DFB7D187F0112005EDA
:10216B0090034FE0FBA3E0FAA3E0F9900002120109
:10217B009DFB7D197F0112005E90034FE0FBA3E0F6
:10218B00FAA3E0F990000312019DFB7D1A7F011267
:10219B00005E90034FE0FBA3E0FAA3E0F99000048C
:1021AB0012019DFB7D117F0112005E90034FE0FB3E
:1021BB00A3E0FAA3E0F990000512019DFB7D127FCD
:1021CB000112005E90034FE0FBA3E0FAA3E0F9904D
:1021DB00000612019DFB7D137F0112005E210D9005
:1021EB000021EBF0A3EAF0A3E9F0120184FB7D08D8
:1021FB007F0112005E900021E0FBA3E0FAA3E0F95F
:10220B00120184FF900342F0E4900344F0EF54C0BA
:10221B0060037440F0900342E05430600790034435
:10222B00E04410F090000112019DFB7D097F01122B
:10223B00005E900021E0FBA3E0FAA3E0F99000021E
:10224B0012019DFB7D0A7F0112005E900021E0FBD5
:10225B00A3E0FAA3E0F990000312019DFB7D0B7F35
:10226B000102005E9002567401F0A37400F0A37497
:10227B00C8F07B037D957F011207B29000C9E07D0A
:10228B0000FCA3E07E007810C333CE33CED8F9FF29
:10229B00EE4CFEEF4DFF9000C8E0FDEEEF4DFDACB8
:1022AB0006900345E0FEA3E0FFC3ED9FFBEC9EFA17
:1022BB00D3EB9464EA9400400122900345ECF0A325
:1022CB00EDF0AE04FF22900357EBF0A3EAF0A3E985
:1022DB00F0900357E0FBA3E0FAA3E0F9120184703E
:1022EB00097D017F67121F6F8007E4FD7F77121F47
:1022FB006F7D017F0212063D900357E0FBA3E0FACE
:10230B00A3E0F990000112019DFB7D217F011200DA
:10231B005E900357E0FBA3E0FAA3E0F990000212F2
:10232B00019DFB7D257F0112005E900357E0FBA30F
:10233B00E0FAA3E0F990000312019DFB7D387F01C9
:10234B0012005E900357E0FBA3E0FAA3E0F99000C4
:10235B000412019DFB7D3A7F0112005E900357E052
:10236B00FBA3E0FAA3E0F990000512019DFB7D3B76
:10237B007F0112005E900357E0FBA3E0FAA3E0F9A4
:10238B0090000612019DFB7D3C7F0112005E7B904D
:10239B007D237F0102005EEF7004900343F09003F6
:1023AB0043E0FF22E4900007F09002F4E064016048
:1023BB000281709002FAE004F070069002F9E004DA
:1023CB00F09002F9E0FEA3E0FFC3940AEE940050F4
:1023DB0022900301E0B4011BE4F09002FEE02FF029
:1023EB009002FDE03EF0E49002F9F0A3F09002F7CA
:1023FB00E004F07F0171A2900007EFF09002F9E08A
:10240B00FEA3E0FFC3940AEE9400500FC39002FEAC
:10241B00E094649002FDE094004009900007E0C353
:10242B0094024012C3EF940AEE94004038900007D8
:10243B00E0D39401402F120028E49002F4F09002B4
:10244B00F9F0A3F09002FDF0A3F0900007E0D39415
:10245B0000400CE4FF71A2900007EFF07F00229088
:08246B0002F7E0FF227F0022CE
:00000001FF
