:0D0000000203B132C2CF32227F0022A18C58
:0200130080EE7D
:0F001B00801005A41F370FFF003131009311092A
:0C002B0080D7C0E0E4F58BF58DD0E0320A
:10003B00A1B990016CE0A3F090016C6002E4F02296
:09004B0043E10175F690C2EF22B9
:10005B000208855389F0438901538EF7758ACB7556
:10006B008CFAD28CD2A9D2AF2253890F4389105369
:09007B008EF7D28ED2ABD2AF2277
:10008B00C148E709F608DFFA8046E709F208DFFA0C
:10009B00803E88828C83E709F0A3DFFA8032E30984
:1000AB00F608DFFA8078E309F208DFFA80708882BD
:1000BB008C83E309F0A3DFFA806489828A83E0A34F
:1000CB00F608DFFA805889828A83E0A3F208DFFA08
:1000DB00804C80D280FA80C680D4806980F28033D5
:1000EB00801080A680EA809A80A880DA80E280CA9D
:1000FB00803389828A83ECFAE493A3C8C582C8CC87
:10010B00C583CCF0A3C8C582C8CCC583CCDFE9DEE0
:10011B00E7800D89828A83E493A3F608DFF9ECFA72
:10012B00A9F0EDFB2289828A83ECFAE0A3C8C58291
:10013B00C8CCC583CCF0A3C8C582C8CCC583CCDFE3
:10014B00EADEE880DB89828A83E493A3F208DFF995
:10015B0080CC88F0EF60010E4E60C388F0ED240276
:10016B00B4040050B9F582EB2402B4040050AF2361
:10017B00234582239000DD73BB010689828A83E0CD
:10018B00225002E722BBFE02E32289828A83E49398
:10019B0022BB010CE58229F582E5833AF583E02247
:1001AB005006E92582F8E622BBFE06E92582F8E235
:1001BB0022E58229F582E5833AF583E49322BB019C
:1001CB000689828A83F0225002F722BBFE01F322BA
:1001DB00F8BB010DE58229F582E5833AF583E8F05A
:1001EB00225006E92582C8F622BBFE05E92582C806
:1001FB00F222A3F8E0C5F025F0F0E582158270023B
:10020B001583E0C838F0E822BB0110E58229F5829E
:10021B00E5833AF583E0F5F0A3E0225009E9258266
:10022B00F886F008E622BBFE0AE92582F8E2F5F033
:10023B0008E222E5832AF583E993F5F0A3E99322FB
:10024B00BB010A89828A83F0E5F0A3F0225006F7FE
:10025B0009A7F01922BBFE06F3E5F009F31922F802
:10026B00BB0111E58229F582E5833AF583E8F0E5D8
:10027B00F0A3F0225009E92582C8F608A6F022BBAC
:10028B00FE09E92582C8F2E5F008F22275F008753F
:10029B008200EF2FFFEE33FECD33CDCC33CCC582B6
:1002AB0033C5829BED9AEC99E58298400CF582EE72
:1002BB009BFEED9AFDEC99FC0FD5F0D6E4CEFBE45A
:1002CB00CDFAE4CCF9A88222B800C1B90059BA0022
:1002DB002DEC8BF084CFCECDFCE5F0CBF97818EF7D
:1002EB002FFFEE33FEED33FDEC33FCEB33FB10D77E
:1002FB0003994004EB99FB0FD8E5E4F9FA2278183F
:10030B00EF2FFFEE33FEED33FDEC33FCC933C91099
:10031B00D7059BE99A4007EC9BFCE99AF90FD8E0CB
:10032B00E4C9FAE4CCFB2275F010EF2FFFEE33FE9D
:10033B00ED33FDCC33CCC833C810D7079BEC9AE810
:10034B0099400AED9BFDEC9AFCE899F80FD5F0DA91
:10035B00E4CDFBE4CCFAE4C8F922E8600FECC3135C
:10036B00FCED13FDEE13FEEF13FFD8F122ECF0A31F
:10037B00EDF0A3EEF0A3EFF022EC8EF0A4CCC5F0E1
:10038B00CCCDF8EFA4CEC5F02DFDE43CFCE8A42EBB
:10039B00C8C5F03DFDE43CFCEFA4FFE5F028FEE40E
:1003AB003DFDE43CFC22787FE4F6D8FD9000007F15
:1003BB00FF7E03E4F0A3DFFCDEFA75812002040666
:1003CB00020852E493A3F8E493A34003F68001F2EE
:1003DB0008DFF48029E493A3F85407240CC8C33333
:1003EB00C4540F4420C8834004F456800146F6DF02
:1003FB00E4800B010204081020408090044BE47E43
:10040B00019360BCA3FF543F30E509541FFEE493F6
:10041B00A360010ECF54C025E060A840B8E493A3BD
:10042B00FAE493A3F8E493A3C8C582C8CAC583CAE8
:10043B00F0A3C8C582C8CAC583CADFE9DEE780BEA0
:10044B0042016800004401620000000044016A00A0
:10045B0000000042016E0000C10141013500410165
:10046B004B03410134B241014DCD41014C324101AD
:10047B00360041014E00410133004201FC000041B6
:10048B0001FA004101FB004101A30042019A000067
:10049B004201A100004101A00041019C0041019FCC
:1004AB000042019D00000010011100120013001802
:1004BB000019001F002047210022002300240025E3
:1004CB0000260027002E00300032003300340036A7
:1004DB0000370038003A003B003C003D003E003F37
:1004EB000090016BE004F0E075F00584E5F0700519
:1004FB00A3E04420F090016BE075F01984E5F070F7
:10050B0005A3E04440F090016BE0B43207E4F0A3A4
:10051B00E04480F02290016CE04401F090016AE02D
:10052B0004F0E020E00790016CE04402F090016AD7
:10053B00E075F00584E5F0700790016CE04404F081
:10054B0090016AE075F00A84E5F0700790016CE0A9
:10055B004408F090016AE0B4140BE4F090016CE0F5
:10056B004410F091ECD3900169E09400900168E0A5
:10057B009400400CA3E024FFF0900168E034FFF0FE
:10058B0022C0E0C0F0C083C082C0D0758ACB758C0E
:10059B00FAB12090016FE004F0700690016EE00458
:1005AB00F0B284D0D0D082D083D0F0D0E032C0E093
:1005BB00C0F0C083C082C0D075D000C000C001C0E5
:1005CB0002C003C004C005C006C007AFECEF24FE99
:1005DB00704DD295114B7F04D18B900160EEF0A33F
:1005EB00EFF053E1FEC295900160E0FEA3E0FF7CCB
:1005FB00007D327184780C716590014CEFF0E0FF57
:10060B00F404FEC374809E900134F0C374FF9F907A
:10061B00014DF0900136E4F0900135F0438F0875F1
:10062B00EC00D007D006D005D004D003D002D00107
:10063B00D000D0D0D082D083D0F0D0E032C0E0C098
:10064B00F0C083C082C0D075D000C000C001C00212
:10065B00C003C004C005C006C007538FEF539BFDFA
:10066B001212B7B296D007D006D005D004D003D063
:10067B0002D001D000D0D0D082D083D0F0D0E032E5
:10068B00A2AF9200C2AF75C7AA75C75543A380A28C
:10069B000092AFEF540FF5E8C2EFD2EE20EEFDC2A1
:1006AB00EFAFC3EF75F010A4FFE5C2540F7C002F22
:1006BB00FFEC35F0FEA2AF9200C2AF75C7AA75C7AB
:1006CB005553A37FA20092AF2275B12075B2DD7591
:1006DB0080EEE4F5B375B47F7590F875A09FF5AC1B
:1006EB00F5AD75B0FF22D1D4C287C282C283D2923C
:1006FB00D291D290D280C201F17CF1D3F1C7A2AFDB
:10070B009200C2AF75C7AA75C755439610A2009247
:10071B00AFA2AF9200C2AF75C7AA75C75543960477
:10072B00A20092AFA2AF9200C2AF75C7AA75C75510
:10073B005396FDA20092AFA2AF9200C2AF75C7AAAB
:10074B0075C75553A37FA20092AFA2AF9200C2AF61
:10075B0075C7AA75C755539FFEA20092AFA2AF9261
:10076B0000C2AF75C7AA75C7555397DFA20092AFEA
:10077B0022900175741DF0E4900174F0900175E006
:10078B00FF900174E0C39F5032E0FF25E024B2F5E7
:10079B0082E43404F583E493FDEF75F002A424B3F3
:1007AB00F9740435F0FA7BFF90017B7401F07F182C
:1007BB00120B98900174E004F080C122758F0B75B9
:1007CB0086FE439C04D2AF2275E90875EA02439B6F
:1007DB0002D2AF22A2AF9200C2AF75C7AA75C7559E
:1007EB00439620A20092AFA2AF9200C2AF75C7AAE8
:1007FB0075C7555396FBA20092AFA2AF9200C2AF42
:10080B0075C7AA75C7555396FDA20092AFA2AF92BA
:10081B0000C2AF75C7AA75C75553A37FA20092AF8D
:10082B00A2AF9200C2AF75C7AA75C755539FFEA260
:10083B000092AFA2AF9200C2AF75C7AA75C755534E
:10084B0096DFA20092AF221206F1900135E0C3941D
:10085B00014019C287C282C283D292D291D290D266
:10086B0080C201538FF7E4F5EC439B024387028070
:10087B00D92275E801C2EFD2EE22C0E0C0F0C083EE
:10088B00C082C0D075D000C004C006C007AFC3EF94
:10089B0075F010A4FFE5C2540F7C002FFEEC35F071
:1008AB0090017EF0A3CEF0C2EFD007D006D004D0DB
:1008BB00D0D082D083D0F0D0E03275C7AA75C7559F
:1008CB0053A5FE75C7AA75C755539FFE22AD07AC3E
:1008DB0006311575AF22ECF5A7AF058FA675AEFFE8
:1008EB0075C7AA75C75543A40180CFAB07AA0631BC
:1008FB001575AF21EAF5A7AF038FA6AF058FAE75C0
:10090B00C7AA75C75543A40180B075C7AA75C7554B
:10091B00439F0175C7AA75C75543A501229001DEF8
:10092B00EEF0A3EFF0A3ECF0A3EDF0C2AF11F69055
:10093B0001DFE02401FF9001DEE03400FE9001E0D6
:10094B00E0FD11F6D2AF229001D9EBF0A3EAF0A3B0
:10095B00E9F0A3EDF07F007E4011D8E4A3F0900105
:10096B00DCE0FFA3E0FEC39F5035EE75F002A4243C
:10097B0000FFE5F03440FE9001D9E0FBA3E0FAA3C1
:10098B00E0F99001DDE075F002A4F58285F08312A9
:10099B000213FDACF031289001DDE004F080BF22A2
:1009AB007F007E4011D87F01227B017A0179377D50
:1009BB000A809431B47B017A0179377D0A9001C2A8
:1009CB00EBF0A3EAF0A3E9F0A3EDF0E4A3F0A3F0BE
:1009DB009001C6F0A3F09001C5E0FFA3E0FCA3E0FB
:1009EB00FDC39FEC94005046ED25E0FFEC33FEE495
:1009FB002FFFEE3440FE513AAC06AD079001C7E035
:100A0B0025E0FF9001C6E033FE9001C2E0FBA3E0BE
:100A1B00FAA3E0F98F828E83EC8DF012026A9001BB
:100A2B00C7E004F070069001C6E004F080A822AD88
:100A3B0007AC06C2AF515CAB07ED2401FFE43EFEF1
:100A4B00515C7E00EFFE7C00E42BFFEC3EFED2AF50
:100A5B00228F828E83E493FF227F007E40515C9035
:100A6B00020AEFF07F02515C90020BEFF090020A4A
:100A7B00E0640260037F00227F012290020C74026B
:100A8B00F07F007E4011D87B017A02790C9001B97E
:100A9B007402F0E4FDFC51A67F01229001B4EBF04F
:100AAB00A3EAF0A3E9F0A3ECF0A3EDF0E49001BA14
:100ABB00F0F09001B9E0FFA3E0FEC39F5038900126
:100ACB00B8E02400FD9001B7E03440FCEE7E002D31
:100ADB00FFEE3CFE9001B4E0FBA3E0FAA3E0F9903B
:100AEB0001BAE0F58275830012019CFD11F69001AD
:100AFB00BAE004F080BC229001ADEBF0A3EAF0A3C6
:100B0B00E9F0A3ECF0A3EDF0E49001B3F0F0900169
:100B1B00B2E0FFA3E0FEC39F50389001B1E0240088
:100B2B00FD9001B0E03440FCEE7E002DFFEE3CFE6C
:100B3B00515C9001ADE0FBA3E0FAA3E0F99001B3A7
:100B4B00E0F582758300EF1201DB9001B3E004F056
:100B5B0080BC22ED4C6018120183FF9001CDE02F79
:100B6B00F0740129F9E43AFAED1D70011C80E49050
:100B7B0001CDE0FF22EF1FAC0670011E4C70F62278
:100B8B00C2947F037E007180D293D294229001761F
:100B9B00EFF0900178EBF0A3EAF0A3E9F091D1909C
:100BAB000176E0FF25E0FF919AEF700280D2AF054E
:100BBB00919AEF700280C9E490017CF0A3F0900150
:100BCB007BE0FFC390017DE09F7480F890017CE097
:100BDB00648098502B900178E0FBA3E475F0011230
:100BEB0001FDA9F0FA120183FF919AEF7002809038
:100BFB0090017DE004F0700690017CE004F080BE73
:100C0B00618B9001BBEFF09001BDEBF0A3EAF0A379
:100C1B00E9F091D19001BBE0FF25E0FF919AEF70D5
:100C2B0002618BAF05919AEF7002618B91D19001AC
:100C3B00BBE0FF25E004FF919AEF7002618BE4901B
:100C4B0001C1F09001C0E014FFA3E0C39F50207FCF
:100C5B000191E69001BDE0FBA3E475F0011201FDEB
:100C6B00A9F0FAEF1201C99001C1E004F080D4E4BD
:100C7B00FF91E69001BDE0FBA3E475F0011201FDCD
:100C8B00A9F0FAEF1201C943B41053B3EF618BE42F
:100C9B00FEEF30E704D2948002C294D293C293EF5A
:100CAB0025E0FF0EEEB408E953B4EF43B310D29333
:100CBB00A294E433FEC29343B41053B3EF70047F9A
:100CCB000180027F0022D294D2937F0A7E00718032
:100CDB00C2947F0A7E007180C29322AD07E4FB535E
:100CEB00B4EF43B3107F01FE7180E4FFD293EB2589
:100CFB00E0FB3094034401FBC2930FEFB408ED43C8
:100D0B00B41053B3EFED6004C2948002D294D2932B
:100D1B007F017E007180C29353B4EF43B310AF03D6
:100D2B0022900212EBF0EF60107B017A02791290A5
:100D3B00017B7401F07F1971987F01229001EFED17
:100D4B00F09001EEEFF070287B019001D104F0A33D
:100D5B007401F0A374F0F07D2E7F01D1499001F066
:100D6B00E0543FF0E0F0E0FB7D2E7F01B12C806D75
:100D7B009001EEE0640170357B019001D104F0A38A
:100D8B007401F0A374F0F07D2E7F01D1499001F036
:100D9B00E0543FF0E0FB7D2E7F01B12C9001F0E0A1
:100DAB004440F0E0FB7D2E7F01B12C80309001EEB2
:100DBB00E0640270287B019001D104F0A37401F070
:100DCB00A374F0F07D2E7F01D1499001F0E0543FE8
:100DDB00F0E04480F0E0FB7D2E7F01B12C9001EF21
:100DEB00E070287B019001D104F0A37401F0A3748F
:100DFB00F0F07D247F01D1499001F0E05440F0E008
:100E0B00F0E0FB7D247F01B12C80309001EFE0649A
:100E1B000170287B019001D104F0A37401F0A3743D
:100E2B00F0F07D247F01D1499001F0E05440F0E0D7
:100E3B004440F0E0FB7D247F01B12C7F0122AE0307
:100E4B00EF60149001D1E0FBA3E0FAA3E0F990016D
:100E5B00C0EEF07F19910D7F01229001F2EBF0A310
:100E6B00EAF0A3E9F0120183FB7D107F01B12C9016
:100E7B0001F2E0FBA3E0FAA3E0F990000112019C60
:100E8B00FB7D187F01B12C9001F2E0FBA3E0FAA3EC
:100E9B00E0F990000212019CFB7D197F01B12C90AF
:100EAB0001F2E0FBA3E0FAA3E0F990000312019C2E
:100EBB00FB7D1A7F01B12C9001F2E0FBA3E0FAA3BA
:100ECB00E0F990000412019CFB7D117F01B12C9085
:100EDB0001F2E0FBA3E0FAA3E0F990000512019CFC
:100EEB00FB7D127F01B12C9001F2E0FBA3E0FAA392
:100EFB00E0F990000612019CFB7D137F01B12C9051
:100F0B0001D17401F0A37402F0A37415F07B017D81
:100F1B00107F01D149900215E04404F0E0FB7D10F5
:100F2B007F01B12CE49001FCF0A3F0229002147429
:100F3B00FFF09001D17401F0A37402F0A37414F0CC
:100F4B007B017D687F01D149900214E044A5F0E05C
:100F5B00FB7D687F01B12C9001D17401F0A3740269
:100F6B00F0A37414F07B017D247F01D1499002140E
:100F7B00E04480F0E0FB7D247F01B12C7F012290C7
:100F8B00020EEFF0A374FFF09001D17401F0A37483
:100F9B0002F0A3740FF07B017D577F01D1499002C2
:100FAB000FE054F3FF90020EE04FA3F0E0FB7D57F0
:100FBB007F01B12C9001D17401F0A37402F0A374E2
:100FCB000FF07B017D0F7F01D14990020FE0B4132D
:100FDB00037F01227FFF227B017A0079E19001C020
:100FEB007403F07D157F18810D7B017A02791390C4
:100FFB0001C07401F07D107F18120C0D900213E0EC
:10100B0054FBF07B017A02791390017B7401F07D24
:10101B00107F18020B989001E212037853B1BF5363
:10102B00B2BF53B17F53B27F75985243878053C47D
:10103B00F843C4209001E2E0F8A3E0F9A3E0FAA39F
:10104B00E0FB7F407E427D0F7C001202D3C374FF16
:10105B009FFF74FF9EFEE49DFDE49CFC7808120349
:10106B00658FC69001E2E0F8A3E0F9A3E0FAA3E0F4
:10107B00FB7F407E427D0F7C001202D3C374FF9F27
:10108B00FF74FF9EFEE49DFDE49CFCEFE48FC543E3
:10109B00C408223098FDAF99C29822C2998F99301B
:1010AB0099FD229001FEEBF0A3EAF0A3E9F0E4FE38
:1010BB00EEC39D50199001FEE0FBA3E0FAA3E0F90B
:1010CB008E8275830012019CFF11A60E80E2229086
:1010DB000190ECF0A3EDF0A3EAF0A3EBF0E4FEFD3E
:1010EB000E2401F582E43401F58374AAF00E740129
:1010FB002401F582E43401F58374AAF00E74012403
:10110B0002F582E43401F583EFF00E74012403F54C
:10111B0082E43401F583E4F0900190E0FF0E74015A
:10112B002404F582E43401F583EFF0900191E0FFA4
:10113B000E74012405F582E43401F583EFF0900180
:10114B0092E0FF0E74012406F582E43401F583EF7F
:10115B00F0900193E0FF0E74012407F582E4340153
:10116B00F583EFF0900194E0FF0E74012408F582F3
:10117B00E43401F583EFF0900195E0FF0E74012448
:10118B0009F582E43401F583EFF0900196E0FF0E50
:10119B007401240AF582E43401F583EFF090019792
:1011AB00E0FF0E7401240BF582E43401F583EFF0BC
:1011BB00900198E0FF0E7401240CF582E43401F5E4
:1011CB0083EFF0900199E0FF0E7401240DF582E49A
:1011DB003401F583EFF0EE24FC900104F0E4FFEF13
:1011EB00C39E501074012FF582E43401F583E02D7A
:1011FB00FD0F80EBAF05AD060E74012DF582E434C7
:10120B0001F583EFF07B017A017901AF06AD0701A0
:10121B00AEAD07AC06C299ECF5993099FDC299AF0A
:10122B00058F993099FD229001E6120378D2FE903A
:10123B0001E6E0F8A3E0F9A3E0FAA3E0FB7F407E30
:10124B00427D0F7C001202D3C374FF9FFF74FF9E7D
:10125B00FEE49DFDE49CFC78081203658FC69001AB
:10126B00E6E0F8A3E0F9A3E0FAA3E0FB7F407E42BF
:10127B007D0F7C001202D3C374FF9FFF74FF9EFE91
:10128B00E49DFDE49CFCEFE48FC543C40822C2F946
:10129B008F9A30F9FD22AD07AC06C2F9ECF59A3006
:1012AB00F9FDC2F9AF058F9A30F9FD22900136E0B6
:1012BB00FFB41800400281109012CAF8282873025C
:1012CB00132A02133802134202134C021356021351
:1012DB006002136A02137802138202138C021396B4
:1012EB000213A00213AA0213B40213BE0213CC0200
:1012FB0013D60213E00213EA0213F40213FE0214D4
:10130B0008021312021320C283D287C280900134C9
:10131B00E0F5868110D28090014DE0F5868110D2E8
:10132B0080D287C292900134E0F5868110D29290E0
:10133B00014DE0F5868110C291900134E0F5868174
:10134B0010D29190014DE0F5868110C2909001343E
:10135B00E0F5868110D29090014DE0F5868110C2A8
:10136B0087D282C292900134E0F5868110D292909E
:10137B00014DE0F5868110C291900134E0F5868134
:10138B0010D29190014DE0F586807AC29090013495
:10139B00E0F5868070D29090014DE0F5868066C2B4
:1013AB0080900134E0F586805CD28090014DE0F5B1
:1013BB00868052C282D283C292900134E0F586803D
:1013CB0044D29290014DE0F586803AC2919001345F
:1013DB00E0F5868030D29190014DE0F5868026C2F3
:1013EB0090900134E0F586801CD29090014DE0F591
:1013FB00868012C280900134E0F5868008D28090FE
:10140B00014DE0F586EF20E008900136E004F08016
:10141B001C900133E004F0E0C39405400AE4F09023
:10142B000136E004F08006900136E014F0900136AE
:10143B00E0C394184008E4F0900135E004F02290EA
:10144B000201EFF0A374FFF09001D17401F0A374CB
:10145B0002F0A37402F07B017D237F01120E4990F1
:10146B000201E04488FF900203F0FB7D237F011211
:10147B000D2C9001D17401F0A37402F0A37402F04F
:10148B007B017D237F01120E49900203E0FF900246
:10149B0002E0B507037F01227FFF22E4900180F079
:1014AB0078817C017D017BFF7A00791DFE7F07121D
:1014BB00015D78887C017D017BFF7A0079247E00B9
:1014CB007F0412015D788C7C017D017BFF7A0079B2
:1014DB00287E007F0212015D90018E7402F07F085E
:1014EB00120F8A900180EFF07F10914A900180EFEC
:1014FB00F0E4FD7F47D11B900180EFF07D017F0170
:10150B00120D47900180EFF090018EE0FFB16690D5
:10151B000180EFF07B017A017981120E657B017AF4
:10152B00017988B19A7B017A01798CB145E49001FC
:10153B00A1F0A3F0900180E0FF229001F6EBF0A365
:10154B00EAF0A3E9F0A3E0FB7D6B7F01120D2C9079
:10155B0001F9E0FB7D6C7F01020D2C900210EFF086
:10156B00FB7D257F01120D2C9001D17401F0A3742A
:10157B0002F0A37411F07B017D257F01120E4990BF
:10158B000210E0FFA3E0B507037F01227F0022904A
:10159B000204EBF0A3EAF0A3E9F0120183FB7D0850
:1015AB007F01120D2C900204E0FBA3E0FAA3E0F9FB
:1015BB00120183FF9001FAF0E4A3F0EF54C0600333
:1015CB007440F09001FAE054306005A3E04410F051
:1015DB0090000112019CFB7D097F01120D2C9002E2
:1015EB0004E0FBA3E0FAA3E0F990000212019CFBDC
:1015FB007D0A7F01120D2C900204E0FBA3E0FAA3FD
:10160B00E0F990000312019CFB7D0B7F01020D2C76
:10161B009001EAEFF0A3EDF06005E0640170389003
:10162B0001ED740FF0F4F09001D17401F0A374018B
:10163B00F0A374ECF07B017D1F7F01120E4990012A
:10164B00ECE0FFA3E0FEEF5E9001ECF0E0FB7D1F12
:10165B007F01120D2C80309001EBE064027028A307
:10166B00F07B019001D104F0A37401F0A374ECF0B2
:10167B007D1F7F01120E499001ECE0440FF0E0FB5F
:10168B007D1F7F01120D2C9001EBE0700E9001EA93
:10169B00E0FFC394975004EF440FF09001EC74FFFC
:1016AB00F09001EAE0FB7D207F01120D2C9001D11F
:1016BB007401F0A37401F0A374ECF07B017D207F27
:1016CB0001120E499001EAE0FF9001ECE0B507032F
:1016DB007F01227FFF229001A4EBF0A3EAF0A3E9A4
:1016EB00F09001D17401F0A37401F0A374A7F07B07
:1016FB00017D277F01120E499001A7E0540F640F63
:10170B0070757B019001D104F0A37401F0A374A751
:10171B00F07B067DA87F01120E499001A8E0FE9098
:10172B0001A7E07C002400FFEC3EF99001A4E0FB54
:10173B00A3E0FAA3E0C98FF012024B9001AAE0FEDE
:10174B009001A9E02400FFEC3EFE9001A4E0FBA376
:10175B00E0FAA3E0F9900002EE8FF012026A90011A
:10176B00ACE0FE9001ABE02400FFEC3E9000048F58
:10177B00F012026A7F01227F002290014FEBF0A34F
:10178B00EAF0A3E9F09001D17401F0A37401F0A386
:10179B007458F07B017D2F7F01120E49900158E0A8
:1017AB00FF30E60890015E7440F08007EF543F90E5
:1017BB00015EF0E490015FF090015EE0FFA3E0C3F7
:1017CB009F40030218979001D17401F0A37401F0AC
:1017DB00A37458F07B067DA87F01120E4990015827
:1017EB00E0FF90014FE0FBA3E0FAA3E0F990015F6B
:1017FB00E0FEF582758300EF1201DB90015AE0FFEA
:10180B00900152E0FBA3E0FAA3E0F98E827583000E
:10181B00EF1201DB90015CE0FF900155E0FBA3E0D0
:10182B00FAA3E0F98E82758300EF1201DB90015F62
:10183B00E004F0900159E0FF90014FE0FBA3E0FAC8
:10184B00A3E0F990015FE0FEF582758300EF1201D2
:10185B00DB90015BE0FF900152E0FBA3E0FAA3E019
:10186B00F98E82758300EF1201DB90015DE0FF9032
:10187B000155E0FBA3E0FAA3E0F98E82758300EF3C
:10188B001201DB90015FE004F00217C390015EE0F0
:10189B00FF229001D17401F0A37402F0A37407F03E
:1018AB007B037D957F01120E49900208E07D00FCC1
:1018BB00A3E07E007810C333CE33CED8F9FFEE4CC5
:1018CB00FEEF4DFF900207E0FDEEEF4DFDAC0690F5
:1018DB0001FCE0FEA3E0FFC3ED9FFBEC9EFAD3EB14
:1018EB009464EA94004001229001FCECF0A3EDF02B
:1018FB00AE04FF229001527401F0A37400F0A374A4
:10190B0040F0A37401F0A37400F0A37480F07B018A
:10191B007A0079001217859000C0EFF0119D9001AD
:10192B009DEEF0A3EFF0D394C8EE94004003120F9A
:10193B000A90019FE004F0E0C39478400C315D9075
:10194B0001A3EFF0E490019FF090019DE0FEA3E076
:10195B00FF22E4FF31C79001A0EFF0A3E07002A3D8
:10196B00E07043EFD39401402F90019BE004F070A3
:10197B000690019AE004F0D390019BE0941490013F
:10198B009AE09400400FE4F0A3F09001A1F0A304BF
:10199B00F0EF13FF227F0022E490019AF0A3F09066
:1019AB0001A1F0A304F0EFD3940250037F0022EFC8
:1019BB00D3940550037F01227F0222229001D17420
:1019CB0001F0A37402F0A37417F07B017D6F7F010C
:1019DB00120E49900217E0FF229001D17401F0A37F
:1019EB007402F0A37416F07B017D067F01120E4981
:1019FB00900216E0FF5406603FEF30E10C9001FBC4
:101A0B00E0FF9001FAE05F6013900216E030E228ED
:101A1B009001FBE0FF9001FAE05F601C9001FAE09F
:101A2B00FFF4FEA3E05EFEEF54AF4E9001FAF0FE22
:101A3B00FB7D087F01120D2C900216E0FE30E103B6
:101A4B007F0122EE30E2037F02227F002231E490FD
:051A5B00019CEFF022E8
:00000001FF
