:0D00000002029C32C2CF327F002222814BCF
:0200130080EE7D
:0E001B008010758F0B7586FE439C04D2AF22B9
:0C002B0080D7C0E0E4F58BF58DD0E0320A
:10003B0081C890009AE0A3F090009A6002E4F0224D
:09004B0043E10175F690C2EF22B9
:10005B00C1FA5389F0438901538EF7758ACB758C9E
:10006B00FAD28CD2A9D2AF229188113D90009BE09D
:10007B0030E7F7C2AF80F3228F828E83E493FF22A7
:10008B00A157BB010689828A83E0225002E722BB7B
:10009B00FE02E32289828A83E49322BB010CE58270
:1000AB0029F582E5833AF583E0225006E92582F8AB
:1000BB00E622BBFE06E92582F8E222E58229F582DB
:1000CB00E5833AF583E49322BB010689828A83F0A8
:1000DB00225002F722BBFE01F322F8BB010DE58291
:1000EB0029F582E5833AF583E8F0225006E925826B
:1000FB00C8F622BBFE05E92582C8F222A3F8E0C5AB
:10010B00F025F0F0E582158270021583E0C838F017
:10011B00E822BB0110E58229F582E5833AF583E0FD
:10012B00F5F0A3E0225009E92582F886F008E622D3
:10013B00BBFE0AE92582F8E2F5F008E222E5832A04
:10014B00F583E993F5F0A3E99322F8BB0111E5825E
:10015B0029F582E5833AF583E8F0E5F0A3F0225028
:10016B0009E92582C8F608A6F022BBFE09E925821B
:10017B00C8F2E5F008F22275F008758200EF2FFF48
:10018B00EE33FECD33CDCC33CCC58233C5829BED64
:10019B009AEC99E58298400CF582EE9BFEED9AFD68
:1001AB00EC99FC0FD5F0D6E4CEFBE4CDFAE4CCF918
:1001BB00A88222B800C1B90059BA002DEC8BF0848B
:1001CB00CFCECDFCE5F0CBF97818EF2FFFEE33FE59
:1001DB00ED33FDEC33FCEB33FB10D703994004EB11
:1001EB0099FB0FD8E5E4F9FA227818EF2FFFEE33DD
:1001FB00FEED33FDEC33FCC933C910D7059BE99AEF
:10020B004007EC9BFCE99AF90FD8E0E4C9FAE4CC7F
:10021B00FB2275F010EF2FFFEE33FEED33FDCC33E9
:10022B00CCC833C810D7079BEC9AE899400AED9BD2
:10023B00FDEC9AFCE899F80FD5F0DAE4CDFBE4CCB1
:10024B00FAE4C8F922E8600FECC313FCED13FDEEE2
:10025B0013FEEF13FFD8F122ECF0A3EDF0A3EEF0B9
:10026B00A3EFF022EC8EF0A4CCC5F0CCCDF8EFA42C
:10027B00CEC5F02DFDE43CFCE8A42EC8C5F03DFD39
:10028B00E43CFCEFA4FFE5F028FEE43DFDE43CFC80
:10029B0022787FE4F6D8FD9000007FFF7E03E4F028
:1002AB00A3DFFCDEFA7581200202F1020073E493F6
:1002BB00A3F8E493A34003F68001F208DFF480294E
:1002CB00E493A3F85407240CC8C333C4540F44203D
:1002DB00C8834004F456800146F6DFE4800B01022C
:1002EB00040810204080900336E47E019360BCA389
:1002FB00FF543F30E509541FFEE493A360010ECF7A
:10030B0054C025E060A840B8E493A3FAE493A3F8A3
:10031B00E493A3C8C582C8CAC583CAF0A3C8C58263
:10032B00C8CAC583CADFE9DEE780BE42009600007B
:10033B0044009000000000440098000000004200C0
:10034B009C0000C1014100740041008A034100730D
:10035B00B241008CCD41008B324100750041008DC4
:10036B000041007200001001110012001300180070
:10037B0019001F002000210022002300240025006B
:10038B00260027002E0030003200330034003600E8
:10039B00370038003A003B003C003D003E003F0078
:1003AB00900099E004F0E075F00584E5F07005A38A
:1003BB00E04420F0900099E075F01984E5F07005A9
:1003CB00A3E04440F0900099E0B43207E4F0A3E0DE
:1003DB004480F02290009AE04401F0900098E004F1
:1003EB00F0E020E00790009AE04402F0900098E0E3
:1003FB0075F00584E5F0700790009AE04404F090E6
:10040B000098E075F00A84E5F0700790009AE044DC
:10041B0008F0900098E0B4140BE4F090009AE044DC
:10042B0010F071ABD3900097E09400900096E0949D
:10043B0000400CA3E024FFF0900096E034FFF02284
:10044B00C0E0C0F0C083C082C0D0758ACB758CFA77
:10045B0071DF90009DE004F0700690009CE004F0CA
:10046B00B284D0D0D082D083D0F0D0E03253890F79
:10047B00438910538EF7D28ED2ABD2AF22B1A6C224
:10048B0087C282C283D292D291D290D280C201B162
:10049B009A111DD10C900074E0C394014019C287CE
:1004AB00C282C283D292D291D290D280C201538F98
:1004BB00F7E4F5EC439B0243870280D922C0E0C0EE
:1004CB00F0C083C082C0D075D000C000C001C00294
:1004DB00C003C004C005C006C007AFECEF24FE701C
:1004EB004DD295114B7F04B1C390008EEEF0A3EF6C
:1004FB00F053E1FEC29590008EE0FEA3E0FF7C007E
:10050B007D32516F780C515090008BEFF0E0FFF47F
:10051B0004FEC374809E900073F0C374FF9F900021
:10052B008CF0900075E4F0900074F0438F0875EC3C
:10053B0000D007D006D005D004D003D002D001D014
:10054B0000D0D0D082D083D0F0D0E032C0E0C0F069
:10055B00C083C082C0D075D000C000C001C002C033
:10056B0003C004C005C006C007538FEF539BFD1299
:10057B0009F6B296D007D006D005D004D003D0022E
:10058B00D001D000D0D0D082D083D0F0D0E0327563
:10059B00E90875EA02439B02D2AF2275B12075B20E
:1005AB00DD7580EEE4F5B375B47F7590F875A09F9B
:1005BB00F5ACF5AD75B0FF22A2AF9200C2AF75C717
:1005CB00AA75C75543A380A20092AFEF540FF5E86D
:1005DB00C2EFD2EE20EEFDC2EFAFC3EF75F010A469
:1005EB00FFE5C2540F7C002FFFEC35F0FEA2AF925B
:1005FB0000C2AF75C7AA75C75553A37FA20092AFB0
:10060B0022A2AF9200C2AF75C7AA75C75543961009
:10061B00A20092AFA2AF9200C2AF75C7AA75C75521
:10062B00439604A20092AFA2AF9200C2AF75C7AAC5
:10063B0075C7555396FDA20092AFA2AF9200C2AF01
:10064B0075C7AA75C75553A37FA20092AFA2AF92ED
:10065B0000C2AF75C7AA75C755539FFEA20092AFD4
:10066B00A2AF9200C2AF75C7AA75C7555397DFA249
:10067B000092AF22A2AF9200C2AF75C7AA75C75541
:10068B00439620A20092AFA2AF9200C2AF75C7AA49
:10069B0075C7555396FBA20092AFA2AF9200C2AFA3
:1006AB0075C7AA75C7555396FDA20092AFA2AF921C
:1006BB0000C2AF75C7AA75C75553A37FA20092AFEF
:1006CB00A2AF9200C2AF75C7AA75C755539FFEA2C2
:1006DB000092AFA2AF9200C2AF75C7AA75C75553B0
:1006EB0096DFA20092AF2275E801C2EFD2EE22C0D4
:1006FB00E0C0F0C083C082C0D075D000C004C0067B
:10070B00C007AFC3EF75F010A4FFE5C2540F7C0018
:10071B002FFEEC35F09000D6F0A3CEF0C2EFD00751
:10072B00D006D004D0D0D082D083D0F0D0E03275B8
:10073B00C7AA75C75553A5FE75C7AA75C755539F4D
:10074B00FE22AD07AC06F18A75AF22ECF5A7AF051B
:10075B008FA675AEFF75C7AA75C75543A40180CF89
:10076B00AB07AA06F18A75AF21EAF5A7AF038FA6EF
:10077B00AF058FAE75C7AA75C75543A40180B07579
:10078B00C7AA75C755439F0175C7AA75C75543A51A
:10079B0001229000E2EEF0A3EFF0A3ECF0A3EDF05A
:1007AB00C2AFF16B9000E3E02401FF9000E2E03474
:1007BB0000FE9000E4E0FDF16BD2AF227F007E40A3
:1007CB00F14D7F01229000F37402F07F007E40F127
:1007DB004D7B017A0079F39000BD7402F0E4FDFCCF
:1007EB001208717F0122AD07AC06C2AF1183AB07B4
:1007FB00ED2401FFE43EFE1200837E00EFFE7C0041
:10080B00E42BFFEC3EFED2AF229000B1EBF0A3EA5B
:10081B00F0A3E9F0A3ECF0A3EDF0E49000B7F0F057
:10082B009000B6E0FFA3E0FEC39F50399000B5E007
:10083B002400FD9000B4E03440FCEE7E002DFFEE72
:10084B003CFE1200839000B1E0FBA3E0FAA3E0F9B9
:10085B009000B7E0F582758300EF1200E59000B7CA
:10086B00E004F080BB229000B8EBF0A3EAF0A3E920
:10087B00F0A3ECF0A3EDF0E49000BEF0F09000BD1F
:10088B00E0FFA3E0FEC39F50399000BCE02400FDC5
:10089B009000BBE03440FCEE7E002DFFEE3CFE9062
:1008AB0000B8E0FBA3E0FAA3E0F99000BEE0F5820C
:1008BB007583001200A6FD12076B9000BEE004F0DA
:1008CB0080BB229000DDEBF0A3EAF0A3E9F0A3EDEF
:1008DB00F07F007E4012074DE4A3F09000E0E0FFB4
:1008EB00A3E0FEC39F5036EE75F002A42400FFE593
:1008FB00F03440FE9000DDE0FBA3E0FAA3E0F990BA
:10090B0000E1E075F002A4F58285F08312011DFD74
:10091B00ACF012079D9000E1E004F080BE227B0159
:10092B007A0079767D0A809B31297B017A00797672
:10093B007D0A9000C6EBF0A3EAF0A3E9F0A3EDF07B
:10094B00E4A3F0A3F09000CAF0A3F09000C9E0FF7D
:10095B00A3E0FCA3E0FDC39FEC94005047ED25E022
:10096B00FFEC33FEE42FFFEE3440FE1207F1AC0632
:10097B00AD079000CBE025E0FF9000CAE033FE907E
:10098B0000C6E0FBA3E0FAA3E0F98F828E83EC8D27
:10099B00F01201559000CBE004F070069000CAE015
:1009AB0004F080A722ED4C601812008DFF9000D14F
:1009BB00E02FF0740129F9E43AFAED1D70011C8067
:1009CB00E49000D1E0FF227F007E40120083900074
:1009DB00F1EFF07F021200839000F2EFF09000F144
:1009EB00E0640260037F00227F0122900075E0FF2C
:1009FB00B418004002614F900A09F8282873020AC4
:100A0B0069020A77020A81020A8B020A95020A9F7F
:100A1B00020AA9020AB7020AC1020ACB020AD502CC
:100A2B000ADF020AE9020AF3020AFD020B0B020BB0
:100A3B0015020B1F020B29020B33020B3D020B4756
:100A4B00020A51020A5FC283D287C280900073E010
:100A5B00F586614FD28090008CE0F586614FD28095
:100A6B00D287C292900073E0F586614FD2929000CC
:100A7B008CE0F586614FC291900073E0F586614F73
:100A8B00D29190008CE0F586614FC290900073E09C
:100A9B00F586614FD29090008CE0F586614FC2874E
:100AAB00D282C292900073E0F586614FD292900091
:100ABB008CE0F586614FC291900073E0F586614F33
:100ACB00D29190008CE0F586807AC290900073E012
:100ADB00F5868070D29090008CE0F5868066C2809F
:100AEB00900073E0F586805CD28090008CE0F586F8
:100AFB008052C282D283C292900073E0F58680440A
:100B0B00D29290008CE0F586803AC291900073E00F
:100B1B00F5868030D29190008CE0F5868026C290CD
:100B2B00900073E0F586801CD29090008CE0F586E7
:100B3B008012C280900073E0F5868008D28090000E
:100B4B008CE0F586EF20E008900075E004F0801C47
:100B5B00900072E004F0E0C39405400AE4F09000CA
:100B6B0075E004F08006900075E014F0900075E0DD
:100B7B00C394184008E4F0900074E004F022900055
:100B8B00E612026353B1BF53B2BF53B17F53B27F6F
:100B9B0075985243878053C4F843C4209000E6E015
:100BAB00F8A3E0F9A3E0FAA3E0FB7F407E427D0FC0
:100BBB007C001201BEC374FF9FFF74FF9EFEE49D79
:100BCB00FDE49CFC78081202508FC69000E6E0F81A
:100BDB00A3E0F9A3E0FAA3E0FB7F407E427D0F7C0C
:100BEB00001201BEC374FF9FFF74FF9EFEE49DFDC8
:100BFB00E49CFCEFE48FC543C408223098FDAF9909
:100C0B00C29822C2998F993099FD229000EEEBF099
:100C1B00A3EAF0A3E9F0E4FEEEC39D50199000EEB9
:100C2B00E0FBA3E0FAA3E0F98E827583001200A625
:100C3B00FF910E0E80E22290009FECF0A3EDF0A34B
:100C4B00EAF0A3EBF0E4FEFD0E2440F582E4340061
:100C5B00F58374AAF00E74402401F582E43400F598
:100C6B008374AAF00E74402402F582E43400F583F9
:100C7B00EFF00E74402403F582E43400F583E4F0C6
:100C8B0090009FE0FF0E74402404F582E43400F5DD
:100C9B0083EFF09000A0E0FF0E74402405F582E492
:100CAB003400F583EFF09000A1E0FF0E74402406B2
:100CBB00F582E43400F583EFF09000A2E0FF0E74B0
:100CCB00402407F582E43400F583EFF09000A3E0B5
:100CDB00FF0E74402408F582E43400F583EFF090A6
:100CEB0000A4E0FF0E74402409F582E43400F58380
:100CFB00EFF09000A5E0FF0E7440240AF582E43477
:100D0B0000F583EFF09000A6E0FF0E7440240BF586
:100D1B0082E43400F583EFF09000A7E0FF0E7440FF
:100D2B00240CF582E43400F583EFF09000A8E0FF8B
:100D3B000E7440240DF582E43400F583EFF0EE24BD
:100D4B00FC900043F0E4FFEFC39E501074402FF56E
:100D5B0082E43400F583E02DFD0F80EBAF05AD068B
:100D6B000E74402DF582E43400F583EFF07B017AAD
:100D7B00007940AF06AD078116AD07AC06C299EC02
:100D8B00F5993099FDC299AF058F993099FD229055
:100D9B0000EA120263D2FE9000EAE0F8A3E0F9A3A6
:100DAB00E0FAA3E0FB7F407E427D0F7C001201BE88
:100DBB00C374FF9FFF74FF9EFEE49DFDE49CFC78D3
:100DCB00081202508FC69000EAE0F8A3E0F9A3E006
:100DDB00FAA3E0FB7F407E427D0F7C001201BEC375
:100DEB0074FF9FFF74FF9EFEE49DFDE49CFCEFE40B
:100DFB008FC543C40822C2F98F9A30F9FD22AD0783
:100E0B00AC06C2F9ECF59A30F9FDC2F9AF058F9A31
:100E1B0030F9FD229000F6741DF0E49000F5F0908F
:100E2B0000F6E0FF9000F5E0C39F5031E0FF25E0B6
:100E3B002471F582E43403F583E493FDEF75F0023E
:100E4B00A42472F9740335F0FA7BFF9000AE7401A1
:100E5B00F07F18D1699000F5E004F080C222900079
:100E6B00A9EFF09000ABEBF0A3EAF0A3E9F0F1AF40
:100E7B009000A9E0FF25E0FFF178EF70028052AF00
:100E8B0005F178EF70028049E49000AFF0A3F09089
:100E9B0000AEE0FFC39000B0E09F7480F89000AF0D
:100EAB00E0648098502B9000ABE0FBA3E475F0015D
:100EBB00120107A9F0FA12008DFFF178EF70028092
:100ECB00109000B0E004F070069000AFE004F080EA
:100EDB00BEC2947F037E00F1C4D293D294229000C1
:100EEB00BFEFF09000C1EBF0A3EAF0A3E9F0F1AF94
:100EFB009000BFE0FF25E0FFF178EF700280D2AFEA
:100F0B0005F178EF700280C9F1AF9000BFE0FF25CB
:100F1B00E004FFF178EF700280B7E49000C5F09029
:100F2B0000C4E014FFA3E0C39F50217F0112100DFA
:100F3B009000C1E0FBA3E475F001120107A9F0FAE0
:100F4B00EF1200D39000C5E004F080D3E4FF121041
:100F5B000D9000C1E0FBA3E475F001120107A9F0AD
:100F6B00FAEF1200D343B41053B3EFC1DCE4FEEF3E
:100F7B0030E704D2948002C294D293C293EF25E05F
:100F8B00FF0EEEB408E953B4EF43B310D293A2941F
:100F9B00E433FEC29343B41053B3EF70047F01806C
:100FAB00027F0022D294D2937F0A7E00F1C4C294B6
:100FBB007F0A7E00F1C4C29322EF1FAC0670011EA4
:100FCB004C70F6227B017A0079209000C47403F0F8
:100FDB007D157F18C1E97B017A0079F79000C47405
:100FEB0001F07D107F18D1E99000F7E054FBF07B06
:100FFB00017A0079F79000AE7401F07D107F180232
:10100B000E69AD07E4FB53B4EF43B3107F01FE123F
:10101B000FC4E4FFD293EB25E0FB3094034401FBB8
:10102B00C2930FEFB408ED43B41053B3EFED60046C
:10103B00C2948002D294D2937F017E00120FC4C25D
:0A104B009353B4EF43B310AF032238
:00000001FF
