:0A000000020397020828D201222211
:06000B00020B2CC20122D1
:06001300020F65C2CF32AE
:10001B00020FF6007F017E86DEFEDFFC227F0022D0
:0E002B0080E9758F0B7586FE439C04D2AF22D0
:10003B0002100005A41F370FFF0031350093110983
:10004B00013C8215480417D288D289D2A8D2AF229C
:10005B00021467900253EBF0EF60117B017A027987
:10006B00539002597401F07F1812177A7F01229076
:0D007B00030DE0A3F090030D6002E4F022FD
:10008B000210F4E709F608DFFA8046E709F208DF09
:10009B00FA803E88828C83E709F0A3DFFA8032E393
:1000AB0009F608DFFA8078E309F208DFFA80708836
:1000BB00828C83E309F0A3DFFA806489828A83E070
:1000CB00A3F608DFFA805889828A83E0A3F208DF5F
:1000DB00FA804C80D280FA80C680D4806980F2800E
:1000EB0033801080A680EA809A80A880DA80E28034
:1000FB00CA803389828A83ECFAE493A3C8C582C889
:10010B00CCC583CCF0A3C8C582C8CCC583CCDFE9F2
:10011B00DEE7800D89828A83E493A3F608DFF9EC8E
:10012B00FAA9F0EDFB2289828A83ECFAE0A3C8C519
:10013B0082C8CCC583CCF0A3C8C582C8CCC583CC40
:10014B00DFEADEE880DB89828A83E493A3F208DFAF
:10015B00F980CC88F0EF60010E4E60C388F0ED247F
:10016B0002B4040050B9F582EB2402B4040050AF82
:10017B0023234582239000DE73BB010689828A8389
:10018B00E0225002E722BBFE02E32289828A83E44B
:10019B009322BB010CE58229F582E5833AF583E0D6
:1001AB00225006E92582F8E622BBFE06E92582F8F5
:1001BB00E222E58229F582E5833AF583E49322BBBB
:1001CB00010689828A83F0225002F722BBFE01F3DB
:1001DB0022F8BB010DE58229F582E5833AF583E828
:1001EB00F0225006E92582C8F622BBFE05E92582DE
:1001FB00C8F222EF8DF0A4A8F0CF8CF0A428CE8DFE
:10020B00F0A42EFE22A3F8E0C5F025F0F0E5821550
:10021B008270021583E0C838F0E822BB0110E5823A
:10022B0029F582E5833AF583E0F5F0A3E022500946
:10023B00E92582F886F008E622BBFE0AE92582F85A
:10024B00E2F5F008E222E5832AF583E993F5F0A3C2
:10025B00E99322BB010A89828A83F0E5F0A3F0229D
:10026B005006F709A7F01922BBFE06F3E5F009F3D8
:10027B001922F8BB0111E58229F582E5833AF58352
:10028B00E8F0E5F0A3F0225009E92582C8F608A6AC
:10029B00F022BBFE09E92582C8F2E5F008F22275CF
:1002AB00F008758200EF2FFFEE33FECD33CDCC334C
:1002BB00CCC58233C5829BED9AEC99E58298400CB4
:1002CB00F582EE9BFEED9AFDEC99FC0FD5F0D6E492
:1002DB00CEFBE4CDFAE4CCF9A88222B800C1B90078
:1002EB0059BA002DEC8BF084CFCECDFCE5F0CBF9D9
:1002FB007818EF2FFFEE33FEED33FDEC33FCEB33D1
:10030B00FB10D703994004EB99FB0FD8E5E4F9FAFE
:10031B00227818EF2FFFEE33FEED33FDEC33FCC9E3
:10032B0033C910D7059BE99A4007EC9BFCE99AF976
:10033B000FD8E0E4C9FAE4CCFB2275F010EF2FFFE5
:10034B00EE33FEED33FDCC33CCC833C810D7079B4F
:10035B00EC9AE899400AED9BFDEC9AFCE899F80FB2
:10036B00D5F0DAE4CDFBE4CCFAE4C8F922E8600F6F
:10037B00ECC313FCED13FDEE13FEEF13FFD8F122CC
:10038B00ECF0A3EDF0A3EEF0A3EFF022787FE4F610
:10039B00D8FD9000007FFF7E03E4F0A3DFFCDEFAC4
:1003AB007581200203EC020E0CE493A3F8E493A3F3
:1003BB004003F68001F208DFF48029E493A3F8549C
:1003CB0007240CC8C333C4540F4420C8834004F41F
:1003DB0056800146F6DFE4800B0102040810204032
:1003EB0080900431E47E019360BCA3FF543F30E561
:1003FB0009541FFEE493A360010ECF54C025E060A7
:10040B00A840B8E493A3FAE493A3F8E493A3C8C574
:10041B0082C8CAC583CAF0A3C8C582C8CAC583CA65
:10042B00DFE9DEE780BE420309000044030300005E
:10043B00000044030B0000000042030F0000C10149
:10044B00C1024102D6004102EC034102D58F4102A9
:10045B00EEF04102ED0F4102D7004102EF004102E5
:10046B00D400420341000041033E004103400041E0
:10047B00033F00410300004202F100004202FE0074
:10048B00004102FC004102F4004102F0004102FD78
:10049B00004202F500004202F900004102F3004164
:1004AB0002FB004202F700000010011100120013C2
:1004BB0000180019001F00204721002200230024F0
:1004CB00002500260027002E0030003200330034B8
:1004DB00003600370038003A003B003C003D003E40
:1004EB00003F0090030CE004F0E075F00584E5F0AC
:1004FB007005A3E04420F090030CE075F01984E53F
:10050B00F07005A3E04440F090030CE0B43207E434
:10051B00F0A3E04480F022121350111EC287C28256
:10052B00C283D292D291D290D280C202B1B8F15989
:10053B007F007EC27D017C001219A31152F1DF01F5
:10054B002D90030DE04401F090030BE004F0E0204C
:10055B00E00790030DE04402F090030BE075F0050B
:10056B0084E5F0700790030DE04404F090030BE07A
:10057B0075F00A84E5F0700790030DE04408F090E5
:10058B00030BE0B4140BE4F090030DE04410F09176
:10059B00EED390030AE09400900309E09400400C22
:1005AB00A3E024FFF0900309E034FFF022E4900075
:1005BB000BF0780C7C007D017BFF7A00793EFE7F8F
:1005CB0007315E78137C007D017BFF7A0079457ED5
:1005DB00007F04315E78177C007D017BFF7A007908
:1005EB00497E007F02315E9000197482F0781A7C8C
:1005FB00007D017BFF7A00794B7E007F07315E7FA8
:10060B0008121C3390000BEFF07F10121C8E900021
:10061B000BEFF0E4FD7F47121CEA90000BEFF07D2F
:10062B00017F02D15790000BEFF0900019E0FFF122
:10063B00E890000BEFF07B017A007913121FD2E4E4
:10064B009002FEF0A3F090000BE0FF22900022ED51
:10065B00F0900021EFF070287B0190025604F0A37C
:10066B007400F0A37423F07D2E7F01F16F900023B3
:10067B00E0543FF0E0F0E0FB7D2E7F01115E806DDA
:10068B00900021E0640170357B0190025604F0A3C9
:10069B007400F0A37423F07D2E7F01F16F90002383
:1006AB00E0543FF0E0FB7D2E7F01115E900023E0D4
:1006BB004440F0E0FB7D2E7F01115E8030900021E5
:1006CB00E0640270287B0190025604F0A37400F0E2
:1006DB00A37423F07D2E7F01F16F900023E0543F34
:1006EB00F0E04480F0E0FB7D2E7F01115E90002254
:1006FB00E070287B0190025604F0A37400F0A37401
:10070B0023F07D247F01F16F900023E05440F0E053
:10071B00F0E0FB7D247F01115E8030900022E064CD
:10072B000170287B0190025604F0A37400F0A374AF
:10073B0023F07D247F01F16F900023E05440F0E023
:10074B004440F0E0FB7D247F01115E7F0122538941
:10075B00F0438901438E08758A80758CC1D28CD287
:10076B00A9D2AF22AE03EF6015900256E0FBA3E0D7
:10077B00FAA3E0F990025EEEF07F1812183F7F01AA
:10078B002290035D74FFF09002567401F0A3740382
:10079B00F0A3745DF07B017D687F01F16F90035DC9
:1007AB00E044A5F0E0FB7D687F01115E900256747A
:1007BB0001F0A37403F0A3745DF07B017D247F0132
:1007CB00F16F90035DE04480F0E0FB7D247F01112D
:1007DB005E7F0122D28AD28BD2AAD2AF2290002185
:1007EB00EFF0FB7D257F01115E9002567401F0A3A3
:1007FB007400F0A37422F07B017D257F0112076F3B
:10080B00900021E0FFA3E0B507037F01227F0022C8
:10081B0053890F438910D28ED2ABD2AF22C0E0C026
:10082B00F0C083C082C0D075D000C000C001C00230
:10083B00C003C004C005C006C007C2891164D0073D
:10084B00D006D005D004D003D002D001D000D0D038
:10085B00D082D083D0F0D0E032E49000E6F07D3C43
:10086B007F46FE11A09000E6EFF0BF01229002F050
:10087B00E0701604F0120006E49002F5F0A3F0907D
:10088B0002F9F0A3F09002F3F09002FD7401F090E6
:10089B0000E6E0FF229000E7EEF0A3EFF0A3EDF00F
:1008AB00E4A3F0A3F0A3F0A3F09001AFF0A3F090BA
:1008BB000231F0A3F0A3F07B0190023704F0A37494
:1008CB0001F0A3742EF0A3EBF0A37401F0A3746EEC
:1008DB00F07A0079EE914A9001AEEFF0E49000EAE5
:1008EB00F09001AEE0FF9000EAE0F9C39F400221D7
:1008FB007B742E29F582E43401F583E0FD3395E01A
:10090B00FCAF05FE1201FEAA06AB0774EE29F582B9
:10091B00E43400F583E0FD3395E0FCAF05FE1201F6
:10092B00FEEF2BFBEE3AFA746E29F582E43401F5F7
:10093B0083E0FD3395E0FCAF05FE1201FEEF2BFFCC
:10094B00EE3AFE9001AFF0A3EFF0715A9001AFEECB
:10095B00F0A3EFF09000EAE025E024B1F582E43457
:10096B0001F583EEF0A3EFF09000EAE004F001EC68
:10097B00E49000ECF09000EA04F09001AEE014FF7C
:10098B009000EAE0FEC39F40026112EE25E024B323
:10099B00F582E43401F583E0FEA3E0FF9000E7E08D
:1009AB00FCA3E0FDD3EF9DEE9C500241B19000EA19
:1009BB00E025E024AFF582E43401F583E0FEA3E00B
:1009CB00C3941EEE9400400241B19000EDE0600232
:1009DB0041A9900232F0A3F09000EBF09000EAE016
:1009EB00F914FFA3E0C39F40024187E0FF25E024F9
:1009FB00B3F582E43401F583E0FCA3E0FDEF25E0E1
:100A0B0024B1F582E43401F583E0FEA3E0FFD39D2E
:100A1B00EE9C40299000EBE025E024B3F582E43412
:100A2B0001F583E0FCA3E0FDC3EF9DFFEE9CFE9080
:100A3B000233E02FF0900232E03EF080379000EB73
:100A4B00E0FF25E024B1F582E43401F583E0FCA35B
:100A5B00E0FDEF25E024B3F582E43401F583E0FEFD
:100A6B00A3E0C39DFFEE9CFE900233E02FF09002BB
:100A7B0032E03EF09000EBE004F021E79000E9E07B
:100A8B00FFD3900233E09F900232E0940040089035
:100A9B00033FE004F080709000ECE9F080089000D8
:100AAB00EAE09000ECF09000ECE0FF60529000EA7E
:100ABB00E0FE25E024B3F582E43401F583E0FCA3EA
:100ACB00E0FDEE25E024AFF582E43401F583E0FA96
:100ADB00A3E0C39DFDEA9CFC9000E8E024F6FB90AC
:100AEB0000E7E034FFFAD3ED9BEC9A40129000EA5A
:100AFB00E09FC3940550089000ED7401F0800890BE
:100B0B0000EAE004F021859000EDE0B401089002CA
:100B1B00317401F08005E4900231F0900231E0FF76
:100B2B0022C0E0C0F0C083C082C0D0758A80758CB3
:100B3B00C112054C900310E004F0700690030FE017
:100B4B0004F0B296D0D0D082D083D0F0D0E03290E7
:100B5B000234EEF0A3EFF0E4F9A3F0A3F0A3EEF070
:100B6B00A3EFF02400FFE43EC313FEEF13FFA3EE4D
:100B7B00F0A3EFF090023AE0FCA3E0FDFFAE04120D
:100B8B0001FE900234E0FAA3E0FBC39FEA9E5011F2
:100B9B0090023AE0FFA3E0900238CFF0A3EFF08091
:100BAB000F90023AE0FFA3E0900236CFF0A3EFF0F4
:100BBB00900236E0FEA3E0FFC3900239E09FFF9066
:100BCB000238E09EFEEF64014E7047900236E0FC67
:100BDB00A3E0FDFFAE041201FEC3EB9FFBEA9EFAFE
:100BEB00A3E0FCA3E0FDFFAE041201FE900234E093
:100BFB00FCA3E0FDC3EF9DFFEE9CFED3EF9BEE9AB3
:100C0B004007A3E0FEA3E0FF22900238E0FEA3E042
:100C1B00FF22900236E0FEA3E0FF900239E02FFFA7
:100C2B00900238E03EC313FEEF13FF90023AEEF052
:100C3B00A3EFF009E964C86002617FE4FEFF229034
:100C4B000234EBF0A3EAF0A3E9F09002567401F042
:100C5B00A37402F0A3743DF07B017D2F7F0112077B
:100C6B006F90023DE0FF30E6089002437420F08065
:100C7B0007EF541F900243F0E4900244F0900243BC
:100C8B00E0FFA3E0C39F4002A13D9002567401F028
:100C9B00A37402F0A3743DF07B067DA87F011207BD
:100CAB006F90023EE0FE90023DE07C002400FFECE2
:100CBB003EFE900234E0FBA3E0FAA3E0F99002447D
:100CCB00E075F002A4F58285F083EE8FF012027DC1
:100CDB00900240E0FE90023FE02400FFEC3EFE90CD
:100CEB000237E0FBA3E0FAA3E0F9900244E075F0D1
:100CFB0002A4F58285F083EE8FF012027D90024202
:100D0B00E0FE900241E02400FFEC3EFE90023AE050
:100D1B00FBA3E0FAA3E0F9900244E075F002A4F51E
:100D2B008285F083EE8FF012027D900244E004F096
:100D3B008188900243E0FF229002377401F0A37484
:100D4B0000F0A37447F0A37401F0A37400F0A37434
:100D5B0087F07B017A007907914A9000C7EFF01278
:100D6B0020789002F7EEF0A3EFF0D394C8EE940046
:100D7B004002F1C79002FBE004F0E0C39478400C12
:100D8B00B1A0900300EFF0E49002FBF09002F7E0CB
:100D9B00FEA3E0FF22E4FFF1AA9002FCEFF0900229
:100DAB00FEE07002A3E07043EFD39401402F90025A
:100DBB00F2E004F070069002F1E004F0D39002F23E
:100DCB00E094149002F1E09400400FE4F0A3F09053
:100DDB0002FEF0A304F0EF13FF227F0022E4900247
:100DEB00F1F0A3F09002FEF0A304F0EFD3940250C5
:100DFB00037F0022EFD3940550037F01227F022251
:100E0B0022E4900006F012052212007A90030EE005
:100E1B0030E14B9002377401F0A37400F0A374021D
:100E2B00F0A37401F0A37400F0A37404F07B017AB7
:100E3B00007900914A900000E0FCA3E0FDA3E0FAEA
:100E4B00A3E0FBA3E0FFA3E090000CCFF0A3EFF037
:100E5B00E4A3F0A3F0A3F0A3F07FF1121A569003D2
:100E6B000EE030E31130010E900006E004F0E0B428
:100E7B000504E4F0D19490030EE030E602B1439008
:100E8B00030EE030E783808122E4900007F09002AC
:100E9B00F0E064016002E1559002F6E004F07006A8
:100EAB009002F5E004F09002F5E0FEA3E0FFC3949E
:100EBB000AEE940050229002FDE0B4011BE4F09086
:100ECB0002FAE02FF09002F9E03EF0E49002F5F028
:100EDB00A3F09002F3E004F07F01F158900007EFCC
:100EEB00F09002F5E0FEA3E0FFC3940AEE940050ED
:100EFB000FC39002FAE094649002F9E09400400969
:100F0B00900007E0C394024012C3EF940AEE9400E2
:100F1B004038900007E0D39401402F12000EE4906C
:100F2B0002F0F09002F5F0A3F09002F9F0A3F0902C
:100F3B000007E0D39400400CE4FFF158900007EF5A
:100F4B00F07F00229002F3E0FF227F0022EF70047B
:100F5B0090033FF090033FE0FF22C0E0C0F0C0835E
:100F6B00C082C0D075D000C000C001C002C003C099
:100F7B0004C005C006C007C28BF1A1D007D006D0B4
:100F8B0005D004D003D002D001D000D0D0D082D075
:100F9B0083D0F0D0E0321220DA9002F4EFF02290FE
:100FAB0002567401F0A37400F0A374C8F07B017DAA
:100FBB006F7F0112076F9000C8E0FF2290025674FA
:100FCB0001F0A37400F0A374C8F07B017D107F01C6
:100FDB0012076F9000C8E04404F0E0FB7D107F0126
:100FEB0012005EE4900341F0A3F022C0E0E4F58B25
:100FFB00F58DD0E032C0E0C0F0C083C082C0D075A8
:10100B00D000C000C001C002C003C004C005C006B0
:10101B00C007AFECEF24FE7060D29511A27F0411D4
:10102B00ABEEC4F854F0C868FEEFC4540F48FF9001
:10103B000301EEF0A3EFF0C374FF9FF0E49E900367
:10104B0001F053E1FEC295E0FEA3E0FF7C007D0FB3
:10105B001201FEEE9002EDF0E0FFF404FEC374808B
:10106B009E9002D5F0C374FF9F9002EEF09002D7D2
:10107B00E4F09002D6F0438F0875EC00D007D00651
:10108B00D005D004D003D002D001D000D0D0D08274
:10109B00D083D0F0D0E03243E10175F690C2EF225D
:1010AB00A2AF9200C2AF75C7AA75C75543A380A262
:1010BB000092AFEF540FF5E8C2EFD2EE20EEFDC277
:1010CB00EFAFC3EF75F010A4FFE5C2540F7C002FF8
:1010DB00FFEC35F0FEA2AF9200C2AF75C7AA75C781
:1010EB005553A37FA20092AF22C0E0C0F0C083C0D3
:1010FB0082C0D075D000C000C001C002C003C004C4
:10110B00C005C006C007538FEF539BFD3134D0078A
:10111B00D006D005D004D003D002D001D000D0D05F
:10112B00D082D083D0F0D0E0329002D7E0FFB41859
:10113B000040026111901147F82828730211B20286
:10114B0011CB0211D50211EA0211F402120902129B
:10115B001302122C02123602124B02125502126AA1
:10116B000212740212890212930212AC0212B6021C
:10117B0012CB0212D50212EA0212F4021309021167
:10118B008F0211A89002D4E030E008C283D287C24C
:10119B00808002D2809002D5E0F5866111D28090DA
:1011AB0002EEE0F58661119002D4E030E008D280C7
:1011BB00D287C2928002D2929002D5E0F58661115D
:1011CB00D2929002EEE0F58661119002D4E030E00D
:1011DB0004C2918002D2919002D5E0F5866111D2C2
:1011EB00919002EEE0F58661119002D4E030E004BC
:1011FB00C2908002D2909002D5E0F5866111D29018
:10120B009002EEE0F58661119002D4E030E008C266
:10121B0087D282C2928002D2929002D5E0F586618B
:10122B0011D2929002EEE0F58661119002D4E0307B
:10123B00E004C2918002D2919002D5E0F586611153
:10124B00D2919002EEE0F58661119002D4E030E08D
:10125B0004C2908002D2909002D5E0F5866111D243
:10126B00909002EEE0F58661119002D4E030E0043C
:10127B00C2808002D2809002D5E0F5866111D280C7
:10128B009002EEE0F586807E9002D4E030E008C25A
:10129B0082D283C2928002D2929002D5E0F58680F0
:1012AB0065D2929002EEE0F586805B9002D4E0303E
:1012BB00E004C2918002D2919002D5E0F58680467F
:1012CB00D2919002EEE0F586803C9002D4E030E0C3
:1012DB0004C2908002D2909002D5E0F5868027D28E
:1012EB00909002EEE0F586801D9002D4E030E00491
:1012FB00C2808002D2809002D5E0F5868008D28031
:10130B009002EEE0F586EF20E0089002D7E004F0C3
:10131B0080219002D4E075F00584AFF0BF040890F3
:10132B0002D7E004F080069002D7E014F09002D4CC
:10133B00E004F09002D7E0C394184008E4F0900268
:10134B00D6E004F02275B12075B2DD7580EEE4F5C0
:10135B00B375B47F7590F875A09FF5ACF5AD75B00E
:10136B00FF22A2AF9200C2AF75C7AA75C7554396AD
:10137B0010A20092AFA2AF9200C2AF75C7AA75C7F9
:10138B0055439604A20092AFA2AF9200C2AF75C7AD
:10139B00AA75C7555396FDA20092AFA2AF9200C299
:1013AB00AF75C7AA75C75553A37FA20092AFA2AF63
:1013BB009200C2AF75C7AA75C755539FFEA2009284
:1013CB00AFA2AF9200C2AF75C7AA75C7555397DFCF
:1013DB00A20092AF22A2AF9200C2AF75C7AA75C787
:1013EB0055439620A20092AFA2AF9200C2AF75C731
:1013FB00AA75C7555396FBA20092AFA2AF9200C23B
:10140B00AF75C7AA75C7555396FDA20092AFA2AF91
:10141B009200C2AF75C7AA75C75553A37FA200929E
:10142B00AFA2AF9200C2AF75C7AA75C755539FFE47
:10143B00A20092AFA2AF9200C2AF75C7AA75C755F3
:10144B005396DFA20092AF2275E90875EA02439B1F
:10145B0002D2AF2275E801C2EFD2EE22C0E0C0F09B
:10146B00C083C082C0D075D000C004C006C007AF17
:10147B00C3EF75F010A4FFE5C2540F7C002FFEECF8
:10148B0035F0900260F0A3CEF0C2EFD007D006D0BB
:10149B0004D0D0D082D083D0F0D0E03275C7AA75FB
:1014AB00C75553A5FE75C7AA75C755539FFE22ADE9
:1014BB0007AC0691F775AF22ECF5A7AF058FA675B4
:1014CB00AEFF75C7AA75C75543A40180CFAB07AA5A
:1014DB000691F775AF21EAF5A7AF038FA6AF058F7E
:1014EB00AE75C7AA75C75543A40180B075C7AA7559
:1014FB00C755439F0175C7AA75C75543A5012290D0
:10150B000343EEF0A3EFF0A3ECF0A3EDF0C2AF9129
:10151B00D8900344E02401FF900343E03400FE9095
:10152B000345E0FD91D8D2AF22900339EBF0A3EA4B
:10153B00F0A3E9F0A3EDF07F007E4091BAE4A3F0B5
:10154B0090033CE0FFA3E0FEC39F5035EE75F00225
:10155B00A42400FFE5F03440FE900339E0FBA3E048
:10156B00FAA3E0F990033DE075F002A4F58285F053
:10157B0083120226FDACF0B10A90033DE004F0802B
:10158B00BF227F007E4091BA7F01227B017A0279D4
:10159B00D87D0A8094B1967B017A0279D87D0A9026
:1015AB000328EBF0A3EAF0A3E9F0A3EDF0E4A3F03A
:1015BB00A3F090032CF0A3F090032BE0FFA3E0FC2F
:1015CB00A3E0FDC39FEC94005046ED25E0FFEC3308
:1015DB00FEE42FFFEE3440FED11CAC06AD079003AA
:1015EB002DE025E0FF90032CE033FE900328E0FB79
:1015FB00A3E0FAA3E0F98F828E83EC8DF012027DCB
:10160B0090032DE004F0700690032CE004F080A80A
:10161B0022AD07AC06C2AFD13EAB07ED2401FFE410
:10162B003EFED13E7E00EFFE7C00E42BFFEC3EFE47
:10163B00D2AF228F828E83E493FF227F007E40D134
:10164B003E900356EFF07F02D13E900357EFF090A0
:10165B000356E0640260037F00227F01229003584F
:10166B007402F07F007E4091BA7B017A0379589027
:10167B0003267402F0E4FDFCD1887F012290032144
:10168B00EBF0A3EAF0A3E9F0A3ECF0A3EDF0E49008
:10169B000327F0F0900326E0FFA3E0FEC39F503832
:1016AB00900325E02400FD900324E03440FCEE7E03
:1016BB00002DFFEE3CFE900321E0FBA3E0FAA3E03C
:1016CB00F9900327E0F58275830012019DFD91D8F7
:1016DB00900327E004F080BC2290031AEBF0A3EAFE
:1016EB00F0A3E9F0A3ECF0A3EDF0E4900320F0F00D
:1016FB0090031FE0FFA3E0FEC39F503890031EE052
:10170B002400FD90031DE03440FCEE7E002DFFEE27
:10171B003CFED13E90031AE0FBA3E0FAA3E0F99064
:10172B000320E0F582758300EF1201DC900320E0CB
:10173B0004F080BC22ED4C6018120184FF9003333F
:10174B00E02FF0740129F9E43AFAED1D70011C80C9
:10175B00E4900333E0FF22EF1FAC0670011E4C70C8
:10176B00F622C2947F037E00F162D293D294229030
:10177B000254EFF0900256EBF0A3EAF0A3E9F0F17C
:10178B00F2900254E0FF25E0FF121808EF70028080
:10179B00D1AF05121808EF700280C7E490025AF01F
:1017AB00A3F0900259E0FFC390025BE09F7480F8B6
:1017BB0090025AE0648098502C900256E0FBA3E410
:1017CB0075F001120210A9F0FA120184FF12180829
:1017DB00EF7002808D90025BE004F0700690025A6D
:1017EB00E004F080BDE16DD294D2937F0A7E00F1CC
:1017FB0062C2947F0A7E00121762C29322E4FEEF4C
:10180B0030E704D2948002C294D293C293EF25E0C6
:10181B00FF0EEEB408E953B4EF43B310D293A29486
:10182B00E433FEC29343B41053B3EF70047F0180D3
:10183B00027F0022900259EFF090025BEBF0A3EADB
:10184B00F0A3E9F01217F2900259E0FF25E0FF1127
:10185B0008EF700302176DAF051108EF7003021745
:10186B006D1217F2900259E0FF25E004FF1108EF0B
:10187B00700302176DE490025FF090025EE014FFBC
:10188B00A3E0C39F50207F0111D290025BE0FBA32A
:10189B00E475F001120210A9F0FAEF1201CA9002DE
:1018AB005FE004F080D4E4FF11D290025BE0FBA375
:1018BB00E475F001120210A9F0FAEF1201CA43B459
:1018CB001053B3EF02176DAD07E4FB53B4EF43B303
:1018DB00107F01FE121762E4FFD293EB25E0FB3081
:1018EB0094034401FBC2930FEFB408ED43B41053C0
:1018FB00B3EFED6004C2948002D294D2937F017E49
:10190B0000121762C29353B4EF43B310AF03227BA1
:10191B00017A02798290025E7403F07D157F1801C3
:10192B003F7B017A03795C90025E7401F07D107F3E
:10193B0018113F90035CE054FBF07B017A03795C58
:10194B009002597401F07D107F1802177A90035B97
:10195B00741DF0E490035AF090035BE0FF90035A80
:10196B00E0C39F5032E0FF25E024B4F582E4340459
:10197B00F583E493FDEF75F002A424B5F9740435F7
:10198B00F0FA7BFF9002597401F07F1812177A90CE
:10199B00035AE004F080C12290000B12038B53B169
:1019AB00BF53B2BF75985243878053C4F843C420CA
:1019BB0090000BE0F8A3E0F9A3E0FAA3E0FB7F4073
:1019CB007E427D0F7C001202E6C374FF9FFF74FF03
:1019DB009EFEE49DFDE49CFC78081203788FC69074
:1019EB00000BE0F8A3E0F9A3E0FAA3E0FB7F407E55
:1019FB00427D0F7C001202E6C374FF9FFF74FF9EB3
:101A0B00FEE49DFDE49CFCEFE48FC543C40822304B
:101A1B0098FDAF99C29822C2998F993099FD229067
:101A2B000012EBF0A3EAF0A3E9F0E4FEEEC39D5045
:101A3B0019900012E0FBA3E0FAA3E0F98E82758304
:101A4B000012019DFF51220E80E222900008ECF063
:101A5B00A3EDF0A3EAF0A3EBF0E4FEFD0E24A2F558
:101A6B0082E43402F58374AAF00E74A22401F58289
:101A7B00E43402F58374AAF00E74A22402F582E416
:101A8B003402F583EFF00E74A22403F582E43402E2
:101A9B00F583E4F0900008E0FF0E74A22404F582B5
:101AAB00E43402F583EFF0900009E0FF0E74A224FA
:101ABB0005F582E43402F583EFF090000AE0FF0EA7
:101ACB0074A22406F582E43402F583EFF090000B48
:101ADB00E0FF0E74A22407F582E43402F583EFF0E5
:101AEB0090000CE0FF0E74A22408F582E43402F59A
:101AFB0083EFF090000DE0FF0E74A22409F582E451
:101B0B003402F583EFF090000EE0FF0E74A2240A6E
:101B1B00F582E43402F583EFF090000FE0FF0E74D2
:101B2B00A2240BF582E43402F583EFF0900010E071
:101B3B00FF0E74A2240CF582E43402F583EFF090CF
:101B4B000011E0FF0E74A2240DF582E43402F5833C
:101B5B00EFF0EE24FC9002A5F0E4FFEFC39E5010D3
:101B6B0074A22FF582E43402F583E02DFD0F80EB98
:101B7B00AF05AD060E74A22DF582E43402F583EFAA
:101B8B00F07B017A0279A2AF06AD07412AAD07AC13
:101B9B0006C299ECF5993099FDC299AF058F993032
:101BAB0099FD2290034712038BD2FE900347E0F876
:101BBB00A3E0F9A3E0FAA3E0FB7F407E427D0F7C1C
:101BCB00001202E6C374FF9FFF74FF9EFEE49DFDAF
:101BDB00E49CFC78081203788FC6900347E0F8A3C7
:101BEB00E0F9A3E0FAA3E0FB7F407E427D0F7C008F
:101BFB001202E6C374FF9FFF74FF9EFEE49DFDE49B
:101C0B009CFCEFE48FC543C40822C2F98F9A30F9CC
:101C1B00FD22AD07AC06C2F9ECF59A30F9FDC2F91D
:101C2B00AF058F9A30F9FD22900021EFF0A374FFDE
:101C3B00F09002567401F0A37400F0A37422F07BB1
:101C4B00017D577F0112076F900022E054F3FF9044
:101C5B000021E04FA3F0E0FB7D577F0112005E9067
:101C6B0002567401F0A37400F0A37422F07B017D83
:101C7B000F7F0112076F900022E0B413037F012244
:101C8B007FFF22900021EFF0A374FFF090025674B7
:101C9B0001F0A37400F0A37422F07B017D237F017C
:101CAB0012076F900021E04488FF900023F0FB7D2A
:101CBB00237F0112005E9002567401F0A37400F0B2
:101CCB00A37422F07B017D237F0112076F90002309
:101CDB00E0FF900022E0B507037F01227FFF2290F7
:101CEB000021EFF0A3EDF06005E064017038900087
:101CFB0024740FF0F4F09002567401F0A37400F00A
:101D0B00A37423F07B017D1F7F0112076F900023CB
:101D1B00E0FFA3E0FEEF5E900023F0E0FB7D1F7F72
:101D2B000112005E8030900022E064027028A3F064
:101D3B007B0190025604F0A37400F0A37423F07D92
:101D4B001F7F0112076F900023E0440FF0E0FB7D33
:101D5B001F7F0112005E900022E0700E900021E0C8
:101D6B00FFC394975004EF440FF090002374FFF0DF
:101D7B00900021E0FB7D207F0112005E90025674E3
:101D8B0001F0A37400F0A37423F07B017D207F018D
:101D9B0012076F900021E0FF900023E0B507037F4F
:101DAB0001227FFF22900353EBF0A3EAF0A3E9F0AB
:101DBB00900353E0FBA3E0FAA3E0F912018470084F
:101DCB007D017F6791EA8006E4FD7F7791EA7D01D3
:101DDB007F02120657900353E0FBA3E0FAA3E0F94E
:101DEB0090000112019DFB7D217F0112005E90038B
:101DFB0053E0FBA3E0FAA3E0F990000212019DFB74
:101E0B007D257F0112005E900353E0FBA3E0FAA354
:101E1B00E0F990000312019DFB7D387F0112005EFB
:101E2B00900353E0FBA3E0FAA3E0F9900004120146
:101E3B009DFB7D3A7F0112005E900353E0FBA3E014
:101E4B00FAA3E0F990000512019DFB7D3B7F011287
:101E5B00005E900353E0FBA3E0FAA3E0F9900006C9
:101E6B0012019DFB7D3C7F0112005E7B907D237FE9
:101E7B000102005E900311EBF0A3EAF0A3E9F090EE
:101E8B0002567401F0A37403F0A37414F07B017D6C
:101E9B00277F0112076F900314E0540F640F7075C6
:101EAB007B0190025604F0A37403F0A37414F07B2F
:101EBB00067DA87F0112076F900315E0FE900314B7
:101ECB00E07C002400FFEC3EF9900311E0FBA3E063
:101EDB00FAA3E0C98FF012025E900317E0FE9003A5
:101EEB0016E02400FFEC3EFE900311E0FBA3E0FAAA
:101EFB00A3E0F9900002EE8FF012027D900319E03F
:101F0B00FE900318E02400FFEC3E9000048FF012CB
:101F1B00027D7F01227F002290034BEBF0A3EAF0BE
:101F2B00A3E9F0120184FB7D107F0112005E900388
:101F3B004BE0FBA3E0FAA3E0F990000112019DFB3B
:101F4B007D187F0112005E90034BE0FBA3E0FAA328
:101F5B00E0F990000212019DFB7D197F0112005EDA
:101F6B0090034BE0FBA3E0FAA3E0F990000312010E
:101F7B009DFB7D1A7F0112005E90034BE0FBA3E0FB
:101F8B00FAA3E0F990000412019DFB7D117F011271
:101F9B00005E90034BE0FBA3E0FAA3E0F990000591
:101FAB0012019DFB7D127F0112005E90034BE0FB43
:101FBB00A3E0FAA3E0F990000612019DFB7D137FCD
:101FCB000112005E020FC7900021EBF0A3EAF0A311
:101FDB00E9F0120184FB7D087F0112005E90002165
:101FEB00E0FBA3E0FAA3E0F9120184FF90033EF0BB
:101FFB00E4900340F0EF54C060037440F090033E54
:10200B00E054306007900340E04410F09000011260
:10201B00019DFB7D097F0112005E900021E0FBA377
:10202B00E0FAA3E0F990000212019DFB7D0A7F010B
:10203B0012005E900021E0FBA3E0FAA3E0F9900010
:10204B000312019DFB7D0B7F0102005E90034FEBA2
:10205B00F0A3EAF0A3E9F0A3E0FB7D6B7F01120094
:10206B005E900352E0FB7D6C7F0102005E90025696
:10207B007401F0A37400F0A374C8F07B037D957F0B
:10208B000112076F9000C9E07D00FCA3E07E007891
:10209B0010C333CE33CED8F9FFEE4CFEEF4DFF908D
:1020AB0000C8E0FDEEEF4DFDAC06900341E0FEA352
:1020BB00E0FFC3ED9FFBEC9EFAD3EB9464EA940034
:1020CB00400122900341ECF0A3EDF0AE04FF22900F
:1020DB0002567401F0A37402F0A37452F07B017DDD
:1020EB00067F0112076F900252E0FF54066041EF2A
:1020FB0030E10C900340E0FF90033EE05F601390F3
:10210B000252E030E22A900340E0FF90033EE05F92
:10211B00601E90033EE0FFF4FE900340E05EFEEF96
:10212B0054AF4E90033EF0FEFB7D087F0112005E24
:10213B00900252E0FE30E1037F0122EE30E2037F9A
:05214B0002227F0022CA
:00000001FF
